{"abi":[{"type":"constructor","inputs":[{"name":"_flashLoanProvider","type":"address","internalType":"address"},{"name":"_governanceToken","type":"address","internalType":"address"},{"name":"_governor","type":"address","internalType":"address"},{"name":"_targetTreasury","type":"address","internalType":"address"}],"stateMutability":"nonpayable"},{"type":"function","name":"attackSucceeded","inputs":[],"outputs":[{"name":"","type":"bool","internalType":"bool"}],"stateMutability":"view"},{"type":"function","name":"attacker","inputs":[],"outputs":[{"name":"","type":"address","internalType":"address"}],"stateMutability":"view"},{"type":"function","name":"executeAttack","inputs":[{"name":"loanAmount","type":"uint256","internalType":"uint256"},{"name":"treasuryDrainAmount","type":"uint256","internalType":"uint256"}],"outputs":[{"name":"","type":"bool","internalType":"bool"}],"stateMutability":"nonpayable"},{"type":"function","name":"executeOperation","inputs":[{"name":"token","type":"address","internalType":"address"},{"name":"amount","type":"uint256","internalType":"uint256"},{"name":"fee","type":"uint256","internalType":"uint256"},{"name":"data","type":"bytes","internalType":"bytes"}],"outputs":[{"name":"","type":"bool","internalType":"bool"}],"stateMutability":"nonpayable"},{"type":"function","name":"flashLoanProvider","inputs":[],"outputs":[{"name":"","type":"address","internalType":"address"}],"stateMutability":"view"},{"type":"function","name":"getAttackCost","inputs":[{"name":"loanAmount","type":"uint256","internalType":"uint256"}],"outputs":[{"name":"","type":"uint256","internalType":"uint256"}],"stateMutability":"view"},{"type":"function","name":"getStolenAmount","inputs":[],"outputs":[{"name":"","type":"uint256","internalType":"uint256"}],"stateMutability":"view"},{"type":"function","name":"governanceToken","inputs":[],"outputs":[{"name":"","type":"address","internalType":"address"}],"stateMutability":"view"},{"type":"function","name":"governor","inputs":[],"outputs":[{"name":"","type":"address","internalType":"address"}],"stateMutability":"view"},{"type":"function","name":"recoverToken","inputs":[{"name":"token","type":"address","internalType":"address"},{"name":"to","type":"address","internalType":"address"}],"outputs":[],"stateMutability":"nonpayable"},{"type":"function","name":"stolenAmount","inputs":[],"outputs":[{"name":"","type":"uint256","internalType":"uint256"}],"stateMutability":"view"},{"type":"function","name":"targetTreasury","inputs":[],"outputs":[{"name":"","type":"address","internalType":"address"}],"stateMutability":"view"},{"type":"function","name":"wasAttackSuccessful","inputs":[],"outputs":[{"name":"","type":"bool","internalType":"bool"}],"stateMutability":"view"},{"type":"event","name":"AttackFailed","inputs":[{"name":"reason","type":"string","indexed":false,"internalType":"string"}],"anonymous":false},{"type":"event","name":"FlashLoanBorrowed","inputs":[{"name":"amount","type":"uint256","indexed":false,"internalType":"uint256"},{"name":"fee","type":"uint256","indexed":false,"internalType":"uint256"}],"anonymous":false},{"type":"event","name":"ProposalCreated","inputs":[{"name":"proposalId","type":"uint256","indexed":false,"internalType":"uint256"},{"name":"targetAmount","type":"uint256","indexed":false,"internalType":"uint256"}],"anonymous":false},{"type":"event","name":"ProposalExecuted","inputs":[{"name":"proposalId","type":"uint256","indexed":false,"internalType":"uint256"},{"name":"amountStolen","type":"uint256","indexed":false,"internalType":"uint256"}],"anonymous":false},{"type":"event","name":"VoteCasted","inputs":[{"name":"proposalId","type":"uint256","indexed":false,"internalType":"uint256"},{"name":"weight","type":"uint256","indexed":false,"internalType":"uint256"}],"anonymous":false}],"bytecode":{"object":"0x60803461020257601f6113be38819003918201601f19168301916001600160401b0383118484101761020657808492608094604052833981010312610202576100478161021a565b6100536020830161021a565b9161006c60606100656040840161021a565b920161021a565b6001600160a01b039092169283156101bd576001600160a01b0316908115610178576001600160a01b0316918215610140576001600160a01b03169283156100fb5760018060a01b03195f5416175f5560018060a01b0319600154161760015560018060a01b0319600254161760025560018060a01b0319600354161760035560405161118f908161022f8239f35b60405162461bcd60e51b815260206004820152601760248201527f496e76616c6964207461726765742074726561737572790000000000000000006044820152606490fd5b60405162461bcd60e51b815260206004820152601060248201526f24b73b30b634b21033b7bb32b93737b960811b6044820152606490fd5b60405162461bcd60e51b815260206004820152601860248201527f496e76616c696420676f7665726e616e636520746f6b656e00000000000000006044820152606490fd5b60405162461bcd60e51b815260206004820152601b60248201527f496e76616c696420666c617368206c6f616e2070726f766964657200000000006044820152606490fd5b5f80fd5b634e487b7160e01b5f52604160045260245ffd5b51906001600160a01b03821682036102025756fe60806040526004361015610011575f80fd5b5f3560e01c80630c340a24146100da57806316bc6e29146100c1578063276a6d26146100d557806348eb76ee146100d0578063639af6d0146100cb5780638142380a146100c65780638833dc27146100c1578063a533d40e146100bc578063b9319f13146100bc578063e6420eb9146100b7578063ee872558146100b2578063f96dae0a146100ad5763feaea586146100a8575f80fd5b610373565b61034b565b6102c9565b610275565b610258565b610115565b61022d565b610206565b6101de565b610146565b6100ed565b5f9103126100e957565b5f80fd5b346100e9575f3660031901126100e9576002546040516001600160a01b039091168152602090f35b346100e9575f3660031901126100e957602060ff600654166040519015158152f35b908160209103126100e9573590565b346100e95760203660031901126100e9575f54604051638dd2a7cf60e01b8152600480359082015290602090829060249082906001600160a01b03165afa80156101d9576101a6915f916101aa575b506040519081529081906020820190565b0390f35b6101cc915060203d6020116101d2575b6101c481836104ac565b8101906104d3565b5f610195565b503d6101ba565b6104e2565b346100e9575f3660031901126100e9576004546040516001600160a01b039091168152602090f35b346100e9575f3660031901126100e9575f546040516001600160a01b039091168152602090f35b346100e95760403660031901126100e957602061024e60243560043561065b565b6040519015158152f35b346100e9575f3660031901126100e9576020600554604051908152f35b346100e9575f3660031901126100e9576003546040516001600160a01b039091168152602090f35b600435906001600160a01b03821682036100e957565b602435906001600160a01b03821682036100e957565b346100e95760803660031901126100e9576102e261029d565b602435906044356064359167ffffffffffffffff83116100e957366023840112156100e95782600401359167ffffffffffffffff83116100e95736602484860101116100e9576101a6946024610339950192610ba5565b60405190151581529081906020820190565b346100e9575f3660031901126100e9576001546040516001600160a01b039091168152602090f35b346100e95760403660031901126100e95761038c61029d565b6103946102b3565b6004549091906103bf906103b8906001600160a01b03165b6001600160a01b031690565b33146110b0565b6040516370a0823160e01b81523060048201526001600160a01b03919091169190602081602481865afa9081156101d9575f91610479575b50806103ff57005b60405163a9059cbb60e01b81526001600160a01b03929092166004830152602482015290602090829060449082905f905af180156101d957610448915f9161044a575b506110fc565b005b61046c915060203d602011610472575b61046481836104ac565b81019061054a565b5f610442565b503d61045a565b610492915060203d6020116101d2576101c481836104ac565b5f6103f7565b634e487b7160e01b5f52604160045260245ffd5b90601f8019910116810190811067ffffffffffffffff8211176104ce57604052565b610498565b908160209103126100e9575190565b6040513d5f823e3d90fd5b156104f457565b60405162461bcd60e51b815260206004820152602860248201527f466c6173684c6f616e41747461636b3a206c6f616e20616d6f756e74206d7573604482015267074206265203e20360c41b6064820152608490fd5b908160209103126100e9575180151581036100e95790565b805180835260209291819084018484015e5f828201840152601f01601f1916010190565b6001600160a01b039182168152602081019290925290911660408201526080606082018190526105b892910190610562565b90565b5f9060033d116105c757565b905060045f803e5f5160e01c90565b5f60443d106105b8576040513d600319016004823e8051913d602484011167ffffffffffffffff841117610644578282019283519167ffffffffffffffff831161063c573d8401600319018584016020011161063c57506105b8929101602001906104ac565b949350505050565b92915050565b9060206105b8928181520190610562565b6106af6020916106bd610703946106738315156104ed565b600480546001600160a01b0319163317905561068e5f600555565b61069d60ff1960065416600655565b60405185810191825293849160200190565b03601f1981018452836104ac565b5f546106d3906103ac906001600160a01b031681565b60015460405163adf51de160e01b8152958694929385935f9385939230916001600160a01b031660048601610586565b03925af15f91816107d4575b506105b8575061071d6105bb565b6308c379a014610790575b7ff7ce286cb87e5c742d8641799444d56f1df046fa657c97d13b6f4fddb35a8cc3604051806107898160609060208152601b60208201527f556e6b6e6f776e206572726f7220647572696e672061747461636b000000000060408201520190565b0390a15f90565b6107986105d6565b806107a35750610728565b6107897ff7ce286cb87e5c742d8641799444d56f1df046fa657c97d13b6f4fddb35a8cc3916040519182918261064a565b6107ee91925060203d6020116104725761046481836104ac565b905f61070f565b156107fc57565b60405162461bcd60e51b815260206004820152603260248201527f466c6173684c6f616e41747461636b3a206f6e6c7920666c617368206c6f616e604482015271081c1c9bdd9a59195c8818d85b8818d85b1b60721b6064820152608490fd5b1561086357565b60405162461bcd60e51b815260206004820152601f60248201527f466c6173684c6f616e41747461636b3a20746f6b656e206d69736d61746368006044820152606490fd5b156108af57565b60405162461bcd60e51b815260206004820152602c60248201527f466c6173684c6f616e41747461636b3a206661696c656420746f206761696e2060448201526b3b37ba34b733903837bbb2b960a11b6064820152608490fd5b6040805190919061091a83826104ac565b6001815291601f1901366020840137565b8051156109385760200190565b634e487b7160e01b5f52603260045260245ffd5b6040805190919061095d83826104ac565b6001815291601f1901825f5b82811061097557505050565b806060602080938501015201610969565b604051906060820182811067ffffffffffffffff8211176104ce5760405260278252661a191c985dd85b60ca1b6040837f50524f504f53414c3a20456d657267656e63792054726561737572792057697460208201520152565b90602080835192838152019201905f5b8181106109fd5750505090565b82516001600160a01b03168452602093840193909201916001016109f0565b90602080835192838152019201905f5b818110610a395750505090565b8251845260209384019390920191600101610a2c565b9080602083519182815201916020808360051b8301019401925f915b838310610a7a57505050505090565b9091929394602080610a98600193601f198682030187528951610562565b97019301930191939290610a6b565b92610ad36105b89593610ac5610ae1946080885260808801906109e0565b908682036020880152610a1c565b908482036040860152610a4f565b916060818403910152610562565b949392610b1b606093610b0d610b299460808a5260808a01906109e0565b9088820360208a0152610a1c565b908682036040880152610a4f565b930152565b91908201809211610b3b57565b634e487b7160e01b5f52601160045260245ffd5b15610b5657565b60405162461bcd60e51b815260206004820152602160248201527f466c6173684c6f616e41747461636b3a2072657061796d656e74206661696c656044820152601960fa1b6064820152608490fd5b92610c33610c409195929395610bce610bc76103ac5f5460018060a01b031690565b33146107f5565b600154610be3906001600160a01b03166103ac565b956001600160a01b031693610bf985881461085c565b60408051878152602081018a90527ffbbb6e543d08f960dc8161e62a76fb27b6bb8a7fc0f0c6a0b652de81a79e1ea79190a1810190610137565b936001600160a01b031690565b803b156100e9576040516317066a5760e21b8152306004820152905f908290602490829084905af180156101d95761109c575b50600154610c8b906103ac906001600160a01b031681565b6040516309ab24eb60e41b81523060048201529290602090849060249082905afa9283156101d9575f9361107b575b50610cc68315156108a8565b610cce610909565b600354909590610cf9906001600160a01b0316610cea8861092b565b6001600160a01b039091169052565b610d01610909565b915f610d0c8461092b565b52610d1561094c565b604051634becde4160e11b602082015230602482015260448082018990528152909690610d436064826104ac565b610d4c8861092b565b52610d568761092b565b50610d5f610986565b90610d6e826020815191012090565b966020898b885f610d8c6103ac6103ac60025460018060a01b031690565b92610dad604051998a9687958694633eaf40f160e11b865260048601610aa7565b03925af19283156101d9575f9361105a575b5060408051848152602081018490527ffcf3b1aa65a464cef2889608f99e8b8c0f680a4be6c2acb9d961c536a5a9294b9190a1600254610e09906103ac906001600160a01b031681565b90813b156100e957604051630acf027160e31b81526004810185905260016024820152915f908390604490829084905af19081156101d9577f5d4760119c8e8650149aac097d38c70515dfce015031561ad115606533e479be92610e8592611046575b5060408051868152602081019290925290918291820190565b0390a1600254610e9f906103ac906001600160a01b031681565b96873b156100e9575f602099610f9799610f6d9883809e610ed660405197889687958694632656227d60e01b865260048601610aef565b03925af1908161102c575b50158914610fd65750507ff7ce286cb87e5c742d8641799444d56f1df046fa657c97d13b6f4fddb35a8cc360405180610f658160809060208152603060208201527f4661696c656420746f20657865637574652070726f706f73616c20696e20736960408201526f3733b632903a3930b739b0b1ba34b7b760811b60608201520190565b0390a1610b2e565b60405163a9059cbb60e01b8152336004820152602481019190915293849283919082906044820190565b03925af180156101d957610fb2915f91610fb7575b50610b4f565b600190565b610fd0915060203d6020116104725761046481836104ac565b5f610fac565b7ff758fc91e01b00ea6b4a6138756f7f28e021f9bf21db6dbf8c36c88eb737257a9161100a600160ff196006541617600655565b61101382600555565b6040805191825260208201929092529081908101610f65565b8061103a8c611040936104ac565b806100df565b5f610ee1565b8061103a5f611054936104ac565b5f610e6c565b61107491935060203d6020116101d2576101c481836104ac565b915f610dbf565b61109591935060203d6020116101d2576101c481836104ac565b915f610cba565b8061103a5f6110aa936104ac565b5f610c73565b156110b757565b60405162461bcd60e51b815260206004820152601960248201527f4f6e6c792061747461636b65722063616e207265636f766572000000000000006044820152606490fd5b1561110357565b60405162461bcd60e51b815260206004820152602860248201527f466c6173684c6f616e41747461636b3a207265636f766572207472616e7366656044820152671c8819985a5b195960c21b6064820152608490fdfea2646970667358221220168088022a3077c14837aba559b5262c1277e826fb53b83842b5be4fb0b864f164736f6c63430008210033","linkReferences":{}},"methodIdentifiers":{"attackSucceeded()":"8833dc27","attacker()":"48eb76ee","executeAttack(uint256,uint256)":"8142380a","executeOperation(address,uint256,uint256,bytes)":"ee872558","flashLoanProvider()":"639af6d0","getAttackCost(uint256)":"276a6d26","getStolenAmount()":"b9319f13","governanceToken()":"f96dae0a","governor()":"0c340a24","recoverToken(address,address)":"feaea586","stolenAmount()":"a533d40e","targetTreasury()":"e6420eb9","wasAttackSuccessful()":"16bc6e29"},"id":72}