{"abi":[{"type":"constructor","inputs":[{"name":"name_","type":"string","internalType":"string"},{"name":"symbol_","type":"string","internalType":"string"},{"name":"initialOwner","type":"address","internalType":"address"},{"name":"initialSupply","type":"uint256","internalType":"uint256"}],"stateMutability":"nonpayable"},{"type":"function","name":"CLOCK_MODE","inputs":[],"outputs":[{"name":"","type":"string","internalType":"string"}],"stateMutability":"view"},{"type":"function","name":"DOMAIN_SEPARATOR","inputs":[],"outputs":[{"name":"","type":"bytes32","internalType":"bytes32"}],"stateMutability":"view"},{"type":"function","name":"MAX_SUPPLY","inputs":[],"outputs":[{"name":"","type":"uint256","internalType":"uint256"}],"stateMutability":"view"},{"type":"function","name":"allowance","inputs":[{"name":"owner","type":"address","internalType":"address"},{"name":"spender","type":"address","internalType":"address"}],"outputs":[{"name":"","type":"uint256","internalType":"uint256"}],"stateMutability":"view"},{"type":"function","name":"approve","inputs":[{"name":"spender","type":"address","internalType":"address"},{"name":"value","type":"uint256","internalType":"uint256"}],"outputs":[{"name":"","type":"bool","internalType":"bool"}],"stateMutability":"nonpayable"},{"type":"function","name":"balanceOf","inputs":[{"name":"account","type":"address","internalType":"address"}],"outputs":[{"name":"","type":"uint256","internalType":"uint256"}],"stateMutability":"view"},{"type":"function","name":"checkpoints","inputs":[{"name":"account","type":"address","internalType":"address"},{"name":"pos","type":"uint32","internalType":"uint32"}],"outputs":[{"name":"","type":"tuple","internalType":"struct Checkpoints.Checkpoint208","components":[{"name":"_key","type":"uint48","internalType":"uint48"},{"name":"_value","type":"uint208","internalType":"uint208"}]}],"stateMutability":"view"},{"type":"function","name":"clock","inputs":[],"outputs":[{"name":"","type":"uint48","internalType":"uint48"}],"stateMutability":"view"},{"type":"function","name":"decimals","inputs":[],"outputs":[{"name":"","type":"uint8","internalType":"uint8"}],"stateMutability":"view"},{"type":"function","name":"delegate","inputs":[{"name":"delegatee","type":"address","internalType":"address"}],"outputs":[],"stateMutability":"nonpayable"},{"type":"function","name":"delegateBySig","inputs":[{"name":"delegatee","type":"address","internalType":"address"},{"name":"nonce","type":"uint256","internalType":"uint256"},{"name":"expiry","type":"uint256","internalType":"uint256"},{"name":"v","type":"uint8","internalType":"uint8"},{"name":"r","type":"bytes32","internalType":"bytes32"},{"name":"s","type":"bytes32","internalType":"bytes32"}],"outputs":[],"stateMutability":"nonpayable"},{"type":"function","name":"delegates","inputs":[{"name":"account","type":"address","internalType":"address"}],"outputs":[{"name":"","type":"address","internalType":"address"}],"stateMutability":"view"},{"type":"function","name":"eip712Domain","inputs":[],"outputs":[{"name":"fields","type":"bytes1","internalType":"bytes1"},{"name":"name","type":"string","internalType":"string"},{"name":"version","type":"string","internalType":"string"},{"name":"chainId","type":"uint256","internalType":"uint256"},{"name":"verifyingContract","type":"address","internalType":"address"},{"name":"salt","type":"bytes32","internalType":"bytes32"},{"name":"extensions","type":"uint256[]","internalType":"uint256[]"}],"stateMutability":"view"},{"type":"function","name":"getPastTotalSupply","inputs":[{"name":"timepoint","type":"uint256","internalType":"uint256"}],"outputs":[{"name":"","type":"uint256","internalType":"uint256"}],"stateMutability":"view"},{"type":"function","name":"getPastVotes","inputs":[{"name":"account","type":"address","internalType":"address"},{"name":"timepoint","type":"uint256","internalType":"uint256"}],"outputs":[{"name":"","type":"uint256","internalType":"uint256"}],"stateMutability":"view"},{"type":"function","name":"getVotes","inputs":[{"name":"account","type":"address","internalType":"address"}],"outputs":[{"name":"","type":"uint256","internalType":"uint256"}],"stateMutability":"view"},{"type":"function","name":"mint","inputs":[{"name":"to","type":"address","internalType":"address"},{"name":"amount","type":"uint256","internalType":"uint256"}],"outputs":[],"stateMutability":"nonpayable"},{"type":"function","name":"name","inputs":[],"outputs":[{"name":"","type":"string","internalType":"string"}],"stateMutability":"view"},{"type":"function","name":"nonces","inputs":[{"name":"owner","type":"address","internalType":"address"}],"outputs":[{"name":"","type":"uint256","internalType":"uint256"}],"stateMutability":"view"},{"type":"function","name":"numCheckpoints","inputs":[{"name":"account","type":"address","internalType":"address"}],"outputs":[{"name":"","type":"uint32","internalType":"uint32"}],"stateMutability":"view"},{"type":"function","name":"owner","inputs":[],"outputs":[{"name":"","type":"address","internalType":"address"}],"stateMutability":"view"},{"type":"function","name":"permit","inputs":[{"name":"owner","type":"address","internalType":"address"},{"name":"spender","type":"address","internalType":"address"},{"name":"value","type":"uint256","internalType":"uint256"},{"name":"deadline","type":"uint256","internalType":"uint256"},{"name":"v","type":"uint8","internalType":"uint8"},{"name":"r","type":"bytes32","internalType":"bytes32"},{"name":"s","type":"bytes32","internalType":"bytes32"}],"outputs":[],"stateMutability":"nonpayable"},{"type":"function","name":"renounceOwnership","inputs":[],"outputs":[],"stateMutability":"nonpayable"},{"type":"function","name":"selfDelegate","inputs":[],"outputs":[],"stateMutability":"nonpayable"},{"type":"function","name":"symbol","inputs":[],"outputs":[{"name":"","type":"string","internalType":"string"}],"stateMutability":"view"},{"type":"function","name":"totalSupply","inputs":[],"outputs":[{"name":"","type":"uint256","internalType":"uint256"}],"stateMutability":"view"},{"type":"function","name":"transfer","inputs":[{"name":"to","type":"address","internalType":"address"},{"name":"value","type":"uint256","internalType":"uint256"}],"outputs":[{"name":"","type":"bool","internalType":"bool"}],"stateMutability":"nonpayable"},{"type":"function","name":"transferFrom","inputs":[{"name":"from","type":"address","internalType":"address"},{"name":"to","type":"address","internalType":"address"},{"name":"value","type":"uint256","internalType":"uint256"}],"outputs":[{"name":"","type":"bool","internalType":"bool"}],"stateMutability":"nonpayable"},{"type":"function","name":"transferOwnership","inputs":[{"name":"newOwner","type":"address","internalType":"address"}],"outputs":[],"stateMutability":"nonpayable"},{"type":"event","name":"Approval","inputs":[{"name":"owner","type":"address","indexed":true,"internalType":"address"},{"name":"spender","type":"address","indexed":true,"internalType":"address"},{"name":"value","type":"uint256","indexed":false,"internalType":"uint256"}],"anonymous":false},{"type":"event","name":"DelegateChanged","inputs":[{"name":"delegator","type":"address","indexed":true,"internalType":"address"},{"name":"fromDelegate","type":"address","indexed":true,"internalType":"address"},{"name":"toDelegate","type":"address","indexed":true,"internalType":"address"}],"anonymous":false},{"type":"event","name":"DelegateVotesChanged","inputs":[{"name":"delegate","type":"address","indexed":true,"internalType":"address"},{"name":"previousVotes","type":"uint256","indexed":false,"internalType":"uint256"},{"name":"newVotes","type":"uint256","indexed":false,"internalType":"uint256"}],"anonymous":false},{"type":"event","name":"EIP712DomainChanged","inputs":[],"anonymous":false},{"type":"event","name":"OwnershipTransferred","inputs":[{"name":"previousOwner","type":"address","indexed":true,"internalType":"address"},{"name":"newOwner","type":"address","indexed":true,"internalType":"address"}],"anonymous":false},{"type":"event","name":"Transfer","inputs":[{"name":"from","type":"address","indexed":true,"internalType":"address"},{"name":"to","type":"address","indexed":true,"internalType":"address"},{"name":"value","type":"uint256","indexed":false,"internalType":"uint256"}],"anonymous":false},{"type":"error","name":"CheckpointUnorderedInsertion","inputs":[]},{"type":"error","name":"ECDSAInvalidSignature","inputs":[]},{"type":"error","name":"ECDSAInvalidSignatureLength","inputs":[{"name":"length","type":"uint256","internalType":"uint256"}]},{"type":"error","name":"ECDSAInvalidSignatureS","inputs":[{"name":"s","type":"bytes32","internalType":"bytes32"}]},{"type":"error","name":"ERC20ExceededSafeSupply","inputs":[{"name":"increasedSupply","type":"uint256","internalType":"uint256"},{"name":"cap","type":"uint256","internalType":"uint256"}]},{"type":"error","name":"ERC20InsufficientAllowance","inputs":[{"name":"spender","type":"address","internalType":"address"},{"name":"allowance","type":"uint256","internalType":"uint256"},{"name":"needed","type":"uint256","internalType":"uint256"}]},{"type":"error","name":"ERC20InsufficientBalance","inputs":[{"name":"sender","type":"address","internalType":"address"},{"name":"balance","type":"uint256","internalType":"uint256"},{"name":"needed","type":"uint256","internalType":"uint256"}]},{"type":"error","name":"ERC20InvalidApprover","inputs":[{"name":"approver","type":"address","internalType":"address"}]},{"type":"error","name":"ERC20InvalidReceiver","inputs":[{"name":"receiver","type":"address","internalType":"address"}]},{"type":"error","name":"ERC20InvalidSender","inputs":[{"name":"sender","type":"address","internalType":"address"}]},{"type":"error","name":"ERC20InvalidSpender","inputs":[{"name":"spender","type":"address","internalType":"address"}]},{"type":"error","name":"ERC2612ExpiredSignature","inputs":[{"name":"deadline","type":"uint256","internalType":"uint256"}]},{"type":"error","name":"ERC2612InvalidSigner","inputs":[{"name":"signer","type":"address","internalType":"address"},{"name":"owner","type":"address","internalType":"address"}]},{"type":"error","name":"ERC5805FutureLookup","inputs":[{"name":"timepoint","type":"uint256","internalType":"uint256"},{"name":"clock","type":"uint48","internalType":"uint48"}]},{"type":"error","name":"ERC6372InconsistentClock","inputs":[]},{"type":"error","name":"InvalidAccountNonce","inputs":[{"name":"account","type":"address","internalType":"address"},{"name":"currentNonce","type":"uint256","internalType":"uint256"}]},{"type":"error","name":"InvalidShortString","inputs":[]},{"type":"error","name":"OwnableInvalidOwner","inputs":[{"name":"owner","type":"address","internalType":"address"}]},{"type":"error","name":"OwnableUnauthorizedAccount","inputs":[{"name":"account","type":"address","internalType":"address"}]},{"type":"error","name":"SafeCastOverflowedUintDowncast","inputs":[{"name":"bits","type":"uint8","internalType":"uint8"},{"name":"value","type":"uint256","internalType":"uint256"}]},{"type":"error","name":"StringTooLong","inputs":[{"name":"str","type":"string","internalType":"string"}]},{"type":"error","name":"VotesExpiredSignature","inputs":[{"name":"expiry","type":"uint256","internalType":"uint256"}]}],"bytecode":{"object":"0x610160604052346100e357612c62803803809161001b826100fb565b610160396080816101600191126100e357610160516001600160401b0381116100e3578161004c916101600161015b565b6101805190916001600160401b0382116100e35761006d916101600161015b565b6101a0519091906001600160a01b03811681036100e357610092926101c05192610238565b604051611de09081610e4282396080518161124f015260a0518161130c015260c05181611219015260e0518161129e015261010051816112c4015261012051816108e30152610140518161090c0152f35b5f80fd5b634e487b7160e01b5f52604160045260245ffd5b610160601f91909101601f19168101906001600160401b0382119082101761012257604052565b6100e7565b601f909101601f19168101906001600160401b0382119082101761012257604052565b60405190610159604083610127565b565b81601f820112156100e3578051906001600160401b038211610122576040519261018f601f8401601f191660200185610127565b828452602083830101116100e357815f9260208093018386015e8301015290565b156101b757565b60405162461bcd60e51b815260206004820152600d60248201526c34b73b30b634b21037bbb732b960991b6044820152606490fd5b156101f357565b60405162461bcd60e51b815260206004820152601360248201527f6d617820737570706c79206578636565646564000000000000000000000000006044820152606490fd5b9291926040519061024a604083610127565b60018252603160f81b6020830190815281519093906001600160401b038111610122576102818161027c6003546103de565b610416565b6020601f821160011461035a57816102ba93926102b2925f9161034f575b508160011b915f199060031b1c19161790565b6003556104d3565b6102c3816106ac565b610120526102d0826107a1565b610140526020815191012060e052519020610100524660a0526102f1610893565b6080523060c0526001600160a01b0382161561033b578161031461015993610664565b61031e60016101b0565b6103366b033b2e3c9fd0803ce80000008311156101ec565b6105b8565b631e4fbdf760e01b5f90815260045260245ffd5b90508501515f61029f565b60035f52601f198216907fc2575a0e9e593c00f959f8c92f12db2869c3395a3b0502d05e2516446f71f85b915f5b8181106103c657509183916102ba9594600194106103ae575b5050811b016003556104d3565b8601515f1960f88460031b161c191690555f806103a1565b9192602060018192868a015181550194019201610388565b90600182811c9216801561040c575b60208310146103f857565b634e487b7160e01b5f52602260045260245ffd5b91607f16916103ed565b90601f8211610423575050565b80821161042e575050565b60035f5260205f206020601f830160051c921061046d575b81601f9101920160051c03905f5b82811061046057505050565b5f82820155600101610454565b5f9150610446565b919091601f8311610486575b505050565b81831161049257505050565b5f5260205f206020601f830160051c92106104cb575b81601f9101920160051c03905f5b82811015610481575f828201556001016104b6565b5f91506104a8565b80519091906001600160401b038111610122576104fc816104f56004546103de565b6004610475565b602092601f821160011461053c5761052c929382915f92610531575b50508160011b915f199060031b1c19161790565b600455565b015190505f80610518565b60045f52601f198216937f8a35acfbc15ff81a39ae7d344fd709f28e8600b4aa8c65c6b64bfe7fe36bd19b915f5b8681106105a05750836001959610610588575b505050811b01600455565b01515f1960f88460031b161c191690555f808061057d565b9192602060018192868501518155019401920161056a565b91906001600160a01b03831680156106515760025482810180911161064c576002555f81815260208181526040808320805486019055518481527fddf252ad1be2c89b69c2b068fc378daa952ba7f163c4a11628f55a4df523b3ef9190a3600254926001600160d01b038085116106355750610159929350610970565b630e58ae9360e11b5f52600485905260245260445ffd5b61095c565b63ec442f0560e01b5f525f60045260245ffd5b600b80546001600160a01b039283166001600160a01b0319821681179092559091167f8be0079c531659141344cd1fd0a4f28419497f9722a3daafe3b4186f6b6457e05f80a3565b908151602081105f146106c75750906106c4906108f1565b90565b6001600160401b038111610122576106eb816106e46005546103de565b6005610475565b602092601f82116001146107225761071a929382915f926105315750508160011b915f199060031b1c19161790565b60055560ff90565b60055f52601f198216937f036b6384b5eca791c62761152d0c79bb0604c104a5fb6f4eb0703f3154bb3db0915f5b8681106107895750836001959610610771575b505050811b0160055560ff90565b01515f1960f88460031b161c191690555f8080610763565b91926020600181928685015181550194019201610750565b908151602081105f146107b95750906106c4906108f1565b6001600160401b038111610122576107dd816107d66006546103de565b6006610475565b602092601f82116001146108145761080c929382915f926105315750508160011b915f199060031b1c19161790565b60065560ff90565b60065f52601f198216937ff652222313e28459528d920b65115c16c04f3efc82aaedc97be59f3f377c0d3f915f5b86811061087b5750836001959610610863575b505050811b0160065560ff90565b01515f1960f88460031b161c191690555f8080610855565b91926020600181928685015181550194019201610842565b60e051610100516040519060208201927f8b73c3c69bb8fe3d512ecc4cf759cc79239f7b179b0ffacaa9a75d522b39400f8452604083015260608201524660808201523060a082015260a081526108eb60c082610127565b51902090565b601f81511161091c57602081519101516020821061090d571790565b5f198260200360031b1b161790565b604460209160405192839163305a27a960e01b83528160048401528051918291826024860152018484015e5f828201840152601f01601f19168101030190fd5b634e487b7160e01b5f52601160045260245ffd5b9061097a81610a6f565b9165ffffffffffff4311610a5757600a5480610a2157506109b46109a4610159945f5b6001610de5565b65ffffffffffff4316600a610d0f565b50506001600160a01b03168015610a09575b60086020527f5eff886ea0ce6ca488a3d6e336d6c0f75f46d19b42c06ce5ee98e42c96d256c7545f9182526040909120546001600160a01b039081169116610b9e565b610a1a610a1583610a6f565b610aa0565b50506109c6565b92835f1981011161064c57600a5f525f516020612c225f395f51905f5290930154610159936109b4916109a4919060301c61099d565b6306dfcc6560e41b5f5260306004524360245260445ffd5b6001600160d01b038111610a89576001600160d01b031690565b6306dfcc6560e41b5f5260d060045260245260445ffd5b65ffffffffffff4311610a5757600a5480610aca57506109a4610ac6915f5b6002610de5565b9091565b805f1981011161064c57600a5f525f516020612c225f395f51905f520154610ac6916109a49160301c610abf565b65ffffffffffff4311610a5757805480610b2c5750610b1c610ac6925f6002610de5565b9065ffffffffffff431690610d0f565b805f1981011161064c575f82815260209020015f190154610ac692610b1c9160301c610abf565b65ffffffffffff4311610a5757805480610b775750610b1c610ac6925f6001610de5565b805f1981011161064c575f82815260209020015f190154610ac692610b1c9160301c61099d565b6001600160a01b03808316939291908116908185141580610c91575b610bc6575b5050505050565b81610c37575b505082610bdb575b8080610bbf565b6001600160a01b03165f9081526009602052604090205f516020612c425f395f51905f5291610c1491610c0e9091610a6f565b90610b53565b604080516001600160d01b039384168152919092166020820152a25f8080610bd4565b6001600160a01b03165f9081526009602052604090205f516020612c425f395f51905f5290610c6f90610c6986610a6f565b90610af8565b604080516001600160d01b039384168152919092166020820152a25f80610bcc565b50831515610bba565b5f1981019190821161064c57565b908154680100000000000000008110156101225760018101808455811015610cfb575f9283526020928390208251929093015160301b65ffffffffffff191665ffffffffffff9290921691909117910155565b634e487b7160e01b5f52603260045260245ffd5b80549293928015610dbb57610d26610d3191610c9a565b825f5260205f200190565b8054603081901c9365ffffffffffff91821692918116808411610dac57879303610d785750610d7492509065ffffffffffff82549181199060301b169116179055565b9190565b915050610d7491610d98610d8a61014a565b65ffffffffffff9093168352565b6001600160d01b0386166020830152610ca8565b632520601d60e01b5f5260045ffd5b5090610de091610dcc610d8a61014a565b6001600160d01b0385166020830152610ca8565b5f9190565b91909180600114610e2757600214610e0b57634e487b7160e01b5f52605160045260245ffd5b6001600160d01b039081169181169190910390811161064c5790565b506001600160d01b039182169082160190811161064c579056fe60806040526004361015610011575f80fd5b5f3560e01c806306fdde03146101e4578063095ea7b3146101df57806318160ddd146101da57806323b872dd146101d5578063313ce567146101d057806332cb6b0c146101cb5780633644e515146101c65780633a46b1a8146101c15780633f0a52ff146101bc57806340c10f19146101b75780634bf5d7e9146101b2578063587cde1e146101ad5780635c19a95c146101a85780636fcfff45146101a357806370a082311461019e578063715018a6146101995780637ecebe001461019457806384b0196e1461018f5780638da5cb5b1461018a5780638e539e8c1461018557806391ddadf41461018057806395d89b411461017b5780639ab24eb014610176578063a9059cbb14610171578063c3cda5201461016c578063d505accf14610167578063dd62ed3e14610162578063f1127ed81461015d5763f2fde38b14610158575f80fd5b610f48565b610e96565b610e3f565b610d1b565b610c0c565b610bc6565b610b7f565b610ada565b610aaf565b6109f0565b6109c8565b6108cb565b610893565b610838565b610800565b61079e565b61077c565b61073c565b6106ac565b61057d565b610561565b61047c565b61045a565b610434565b610419565b610379565b61035c565b61032b565b610221565b805180835260209291819084018484015e5f828201840152601f01601f1916010190565b90602061021e9281815201906101e9565b90565b346102fb575f3660031901126102fb576040515f60035461024181610fe2565b80845290600181169081156102d75750600114610279575b61027583610269818503826110d0565b6040519182918261020d565b0390f35b60035f9081527fc2575a0e9e593c00f959f8c92f12db2869c3395a3b0502d05e2516446f71f85b939250905b8082106102bd57509091508101602001610269610259565b9192600181602092548385880101520191019092916102a5565b60ff191660208086019190915291151560051b840190910191506102699050610259565b5f80fd5b600435906001600160a01b03821682036102fb57565b602435906001600160a01b03821682036102fb57565b346102fb5760403660031901126102fb576103516103476102ff565b6024359033611480565b602060405160018152f35b346102fb575f3660031901126102fb576020600254604051908152f35b346102fb5760603660031901126102fb576103926102ff565b61039a610315565b6001600160a01b0382165f9081526001602090815260408083203384529091529020549160443591905f1984106103e2575b6103d69350611136565b60405160018152602090f35b8284106103fe576103f9836103d69503338361151b565b6103cc565b8284637dc7a0d960e11b5f523360045260245260445260645ffd5b346102fb575f3660031901126102fb57602060405160128152f35b346102fb575f3660031901126102fb5760206040516b033b2e3c9fd0803ce80000008152f35b346102fb575f3660031901126102fb576020610474611216565b604051908152f35b346102fb5760403660031901126102fb576104956102ff565b6001600160a01b03165f9081526009602052604090206104b6602435611332565b8154905f829160058411610509575b6104d093508461170c565b90816104ee57505060205f5b6040516001600160d01b039091168152f35b6104f960209261136b565b905f52815f20015460301c6104dc565b9192610514816115ae565b810390811161055c576104d093855f5265ffffffffffff8260205f2001541665ffffffffffff8516105f1461054a5750916104c5565b929150610556906110f2565b906104c5565b610fce565b346102fb575f3660031901126102fb5761057b3333611379565b005b346102fb5760403660031901126102fb576105966102ff565b6024356105a16113fa565b60025481810180911161055c576b033b2e3c9fd0803ce800000010610671576001600160a01b038216801561065e576105e46105df83600254611100565b600255565b6001600160a01b0383165f90815260208181526040808320805486019055518481527fddf252ad1be2c89b69c2b068fc378daa952ba7f163c4a11628f55a4df523b3ef9190a3600254916001600160d01b038084116106475761057b8383611b80565b630e58ae9360e11b5f52600484905260245260445ffd5b63ec442f0560e01b5f525f60045260245ffd5b60405162461bcd60e51b81526020600482015260136024820152721b585e081cdd5c1c1b1e48195e18d959591959606a1b6044820152606490fd5b346102fb575f3660031901126102fb576106c543611561565b65ffffffffffff806106d643611561565b1691160361072d576102756040516106ef6040826110d0565b601d81527f6d6f64653d626c6f636b6e756d6265722666726f6d3d64656661756c7400000060208201526040519182916020835260208301906101e9565b6301bfc1c560e61b5f5260045ffd5b346102fb5760203660031901126102fb576001600160a01b0361075d6102ff565b165f526008602052602060018060a01b0360405f205416604051908152f35b346102fb5760203660031901126102fb5761057b6107986102ff565b33611379565b346102fb5760203660031901126102fb576001600160a01b036107bf6102ff565b165f52600960205260405f205463ffffffff81116107e95760405163ffffffff9091168152602090f35b6306dfcc6560e41b5f52602060045260245260445ffd5b346102fb5760203660031901126102fb57602061047461081e6102ff565b6001600160a01b03165f9081526020819052604090205490565b346102fb575f3660031901126102fb576108506113fa565b600b80546001600160a01b031981169091555f906001600160a01b03167f8be0079c531659141344cd1fd0a4f28419497f9722a3daafe3b4186f6b6457e08280a3005b346102fb5760203660031901126102fb576001600160a01b036108b46102ff565b165f526007602052602060405f2054604051908152f35b346102fb575f3660031901126102fb5761096f6109077f0000000000000000000000000000000000000000000000000000000000000000611892565b6109307f00000000000000000000000000000000000000000000000000000000000000006118f2565b602060405161093f82826110d0565b5f81528161097d81830194601f198301368737604051978897600f60f81b895260e0858a015260e08901906101e9565b9087820360408901526101e9565b914660608701523060808701525f60a087015285830360c087015251918281520192915f5b8281106109b157505050500390f35b8351855286955093810193928101926001016109a2565b346102fb575f3660031901126102fb57600b546040516001600160a01b039091168152602090f35b346102fb5760203660031901126102fb57610a0c600435611332565b600a54905f829160058411610a5b575b610a289350600a61170c565b80610a3957506040515f8152602090f35b610a56610a4760209261136b565b600a5f52825f20015460301c90565b6104dc565b9192610a66816115ae565b810390811161055c57610a2893600a5f5265ffffffffffff8260205f2001541665ffffffffffff8516105f14610a9d575091610a1c565b929150610aa9906110f2565b90610a1c565b346102fb575f3660031901126102fb576020610aca43611561565b65ffffffffffff60405191168152f35b346102fb575f3660031901126102fb576040515f600454610afa81610fe2565b80845290600181169081156102d75750600114610b215761027583610269818503826110d0565b60045f9081527f8a35acfbc15ff81a39ae7d344fd709f28e8600b4aa8c65c6b64bfe7fe36bd19b939250905b808210610b6557509091508101602001610269610259565b919260018160209254838588010152019101909291610b4d565b346102fb5760203660031901126102fb576001600160a01b03610ba06102ff565b165f526009602052602060018060d01b03610bbd60405f20611421565b16604051908152f35b346102fb5760403660031901126102fb57610351610be26102ff565b6024359033611136565b6064359060ff821682036102fb57565b6084359060ff821682036102fb57565b346102fb5760c03660031901126102fb57610c256102ff565b60243590604435610c34610bec565b6084359060a43592804211610d095791610cb99391610cab610cb09460405160208101917fe48329057bfd03d55e49b547132e39cffd9c1820ad7b9d4c5307691425d15adf835260018060a01b038a1660408301528a6060830152608082015260808152610ca360a0826110d0565b51902061144b565b611929565b909291926119d4565b6001600160a01b0381165f908152600760205260409020805460018101909155809303610cea5761057b9250611379565b90506301d4b62360e61b5f5260018060a01b031660045260245260445ffd5b632341d78760e11b5f5260045260245ffd5b346102fb5760e03660031901126102fb57610d346102ff565b610d3c610315565b6044359060643592610d4c610bfc565b60a43560c43590864211610e2c576001600160a01b0384165f908152600760205260409020805460018101909155610df19390610dec909860405160208101917f6e71edae12b1b97f4d1f60370fef10105fa2faae0126114a169c64845d6126c9835260018060a01b0389169b8c604084015260018060a01b038b1660608401528b608084015260a083015260c082015260c08152610ca360e0826110d0565b611471565b936001600160a01b03851603610e0b5761057b9350611480565b6325c0072360e11b5f526001600160a01b038085166004521660245260445ffd5b8663313c898160e11b5f5260045260245ffd5b346102fb5760403660031901126102fb576020610e8d610e5d6102ff565b610e65610315565b6001600160a01b039182165f9081526001855260408082209290931681526020919091522090565b54604051908152f35b346102fb5760403660031901126102fb57610eaf6102ff565b6024359063ffffffff821682036102fb5761027591610efe91610ed061111e565b50610ed961111e565b506001600160a01b03165f908152600960205260409020610ef861111e565b50611a50565b5060405190610f0c826110af565b5465ffffffffffff811680835260309190911c60209283019081526040805192835290516001600160d01b031692820192909252918291820190565b346102fb5760203660031901126102fb57610f616102ff565b610f696113fa565b6001600160a01b03168015610fbb57600b80546001600160a01b0319811683179091556001600160a01b03167f8be0079c531659141344cd1fd0a4f28419497f9722a3daafe3b4186f6b6457e05f80a3005b631e4fbdf760e01b5f525f60045260245ffd5b634e487b7160e01b5f52601160045260245ffd5b90600182811c92168015611010575b6020831014610ffc57565b634e487b7160e01b5f52602260045260245ffd5b91607f1691610ff1565b5f929181549161102983610fe2565b808352926001811690811561107e575060011461104557505050565b5f9081526020812093945091925b838310611064575060209250010190565b600181602092949394548385870101520191019190611053565b915050602093945060ff929192191683830152151560051b010190565b634e487b7160e01b5f52604160045260245ffd5b6040810190811067ffffffffffffffff8211176110cb57604052565b61109b565b90601f8019910116810190811067ffffffffffffffff8211176110cb57604052565b906001820180921161055c57565b9190820180921161055c57565b6040519061111c6040836110d0565b565b6040519061112b826110af565b5f6020838281520152565b6001600160a01b038116939291908415611203576001600160a01b038216801561065e576001600160a01b0382165f908152602081905260409020548481106111e857958461111c96970361119a8460018060a01b03165f525f60205260405f2090565b556001600160a01b0384165f908152602081815260409182902080548801905590518681527fddf252ad1be2c89b69c2b068fc378daa952ba7f163c4a11628f55a4df523b3ef9190a3611c03565b84908763391434e360e21b5f5260045260245260445260645ffd5b634b637e8f60e11b5f525f60045260245ffd5b307f00000000000000000000000000000000000000000000000000000000000000006001600160a01b03161480611309575b15611271577f000000000000000000000000000000000000000000000000000000000000000090565b60405160208101907f8b73c3c69bb8fe3d512ecc4cf759cc79239f7b179b0ffacaa9a75d522b39400f82527f000000000000000000000000000000000000000000000000000000000000000060408201527f000000000000000000000000000000000000000000000000000000000000000060608201524660808201523060a082015260a0815261130360c0826110d0565b51902090565b507f00000000000000000000000000000000000000000000000000000000000000004614611248565b65ffffffffffff61134243611561565b1680821015611355575061021e90611561565b90637669fc0f60e11b5f5260045260245260445ffd5b5f1981019190821161055c57565b6001600160a01b038181165f81815260086020526040812080548685166001600160a01b03198216811790925561111c969416946113f49390928691907f3134e8a2e6d97e929a7e54011ea5485d7d196dd5f0ba4d4ef95803e8e3fc257f9080a46001600160a01b03165f9081526020819052604090205490565b91611770565b600b546001600160a01b0316330361140e57565b63118cdaa760e01b5f523360045260245ffd5b8054908161142f5750505f90565b815f1981011161055c575f525f199060205f2001015460301c90565b604290611456611216565b906040519161190160f01b8352600283015260228201522090565b9161021e9391610cb093611929565b6001600160a01b0316908115611508576001600160a01b0381169283156114f557806114e87f8c5be1e5ebec7d5bd14f71427d1e84f3dd0314c0f7b2291e5b200ac8c7c3b92593855f52600160205260405f209060018060a01b03165f5260205260405f2090565b55604051908152602090a3565b634a1406b160e11b5f525f60045260245ffd5b63e602df0560e01b5f525f60045260245ffd5b6001600160a01b0316908115611508576001600160a01b038116156114f55761155e915f52600160205260405f209060018060a01b03165f5260205260405f2090565b55565b65ffffffffffff81116115795765ffffffffffff1690565b6306dfcc6560e41b5f52603060045260245260445ffd5b811561159a570490565b634e487b7160e01b5f52601260045260245ffd5b600181111561021e57806001600160801b8210156116cf575b61167561166b61166161165761164d61164361163261167c9760048a600160401b6116819c10156116c2575b6401000000008110156116b5575b620100008110156116a8575b61010081101561169b575b601081101561168e575b1015611686575b60030260011c90565b61163c818b611590565b0160011c90565b61163c818a611590565b61163c8189611590565b61163c8188611590565b61163c8187611590565b61163c8186611590565b8093611590565b821190565b900390565b60011b611629565b60041c9160021b91611622565b60081c9160041b91611618565b60101c9160081b9161160d565b60201c9160101b91611601565b60401c9160201b916115f3565b505061168161167c61167561166b61166161165761164d6116436116326116f68a60801c90565b9850600160401b97506115c79650505050505050565b91905b83821061171c5750505090565b9091928083169080841860011c820180921161055c57845f5265ffffffffffff8260205f2001541665ffffffffffff8416105f1461175e5750925b919061170f565b93925061176a906110f2565b91611757565b6001600160a01b03808316939291908116908185141580611889575b611798575b5050505050565b8161181c575b5050826117ad575b8080611791565b6001600160a01b03165f9081526009602052604090207fdec2bacdd2f05b59de34da9b523dff8be42e5e38e818c82fdb0bae774387a724916117f9916117f39091611a79565b90611ae2565b604080516001600160d01b039384168152919092166020820152a25f80806117a6565b6001600160a01b03165f9081526009602052604090207fdec2bacdd2f05b59de34da9b523dff8be42e5e38e818c82fdb0bae774387a724906118679061186186611a79565b90611aaa565b604080516001600160d01b039384168152919092166020820152a25f8061179e565b5083151561178c565b60ff81146118d85760ff811690601f82116118c957604051916118b66040846110d0565b6020808452838101919036833783525290565b632cd44ac360e21b5f5260045ffd5b5060405161021e816118eb81600561101a565b03826110d0565b60ff81146119165760ff811690601f82116118c957604051916118b66040846110d0565b5060405161021e816118eb81600661101a565b91907f7fffffffffffffffffffffffffffffff5d576e7357a4501ddfe92f46681b20a084116119ab579160209360809260ff5f9560405194855216868401526040830152606082015282805260015afa156119a0575f516001600160a01b0381161561199657905f905f90565b505f906001905f90565b6040513d5f823e3d90fd5b5050505f9160039190565b600411156119c057565b634e487b7160e01b5f52602160045260245ffd5b6119dd816119b6565b806119e6575050565b6119ef816119b6565b60018103611a065763f645eedf60e01b5f5260045ffd5b611a0f816119b6565b60028103611a2a575063fce698f760e01b5f5260045260245ffd5b80611a366003926119b6565b14611a3e5750565b6335e2f38360e21b5f5260045260245ffd5b8054821015611a65575f5260205f2001905f90565b634e487b7160e01b5f52603260045260245ffd5b6001600160d01b038111611a93576001600160d01b031690565b6306dfcc6560e41b5f5260d060045260245260445ffd5b90611ab443611561565b90611abe83611421565b6001600160d01b03918216908216039190821161055c57611ade92611cd4565b9091565b90611aec43611561565b90611af683611421565b6001600160d01b03918216908216019190821161055c57611ade92611cd4565b611b1f43611561565b90611b2a600a611421565b6001600160d01b039182169082160190811161055c57611ade91600a611cd4565b611b5443611561565b90611b5f600a611421565b6001600160d01b039182169082160390811161055c57611ade91600a611cd4565b9061111c91611b96611b9183611a79565b611b16565b50506001600160a01b03168015611beb575b60086020527f5eff886ea0ce6ca488a3d6e336d6c0f75f46d19b42c06ce5ee98e42c96d256c7545f9182526040909120546001600160a01b039081169116611770565b611bfc611bf783611a79565b611b4b565b5050611ba8565b61111c92916001600160a01b03909116908115611c66575b6001600160a01b0316908115611c53575b5f90815260086020526040808220549282529020546001600160a01b039081169116611770565b611c5f611bf784611a79565b5050611c2c565b611c72611b9184611a79565b5050611c1b565b8054600160401b8110156110cb57611c9691600182018155611a50565b611cc157815160209092015160301b65ffffffffffff191665ffffffffffff92909216919091179055565b634e487b7160e01b5f525f60045260245ffd5b80549293928015611d8057611ceb611cf69161136b565b825f5260205f200190565b8054603081901c9365ffffffffffff91821692918116808411611d7157879303611d3d5750611d3992509065ffffffffffff82549181199060301b169116179055565b9190565b915050611d3991611d5d611d4f61110d565b65ffffffffffff9093168352565b6001600160d01b0386166020830152611c79565b632520601d60e01b5f5260045ffd5b5090611da591611d91611d4f61110d565b6001600160d01b0385166020830152611c79565b5f919056fea26469706673582212204fa8ba611a55e86c435d2e910ba8b4fa026e3c1e8e1801bf9d961588bdd8512264736f6c63430008210033c65a7bb8d6351c1cf70c95a316cc6a92839c986682d98bc35f958f4883f9d2a7dec2bacdd2f05b59de34da9b523dff8be42e5e38e818c82fdb0bae774387a724","linkReferences":{}},"methodIdentifiers":{"CLOCK_MODE()":"4bf5d7e9","DOMAIN_SEPARATOR()":"3644e515","MAX_SUPPLY()":"32cb6b0c","allowance(address,address)":"dd62ed3e","approve(address,uint256)":"095ea7b3","balanceOf(address)":"70a08231","checkpoints(address,uint32)":"f1127ed8","clock()":"91ddadf4","decimals()":"313ce567","delegate(address)":"5c19a95c","delegateBySig(address,uint256,uint256,uint8,bytes32,bytes32)":"c3cda520","delegates(address)":"587cde1e","eip712Domain()":"84b0196e","getPastTotalSupply(uint256)":"8e539e8c","getPastVotes(address,uint256)":"3a46b1a8","getVotes(address)":"9ab24eb0","mint(address,uint256)":"40c10f19","name()":"06fdde03","nonces(address)":"7ecebe00","numCheckpoints(address)":"6fcfff45","owner()":"8da5cb5b","permit(address,address,uint256,uint256,uint8,bytes32,bytes32)":"d505accf","renounceOwnership()":"715018a6","selfDelegate()":"3f0a52ff","symbol()":"95d89b41","totalSupply()":"18160ddd","transfer(address,uint256)":"a9059cbb","transferFrom(address,address,uint256)":"23b872dd","transferOwnership(address)":"f2fde38b"},"id":86}