{"abi":[{"type":"constructor","inputs":[{"name":"_name","type":"string","internalType":"string"},{"name":"_token","type":"address","internalType":"contract IVotes"},{"name":"_timelock","type":"address","internalType":"contract TimelockController"},{"name":"_votingDelay","type":"uint48","internalType":"uint48"},{"name":"_votingPeriod","type":"uint32","internalType":"uint32"},{"name":"_proposalThreshold","type":"uint256","internalType":"uint256"},{"name":"_quorumPercentage","type":"uint256","internalType":"uint256"}],"stateMutability":"nonpayable"},{"type":"receive","stateMutability":"payable"},{"type":"function","name":"BALLOT_TYPEHASH","inputs":[],"outputs":[{"name":"","type":"bytes32","internalType":"bytes32"}],"stateMutability":"view"},{"type":"function","name":"CLOCK_MODE","inputs":[],"outputs":[{"name":"","type":"string","internalType":"string"}],"stateMutability":"view"},{"type":"function","name":"COUNTING_MODE","inputs":[],"outputs":[{"name":"","type":"string","internalType":"string"}],"stateMutability":"pure"},{"type":"function","name":"EXTENDED_BALLOT_TYPEHASH","inputs":[],"outputs":[{"name":"","type":"bytes32","internalType":"bytes32"}],"stateMutability":"view"},{"type":"function","name":"cancel","inputs":[{"name":"targets","type":"address[]","internalType":"address[]"},{"name":"values","type":"uint256[]","internalType":"uint256[]"},{"name":"calldatas","type":"bytes[]","internalType":"bytes[]"},{"name":"descriptionHash","type":"bytes32","internalType":"bytes32"}],"outputs":[{"name":"","type":"uint256","internalType":"uint256"}],"stateMutability":"nonpayable"},{"type":"function","name":"castVote","inputs":[{"name":"proposalId","type":"uint256","internalType":"uint256"},{"name":"support","type":"uint8","internalType":"uint8"}],"outputs":[{"name":"","type":"uint256","internalType":"uint256"}],"stateMutability":"nonpayable"},{"type":"function","name":"castVoteBySig","inputs":[{"name":"proposalId","type":"uint256","internalType":"uint256"},{"name":"support","type":"uint8","internalType":"uint8"},{"name":"voter","type":"address","internalType":"address"},{"name":"signature","type":"bytes","internalType":"bytes"}],"outputs":[{"name":"","type":"uint256","internalType":"uint256"}],"stateMutability":"nonpayable"},{"type":"function","name":"castVoteWithReason","inputs":[{"name":"proposalId","type":"uint256","internalType":"uint256"},{"name":"support","type":"uint8","internalType":"uint8"},{"name":"reason","type":"string","internalType":"string"}],"outputs":[{"name":"","type":"uint256","internalType":"uint256"}],"stateMutability":"nonpayable"},{"type":"function","name":"castVoteWithReasonAndParams","inputs":[{"name":"proposalId","type":"uint256","internalType":"uint256"},{"name":"support","type":"uint8","internalType":"uint8"},{"name":"reason","type":"string","internalType":"string"},{"name":"params","type":"bytes","internalType":"bytes"}],"outputs":[{"name":"","type":"uint256","internalType":"uint256"}],"stateMutability":"nonpayable"},{"type":"function","name":"castVoteWithReasonAndParamsBySig","inputs":[{"name":"proposalId","type":"uint256","internalType":"uint256"},{"name":"support","type":"uint8","internalType":"uint8"},{"name":"voter","type":"address","internalType":"address"},{"name":"reason","type":"string","internalType":"string"},{"name":"params","type":"bytes","internalType":"bytes"},{"name":"signature","type":"bytes","internalType":"bytes"}],"outputs":[{"name":"","type":"uint256","internalType":"uint256"}],"stateMutability":"nonpayable"},{"type":"function","name":"clock","inputs":[],"outputs":[{"name":"","type":"uint48","internalType":"uint48"}],"stateMutability":"view"},{"type":"function","name":"eip712Domain","inputs":[],"outputs":[{"name":"fields","type":"bytes1","internalType":"bytes1"},{"name":"name","type":"string","internalType":"string"},{"name":"version","type":"string","internalType":"string"},{"name":"chainId","type":"uint256","internalType":"uint256"},{"name":"verifyingContract","type":"address","internalType":"address"},{"name":"salt","type":"bytes32","internalType":"bytes32"},{"name":"extensions","type":"uint256[]","internalType":"uint256[]"}],"stateMutability":"view"},{"type":"function","name":"execute","inputs":[{"name":"targets","type":"address[]","internalType":"address[]"},{"name":"values","type":"uint256[]","internalType":"uint256[]"},{"name":"calldatas","type":"bytes[]","internalType":"bytes[]"},{"name":"descriptionHash","type":"bytes32","internalType":"bytes32"}],"outputs":[{"name":"","type":"uint256","internalType":"uint256"}],"stateMutability":"payable"},{"type":"function","name":"getProposalId","inputs":[{"name":"targets","type":"address[]","internalType":"address[]"},{"name":"values","type":"uint256[]","internalType":"uint256[]"},{"name":"calldatas","type":"bytes[]","internalType":"bytes[]"},{"name":"descriptionHash","type":"bytes32","internalType":"bytes32"}],"outputs":[{"name":"","type":"uint256","internalType":"uint256"}],"stateMutability":"view"},{"type":"function","name":"getVotes","inputs":[{"name":"account","type":"address","internalType":"address"},{"name":"timepoint","type":"uint256","internalType":"uint256"}],"outputs":[{"name":"","type":"uint256","internalType":"uint256"}],"stateMutability":"view"},{"type":"function","name":"getVotesWithParams","inputs":[{"name":"account","type":"address","internalType":"address"},{"name":"timepoint","type":"uint256","internalType":"uint256"},{"name":"params","type":"bytes","internalType":"bytes"}],"outputs":[{"name":"","type":"uint256","internalType":"uint256"}],"stateMutability":"view"},{"type":"function","name":"hasVoted","inputs":[{"name":"proposalId","type":"uint256","internalType":"uint256"},{"name":"account","type":"address","internalType":"address"}],"outputs":[{"name":"","type":"bool","internalType":"bool"}],"stateMutability":"view"},{"type":"function","name":"hashProposal","inputs":[{"name":"targets","type":"address[]","internalType":"address[]"},{"name":"values","type":"uint256[]","internalType":"uint256[]"},{"name":"calldatas","type":"bytes[]","internalType":"bytes[]"},{"name":"descriptionHash","type":"bytes32","internalType":"bytes32"}],"outputs":[{"name":"","type":"uint256","internalType":"uint256"}],"stateMutability":"pure"},{"type":"function","name":"name","inputs":[],"outputs":[{"name":"","type":"string","internalType":"string"}],"stateMutability":"view"},{"type":"function","name":"nonces","inputs":[{"name":"owner","type":"address","internalType":"address"}],"outputs":[{"name":"","type":"uint256","internalType":"uint256"}],"stateMutability":"view"},{"type":"function","name":"onERC1155BatchReceived","inputs":[{"name":"","type":"address","internalType":"address"},{"name":"","type":"address","internalType":"address"},{"name":"","type":"uint256[]","internalType":"uint256[]"},{"name":"","type":"uint256[]","internalType":"uint256[]"},{"name":"","type":"bytes","internalType":"bytes"}],"outputs":[{"name":"","type":"bytes4","internalType":"bytes4"}],"stateMutability":"nonpayable"},{"type":"function","name":"onERC1155Received","inputs":[{"name":"","type":"address","internalType":"address"},{"name":"","type":"address","internalType":"address"},{"name":"","type":"uint256","internalType":"uint256"},{"name":"","type":"uint256","internalType":"uint256"},{"name":"","type":"bytes","internalType":"bytes"}],"outputs":[{"name":"","type":"bytes4","internalType":"bytes4"}],"stateMutability":"nonpayable"},{"type":"function","name":"onERC721Received","inputs":[{"name":"","type":"address","internalType":"address"},{"name":"","type":"address","internalType":"address"},{"name":"","type":"uint256","internalType":"uint256"},{"name":"","type":"bytes","internalType":"bytes"}],"outputs":[{"name":"","type":"bytes4","internalType":"bytes4"}],"stateMutability":"nonpayable"},{"type":"function","name":"proposalDeadline","inputs":[{"name":"proposalId","type":"uint256","internalType":"uint256"}],"outputs":[{"name":"","type":"uint256","internalType":"uint256"}],"stateMutability":"view"},{"type":"function","name":"proposalEta","inputs":[{"name":"proposalId","type":"uint256","internalType":"uint256"}],"outputs":[{"name":"","type":"uint256","internalType":"uint256"}],"stateMutability":"view"},{"type":"function","name":"proposalNeedsQueuing","inputs":[{"name":"proposalId","type":"uint256","internalType":"uint256"}],"outputs":[{"name":"","type":"bool","internalType":"bool"}],"stateMutability":"view"},{"type":"function","name":"proposalProposer","inputs":[{"name":"proposalId","type":"uint256","internalType":"uint256"}],"outputs":[{"name":"","type":"address","internalType":"address"}],"stateMutability":"view"},{"type":"function","name":"proposalSnapshot","inputs":[{"name":"proposalId","type":"uint256","internalType":"uint256"}],"outputs":[{"name":"","type":"uint256","internalType":"uint256"}],"stateMutability":"view"},{"type":"function","name":"proposalThreshold","inputs":[],"outputs":[{"name":"","type":"uint256","internalType":"uint256"}],"stateMutability":"view"},{"type":"function","name":"proposalVotes","inputs":[{"name":"proposalId","type":"uint256","internalType":"uint256"}],"outputs":[{"name":"againstVotes","type":"uint256","internalType":"uint256"},{"name":"forVotes","type":"uint256","internalType":"uint256"},{"name":"abstainVotes","type":"uint256","internalType":"uint256"}],"stateMutability":"view"},{"type":"function","name":"propose","inputs":[{"name":"targets","type":"address[]","internalType":"address[]"},{"name":"values","type":"uint256[]","internalType":"uint256[]"},{"name":"calldatas","type":"bytes[]","internalType":"bytes[]"},{"name":"description","type":"string","internalType":"string"}],"outputs":[{"name":"","type":"uint256","internalType":"uint256"}],"stateMutability":"nonpayable"},{"type":"function","name":"queue","inputs":[{"name":"targets","type":"address[]","internalType":"address[]"},{"name":"values","type":"uint256[]","internalType":"uint256[]"},{"name":"calldatas","type":"bytes[]","internalType":"bytes[]"},{"name":"descriptionHash","type":"bytes32","internalType":"bytes32"}],"outputs":[{"name":"","type":"uint256","internalType":"uint256"}],"stateMutability":"nonpayable"},{"type":"function","name":"quorum","inputs":[{"name":"blockNumber","type":"uint256","internalType":"uint256"}],"outputs":[{"name":"","type":"uint256","internalType":"uint256"}],"stateMutability":"view"},{"type":"function","name":"quorumDenominator","inputs":[],"outputs":[{"name":"","type":"uint256","internalType":"uint256"}],"stateMutability":"view"},{"type":"function","name":"quorumNumerator","inputs":[{"name":"timepoint","type":"uint256","internalType":"uint256"}],"outputs":[{"name":"","type":"uint256","internalType":"uint256"}],"stateMutability":"view"},{"type":"function","name":"quorumNumerator","inputs":[],"outputs":[{"name":"","type":"uint256","internalType":"uint256"}],"stateMutability":"view"},{"type":"function","name":"relay","inputs":[{"name":"target","type":"address","internalType":"address"},{"name":"value","type":"uint256","internalType":"uint256"},{"name":"data","type":"bytes","internalType":"bytes"}],"outputs":[],"stateMutability":"payable"},{"type":"function","name":"setProposalThreshold","inputs":[{"name":"newProposalThreshold","type":"uint256","internalType":"uint256"}],"outputs":[],"stateMutability":"nonpayable"},{"type":"function","name":"setVotingDelay","inputs":[{"name":"newVotingDelay","type":"uint48","internalType":"uint48"}],"outputs":[],"stateMutability":"nonpayable"},{"type":"function","name":"setVotingPeriod","inputs":[{"name":"newVotingPeriod","type":"uint32","internalType":"uint32"}],"outputs":[],"stateMutability":"nonpayable"},{"type":"function","name":"state","inputs":[{"name":"proposalId","type":"uint256","internalType":"uint256"}],"outputs":[{"name":"","type":"uint8","internalType":"enum IGovernor.ProposalState"}],"stateMutability":"view"},{"type":"function","name":"supportsInterface","inputs":[{"name":"interfaceId","type":"bytes4","internalType":"bytes4"}],"outputs":[{"name":"","type":"bool","internalType":"bool"}],"stateMutability":"view"},{"type":"function","name":"timelock","inputs":[],"outputs":[{"name":"","type":"address","internalType":"address"}],"stateMutability":"view"},{"type":"function","name":"token","inputs":[],"outputs":[{"name":"","type":"address","internalType":"contract IERC5805"}],"stateMutability":"view"},{"type":"function","name":"updateQuorumNumerator","inputs":[{"name":"newQuorumNumerator","type":"uint256","internalType":"uint256"}],"outputs":[],"stateMutability":"nonpayable"},{"type":"function","name":"updateTimelock","inputs":[{"name":"newTimelock","type":"address","internalType":"contract TimelockController"}],"outputs":[],"stateMutability":"nonpayable"},{"type":"function","name":"version","inputs":[],"outputs":[{"name":"","type":"string","internalType":"string"}],"stateMutability":"view"},{"type":"function","name":"votingDelay","inputs":[],"outputs":[{"name":"","type":"uint256","internalType":"uint256"}],"stateMutability":"view"},{"type":"function","name":"votingPeriod","inputs":[],"outputs":[{"name":"","type":"uint256","internalType":"uint256"}],"stateMutability":"view"},{"type":"event","name":"EIP712DomainChanged","inputs":[],"anonymous":false},{"type":"event","name":"ProposalCanceled","inputs":[{"name":"proposalId","type":"uint256","indexed":false,"internalType":"uint256"}],"anonymous":false},{"type":"event","name":"ProposalCreated","inputs":[{"name":"proposalId","type":"uint256","indexed":false,"internalType":"uint256"},{"name":"proposer","type":"address","indexed":false,"internalType":"address"},{"name":"targets","type":"address[]","indexed":false,"internalType":"address[]"},{"name":"values","type":"uint256[]","indexed":false,"internalType":"uint256[]"},{"name":"signatures","type":"string[]","indexed":false,"internalType":"string[]"},{"name":"calldatas","type":"bytes[]","indexed":false,"internalType":"bytes[]"},{"name":"voteStart","type":"uint256","indexed":false,"internalType":"uint256"},{"name":"voteEnd","type":"uint256","indexed":false,"internalType":"uint256"},{"name":"description","type":"string","indexed":false,"internalType":"string"}],"anonymous":false},{"type":"event","name":"ProposalExecuted","inputs":[{"name":"proposalId","type":"uint256","indexed":false,"internalType":"uint256"}],"anonymous":false},{"type":"event","name":"ProposalQueued","inputs":[{"name":"proposalId","type":"uint256","indexed":false,"internalType":"uint256"},{"name":"etaSeconds","type":"uint256","indexed":false,"internalType":"uint256"}],"anonymous":false},{"type":"event","name":"ProposalThresholdSet","inputs":[{"name":"oldProposalThreshold","type":"uint256","indexed":false,"internalType":"uint256"},{"name":"newProposalThreshold","type":"uint256","indexed":false,"internalType":"uint256"}],"anonymous":false},{"type":"event","name":"QuorumNumeratorUpdated","inputs":[{"name":"oldQuorumNumerator","type":"uint256","indexed":false,"internalType":"uint256"},{"name":"newQuorumNumerator","type":"uint256","indexed":false,"internalType":"uint256"}],"anonymous":false},{"type":"event","name":"TimelockChange","inputs":[{"name":"oldTimelock","type":"address","indexed":false,"internalType":"address"},{"name":"newTimelock","type":"address","indexed":false,"internalType":"address"}],"anonymous":false},{"type":"event","name":"VoteCast","inputs":[{"name":"voter","type":"address","indexed":true,"internalType":"address"},{"name":"proposalId","type":"uint256","indexed":false,"internalType":"uint256"},{"name":"support","type":"uint8","indexed":false,"internalType":"uint8"},{"name":"weight","type":"uint256","indexed":false,"internalType":"uint256"},{"name":"reason","type":"string","indexed":false,"internalType":"string"}],"anonymous":false},{"type":"event","name":"VoteCastWithParams","inputs":[{"name":"voter","type":"address","indexed":true,"internalType":"address"},{"name":"proposalId","type":"uint256","indexed":false,"internalType":"uint256"},{"name":"support","type":"uint8","indexed":false,"internalType":"uint8"},{"name":"weight","type":"uint256","indexed":false,"internalType":"uint256"},{"name":"reason","type":"string","indexed":false,"internalType":"string"},{"name":"params","type":"bytes","indexed":false,"internalType":"bytes"}],"anonymous":false},{"type":"event","name":"VotingDelaySet","inputs":[{"name":"oldVotingDelay","type":"uint256","indexed":false,"internalType":"uint256"},{"name":"newVotingDelay","type":"uint256","indexed":false,"internalType":"uint256"}],"anonymous":false},{"type":"event","name":"VotingPeriodSet","inputs":[{"name":"oldVotingPeriod","type":"uint256","indexed":false,"internalType":"uint256"},{"name":"newVotingPeriod","type":"uint256","indexed":false,"internalType":"uint256"}],"anonymous":false},{"type":"error","name":"CheckpointUnorderedInsertion","inputs":[]},{"type":"error","name":"FailedCall","inputs":[]},{"type":"error","name":"GovernorAlreadyCastVote","inputs":[{"name":"voter","type":"address","internalType":"address"}]},{"type":"error","name":"GovernorAlreadyQueuedProposal","inputs":[{"name":"proposalId","type":"uint256","internalType":"uint256"}]},{"type":"error","name":"GovernorDisabledDeposit","inputs":[]},{"type":"error","name":"GovernorInsufficientProposerVotes","inputs":[{"name":"proposer","type":"address","internalType":"address"},{"name":"votes","type":"uint256","internalType":"uint256"},{"name":"threshold","type":"uint256","internalType":"uint256"}]},{"type":"error","name":"GovernorInvalidProposalLength","inputs":[{"name":"targets","type":"uint256","internalType":"uint256"},{"name":"calldatas","type":"uint256","internalType":"uint256"},{"name":"values","type":"uint256","internalType":"uint256"}]},{"type":"error","name":"GovernorInvalidQuorumFraction","inputs":[{"name":"quorumNumerator","type":"uint256","internalType":"uint256"},{"name":"quorumDenominator","type":"uint256","internalType":"uint256"}]},{"type":"error","name":"GovernorInvalidSignature","inputs":[{"name":"voter","type":"address","internalType":"address"}]},{"type":"error","name":"GovernorInvalidVoteParams","inputs":[]},{"type":"error","name":"GovernorInvalidVoteType","inputs":[]},{"type":"error","name":"GovernorInvalidVotingPeriod","inputs":[{"name":"votingPeriod","type":"uint256","internalType":"uint256"}]},{"type":"error","name":"GovernorNonexistentProposal","inputs":[{"name":"proposalId","type":"uint256","internalType":"uint256"}]},{"type":"error","name":"GovernorNotQueuedProposal","inputs":[{"name":"proposalId","type":"uint256","internalType":"uint256"}]},{"type":"error","name":"GovernorOnlyExecutor","inputs":[{"name":"account","type":"address","internalType":"address"}]},{"type":"error","name":"GovernorQueueNotImplemented","inputs":[]},{"type":"error","name":"GovernorRestrictedProposer","inputs":[{"name":"proposer","type":"address","internalType":"address"}]},{"type":"error","name":"GovernorUnableToCancel","inputs":[{"name":"proposalId","type":"uint256","internalType":"uint256"},{"name":"account","type":"address","internalType":"address"}]},{"type":"error","name":"GovernorUnexpectedProposalState","inputs":[{"name":"proposalId","type":"uint256","internalType":"uint256"},{"name":"current","type":"uint8","internalType":"enum IGovernor.ProposalState"},{"name":"expectedStates","type":"bytes32","internalType":"bytes32"}]},{"type":"error","name":"InvalidAccountNonce","inputs":[{"name":"account","type":"address","internalType":"address"},{"name":"currentNonce","type":"uint256","internalType":"uint256"}]},{"type":"error","name":"InvalidShortString","inputs":[]},{"type":"error","name":"SafeCastOverflowedUintDowncast","inputs":[{"name":"bits","type":"uint8","internalType":"uint8"},{"name":"value","type":"uint256","internalType":"uint256"}]},{"type":"error","name":"StringTooLong","inputs":[{"name":"str","type":"string","internalType":"string"}]}],"bytecode":{"object":"0x610180604052346100b15761001e610015610155565b90949193610215565b604051613a319081610b3d823960805181613584015260a0518161363b015260c0518161354e015260e051816135d3015261010051816135f9015261012051816113d60152610140518161140201526101605181818161165a01528181611b0e01528181611c4301528181611ccc01528181611e4f0152818161209501528181612144015281816126ff01526134f50152f35b5f80fd5b634e487b7160e01b5f52604160045260245ffd5b601f909101601f19168101906001600160401b038211908210176100ec57604052565b6100b5565b604051906101006040836100c9565b565b6001600160401b0381116100ec57601f01601f191660200190565b51906001600160a01b03821682036100b157565b519065ffffffffffff821682036100b157565b519063ffffffff821682036100b157565b61458e803803806040519261016a82856100c9565b8339810160e0828203126100b15781516001600160401b0381116100b157820181601f820112156100b1578051906101a182610102565b926101af60405194856100c9565b828452602083830101116100b157815f9260208093018386015e830101526101d96020830161011d565b926101e66040840161011d565b926101f360608201610131565b9261020060808301610144565b9260c060a08401519301519196959493929190565b946102e56102fc956102e06102ea94966102db6101009b60405161023a6040826100c9565b6001815260208101603160f81b81526102528361069e565b6101205261025f8261078e565b6101405282516020840120918260e05251902080610100524660a0526040519060208201927f8b73c3c69bb8fe3d512ecc4cf759cc79239f7b179b0ffacaa9a75d522b39400f8452604083015260608201524660808201523060a082015260a081526102cc60c0826100c9565b5190206080523060c052610397565b610597565b6105e4565b610665565b6001600160a01b0316610160526104cf565b61047c565b90600182811c9216801561032f575b602083101461031b57565b634e487b7160e01b5f52602260045260245ffd5b91607f1691610310565b919091601f831161034a575b505050565b81831161035657505050565b5f5260205f206020601f830160051c921061038f575b81601f9101920160051c03905f5b82811015610345575f8282015560010161037a565b5f915061036c565b80519091906001600160401b0381116100ec576103c0816103b9600354610301565b6003610339565b602092601f8211600114610400576103f0929382915f926103f5575b50508160011b915f199060031b1c19161790565b600355565b015190505f806103dc565b60035f52601f198216937fc2575a0e9e593c00f959f8c92f12db2869c3395a3b0502d05e2516446f71f85b915f5b868110610464575083600195961061044c575b505050811b01600355565b01515f1960f88460031b161c191690555f8080610441565b9192602060018192868501518155019401920161042e565b600b54604080516001600160a01b03808416825290931660208401819052927f08f74ea46ef7894f65eabfb5e6e695de773a000b47c529ab559178069b2264019190a16001600160a01b03191617600b55565b6064811161058057600a549081610520575f51602061456e5f395f51905f5291505f5b61050c6104fd610880565b61050684610922565b90610a33565b5050604080519182526020820192909252a1565b815f1981011161056c57600a5f527fc65a7bb8d6351c1cf70c95a316cc6a92839c986682d98bc35f958f4883f9d2a791909101545f51602061456e5f395f51905f52919060301c6104f2565b634e487b7160e01b5f52601160045260245ffd5b63243e544560e01b5f52600452606460245260445ffd5b6008547fc565b045403dc03c2eea82b81a0465edad9e2e7fc4d97e11421c209da93d7a93604065ffffffffffff81519481851686521693846020820152a165ffffffffffff191617600855565b63ffffffff81169081156106525769ffffffff000000000000907f7e3f7f0708a84de9203036abaa450dccc85ad5ff52f78c170f3edb55cf5e882860406008549481519063ffffffff8760301c1682526020820152a160301b169069ffffffff000000000000191617600855565b63f1cfbf0560e01b5f525f60045260245ffd5b60075460408051918252602082018390527fccb45da8d5717e6c4544694297c4ba5cf151d455c9bb0ed4fc7a38411bc0546191a1600755565b908151602081105f146106b95750906106b690610953565b90565b6001600160401b0381116100ec576106db816106d55f54610301565b5f610339565b602092601f82116001146107115761070a929382915f926103f55750508160011b915f199060031b1c19161790565b5f5560ff90565b5f8052601f198216937f290decd9548b62a8d60345a988386fc84ba6bc95484008f6362f93160ef3e563915f5b868110610776575083600195961061075e575b505050811b015f5560ff90565b01515f1960f88460031b161c191690555f8080610751565b9192602060018192868501518155019401920161073e565b908151602081105f146107a65750906106b690610953565b6001600160401b0381116100ec576107ca816107c3600154610301565b6001610339565b602092601f8211600114610801576107f9929382915f926103f55750508160011b915f199060031b1c19161790565b60015560ff90565b60015f52601f198216937fb10e2d527612073b26eecdfd717e6a320cf44b4afac2b0732d9fcbe2b7fa0cf6915f5b8681106108685750836001959610610850575b505050811b0160015560ff90565b01515f1960f88460031b161c191690555f8080610842565b9192602060018192868501518155019401920161082f565b610160516040516324776b7d60e21b815290602090829060049082906001600160a01b03165afa5f91816108e6575b506106b6575065ffffffffffff43116108ce5765ffffffffffff431690565b6306dfcc6560e41b5f5260306004524360245260445ffd5b9091506020813d60201161091a575b81610902602093836100c9565b810103126100b15761091390610131565b905f6108af565b3d91506108f5565b6001600160d01b03811161093c576001600160d01b031690565b6306dfcc6560e41b5f5260d060045260245260445ffd5b601f81511161097e57602081519101516020821061096f571790565b5f198260200360031b1b161790565b604460209160405192839163305a27a960e01b83528160048401528051918291826024860152018484015e5f828201840152601f01601f19168101030190fd5b5f1981019190821161056c57565b908154680100000000000000008110156100ec5760018101808455811015610a1f575f9283526020928390208251929093015160301b65ffffffffffff191665ffffffffffff9290921691909117910155565b634e487b7160e01b5f52603260045260245ffd5b600a549192918015610b1357610a4b610a74916109be565b600a5f527fc65a7bb8d6351c1cf70c95a316cc6a92839c986682d98bc35f958f4883f9d2a80190565b908154610a90610a898265ffffffffffff1690565b9160301c90565b9265ffffffffffff808416921691808311610b0457869203610ace57610aca92509065ffffffffffff82549181199060301b169116179055565b9190565b5050610aca90610aed610adf6100f1565b65ffffffffffff9092168252565b6001600160d01b03851660208201525b600a6109cc565b632520601d60e01b5f5260045ffd5b50610b3790610b23610adf6100f1565b6001600160d01b0384166020820152610afd565b5f919056fe60806040526004361015610022575b3615610018575f80fd5b610020612323565b005b5f3560e01c806301ffc9a71461032c57806302a251a31461032757806306f3f9e61461032257806306fdde031461031d578063143489d014610318578063150b7a0214610313578063160cbed71461030e5780632656227d146103095780632d63f693146103045780632fe3e261146102ff5780633932abb1146102fa5780633e4f49e6146102f557806343859632146102f0578063452115d6146102eb5780634bf5d7e9146102e6578063544ffc9c146102e157806354fd4d50146102dc57806356781388146102d75780635b8d0e0d146102d25780635f398a14146102cd57806360c4247f146102c857806379051887146102c35780637b3c71d3146102be5780637d5e81e2146102b95780637ecebe00146102b457806384b0196e146102af5780638ff262e3146102aa57806391ddadf4146102a557806397c3d334146102a05780639a802a6d1461029b578063a7713a7014610296578063a890c91014610291578063a8f8a6681461026e578063a9a952941461028c578063ab58fb8e14610287578063b58131b014610282578063bc197c811461027d578063c01f9e3714610278578063c28bc2fa14610273578063c59057e41461026e578063d33219b414610269578063dd4e2ba514610264578063deaaa7cc1461025f578063e540d01d1461025a578063eb9019d414610255578063ece40cc114610250578063f23a6e611461024b578063f8ce560a146102465763fc0c546a0361000e57611cb7565b611c13565b611ba6565b611b51565b611aac565b611a06565b6119cc565b61196d565b611945565b611760565b6118b3565b611895565b6117e8565b6117cb565b611798565b61177c565b6116e8565b6116bd565b6115e8565b6115cd565b6115a3565b61148e565b6113be565b611350565b6112a2565b61124d565b6111db565b6111ad565b611138565b611092565b611024565b610fd1565b610f90565b610f61565b610dec565b610d97565b610d68565b610d12565b610cd8565b610ca3565b610b43565b6108fc565b6106b8565b6105be565b6104e4565b6103e6565b6103c0565b346103b25760203660031901126103b25760043563ffffffff60e01b81168091036103b2576366defe7760e11b81149081156103a1575b8115610390575b811561037f575b506040519015158152602090f35b6301ffc9a760e01b1490505f610371565b630271189760e51b8114915061036a565b6332a2ad4360e11b81149150610363565b5f80fd5b5f9103126103b257565b346103b2575f3660031901126103b257602063ffffffff60085460301c16604051908152f35b346103b25760203660031901126103b257600435610402612339565b60648111610495576001600160d01b0361041a612c6f565b169061042461212f565b916001600160d01b03821161047d577f0553476bf02ef2726e8ce5ced78d63e26e602e4a2257b1f559418e24b463399792610469906001600160d01b038416906133cf565b5050604080519182526020820192909252a1005b506306dfcc6560e41b5f5260d060045260245260445ffd5b63243e544560e01b5f52600452606460245260445ffd5b805180835260209291819084018484015e5f828201840152601f01601f1916010190565b9060206104e19281815201906104ac565b90565b346103b2575f3660031901126103b2576040515f60035461050481611cfb565b808452906001811690811561059a575060011461053c575b6105388361052c81850382610615565b604051918291826104d0565b0390f35b60035f9081527fc2575a0e9e593c00f959f8c92f12db2869c3395a3b0502d05e2516446f71f85b939250905b8082106105805750909150810160200161052c61051c565b919260018160209254838588010152019101909291610568565b60ff191660208086019190915291151560051b8401909101915061052c905061051c565b346103b25760203660031901126103b2576004355f526004602052602060018060a01b0360405f205416604051908152f35b6001600160a01b038116036103b257565b634e487b7160e01b5f52604160045260245ffd5b90601f801991011681019081106001600160401b0382111761063657604052565b610601565b6040519061064a604083610615565b565b6001600160401b03811161063657601f01601f191660200190565b9291926106738261064c565b916106816040519384610615565b8294818452818301116103b2578281602093845f960137010152565b9080601f830112156103b2578160206104e193359101610667565b346103b25760803660031901126103b2576106d46004356105f0565b6106df6024356105f0565b6064356001600160401b0381116103b2576106fe90369060040161069d565b50600b54306001600160a01b039091160361072557604051630a85bd0160e11b8152602090f35b637485328f60e11b5f5260045ffd5b6001600160401b0381116106365760051b60200190565b9080601f830112156103b257813561076281610734565b926107706040519485610615565b81845260208085019260051b8201019283116103b257602001905b8282106107985750505090565b6020809183356107a7816105f0565b81520191019061078b565b9080601f830112156103b25781356107c981610734565b926107d76040519485610615565b81845260208085019260051b8201019283116103b257602001905b8282106107ff5750505090565b81358152602091820191016107f2565b9080601f830112156103b257813561082681610734565b926108346040519485610615565b81845260208085019260051b820101918383116103b25760208201905b83821061086057505050505090565b81356001600160401b0381116103b2576020916108828784809488010161069d565b815201910190610851565b60806003198201126103b2576004356001600160401b0381116103b257816108b79160040161074b565b916024356001600160401b0381116103b257826108d6916004016107b2565b91604435906001600160401b0382116103b2576108f59160040161080f565b9060643590565b346103b25761090a3661088d565b9092610918828585846122bc565b93610922856123e1565b50600b54610940906001600160a01b03165b6001600160a01b031690565b936040519363793d064960e11b8552602085600481895afa948515610aee575f95610b22575b503060601b6bffffffffffffffffffffffff191618946020604051809263b1c5f42760e01b8252818061099f8b89898c60048601612d42565b03915afa908115610aee575f91610af3575b506109c4875f52600c60205260405f2090565b55600b546109da906001600160a01b0316610934565b90813b156103b2575f8094610a0687604051998a97889687956308f2a0bb60e41b875260048701612d87565b03925af1908115610aee57610a2a92610a2592610ad4575b5042612940565b613127565b9065ffffffffffff821615610ac5577f9a2e42fd6722813d69113e7d0079d3d940171428df7373df9c7f7617cfda2892610ab283610a93610538956001610a79875f52600460205260405f2090565b019065ffffffffffff1665ffffffffffff19825416179055565b6040805185815265ffffffffffff909216602083015290918291820190565b0390a16040519081529081906020820190565b634844252360e11b5f5260045ffd5b80610ae25f610ae893610615565b806103b6565b5f610a1e565b611de1565b610b15915060203d602011610b1b575b610b0d8183610615565b810190612c45565b5f6109b1565b503d610b03565b610b3c91955060203d602011610b1b57610b0d8183610615565b935f610966565b610b4c3661088d565b91610b59838383876122bc565b936020610b67603087612461565b50610b90610b7d875f52600460205260405f2090565b805460ff60f01b1916600160f01b179055565b600b54306001600160a01b0390911603610c3b575b5091849391610bb79361053896612de4565b600b543090610bce906001600160a01b0316610934565b141580610c16575b610c0d575b6040518181527f712ae1383f79ac853f8d882153778e0260ef8f03b504e2866e0593e04d2b291f908060208101610ab2565b5f600555610bdb565b50610c36610c326005546001600160801b0381169060801c1490565b1590565b610bd6565b949091935f5b8351811015610c955760019030610c6b610934610c5e8489611dc8565b516001600160a01b031690565b14610c77575b01610c41565b610c90610c848288611dc8565b5189815191012061249f565b610c71565b509094509290610538610ba5565b346103b25760203660031901126103b2576004355f526004602052602065ffffffffffff60405f205460a01c16604051908152f35b346103b2575f3660031901126103b25760206040517f3e83946653575f9a39005e1545185629e92736b7528ab20ca3816f315424a8118152f35b346103b2575f3660031901126103b257602065ffffffffffff60085416604051908152f35b634e487b7160e01b5f52602160045260245ffd5b60081115610d5557565b610d37565b6008811015610d5557602452565b346103b25760203660031901126103b257610d8460043561250e565b6040516008821015610d55576020918152f35b346103b25760403660031901126103b257602060ff610de0602435600435610dbe826105f0565b5f5260098452600360405f20019060018060a01b03165f5260205260405f2090565b54166040519015158152f35b346103b257610dfa3661088d565b91610e07838383876122bc565b93610e118561250e565b6008811015610d55571580610f44575b15610f2d57610e3094506122bc565b610e3b603b82612461565b50610e66610e51825f52600460205260405f2090565b80546001600160f81b0316600160f81b179055565b6040518181527f789cf55be980739dad1d0699b93b58e806b51c9d96619bfa8fe0a28abaa7b30c90602090a1610ea4815f52600c60205260405f2090565b549081610eb7575b604051908152602090f35b600b54610ecc906001600160a01b0316610934565b803b156103b25760405163c4d252f560e01b815260048101939093525f908390602490829084905af1918215610aee5761053892610f19575b505f818152600c6020526040812055610eac565b80610ae25f610f2793610615565b5f610f05565b84638fe5d8a960e01b5f526004523360245260445ffd5b50845f52600460205260018060a01b0360405f2054163314610e21565b346103b2575f3660031901126103b257610538610f7c611e3b565b6040519182916020835260208301906104ac565b346103b25760203660031901126103b2576004355f526009602052606060405f20805490600260018201549101549060405192835260208301526040820152f35b346103b2575f3660031901126103b257610538604051610ff2604082610615565b60018152603160f81b60208201526040519182916020835260208301906104ac565b6024359060ff821682036103b257565b346103b25760403660031901126103b257602061105d600435611045611014565b604051916110538584610615565b5f8352339061261b565b604051908152f35b9181601f840112156103b2578235916001600160401b0383116103b257602083818601950101116103b257565b346103b25760c03660031901126103b2576004356110ae611014565b90604435906110bc826105f0565b6064356001600160401b0381116103b2576110db903690600401611065565b6084356001600160401b0381116103b2576110fa90369060040161069d565b9160a435946001600160401b0386116103b2576105389661112261112897369060040161069d565b95611f0a565b6040519081529081906020820190565b346103b25760803660031901126103b257600435611154611014565b906044356001600160401b0381116103b257611174903690600401611065565b9190926064356001600160401b0381116103b257610eac9461119d6111a592369060040161069d565b943691610667565b913390612698565b346103b25760203660031901126103b257602061105d6004356127d3565b65ffffffffffff8116036103b257565b346103b25760203660031901126103b2576004356111f8816111cb565b611200612339565b6008547fc565b045403dc03c2eea82b81a0465edad9e2e7fc4d97e11421c209da93d7a93604065ffffffffffff81519481851686521693846020820152a165ffffffffffff191617600855005b346103b25760603660031901126103b257600435611269611014565b90604435906001600160401b0382116103b25760209261129a61129361105d943690600401611065565b3691610667565b91339061261b565b346103b25760803660031901126103b2576004356001600160401b0381116103b2576112d290369060040161074b565b6024356001600160401b0381116103b2576112f19036906004016107b2565b906044356001600160401b0381116103b25761131190369060040161080f565b90606435916001600160401b0383116103b257366023840112156103b2576105389361134a611128943690602481600401359101610667565b9261200e565b346103b25760203660031901126103b25760043561136d816105f0565b60018060a01b03165f526002602052602060405f2054604051908152f35b90602080835192838152019201905f5b8181106113a85750505090565b825184526020938401939092019160010161139b565b346103b2575f3660031901126103b2576114606113fa7f000000000000000000000000000000000000000000000000000000000000000061323d565b6105386114267f000000000000000000000000000000000000000000000000000000000000000061329c565b61146e60405191611438602084610615565b5f808452366020850137604051958695600f60f81b875260e0602088015260e08701906104ac565b9085820360408701526104ac565b904660608501523060808501525f60a085015283820360c085015261138b565b346103b25760803660031901126103b2576004356114aa611014565b90604435916114b8836105f0565b6064356001600160401b0381116103b257610c326114dd61156b92369060040161069d565b6001600160a01b0386165f9081526002602052604090208054600181019091556115659060405160208101917ff2aad550cf55f045cb27e9c559f9889fdfb6e6cdaa032301d6ea397784ae51d7835288604083015260ff8816606083015260018060a01b038a16608083015260a082015260a0815261155d60c082610615565b519020612f71565b86612fa1565b61158657906111289161053893611580611dec565b9261261b565b6394ab6c0760e01b5f526001600160a01b03831660045260245b5ffd5b346103b2575f3660031901126103b25760206115bd61212f565b65ffffffffffff60405191168152f35b346103b2575f3660031901126103b257602060405160648152f35b346103b25760603660031901126103b257600435611605816105f0565b6024356044356001600160401b0381116103b25761162790369060040161069d565b50604051630748d63560e31b81526001600160a01b039283166004820152602481019190915290602090829060449082907f0000000000000000000000000000000000000000000000000000000000000000165afa8015610aee57610538915f9161169e575b506040519081529081906020820190565b6116b7915060203d602011610b1b57610b0d8183610615565b5f61168d565b346103b2575f3660031901126103b25760206001600160d01b036116df612c6f565b16604051908152f35b346103b25760203660031901126103b257600435611705816105f0565b61170d612339565b600b54604080516001600160a01b03808416825290931660208401819052927f08f74ea46ef7894f65eabfb5e6e695de773a000b47c529ab559178069b2264019190a16001600160a01b03191617600b55005b346103b257602061105d6117733661088d565b929190916122bc565b346103b25760203660031901126103b257602060405160018152f35b346103b25760203660031901126103b257602061105d6004355f52600460205265ffffffffffff600160405f2001541690565b346103b2575f3660031901126103b2576020600754604051908152f35b346103b25760a03660031901126103b2576118046004356105f0565b61180f6024356105f0565b6044356001600160401b0381116103b25761182e9036906004016107b2565b506064356001600160401b0381116103b25761184e9036906004016107b2565b506084356001600160401b0381116103b25761186e90369060040161069d565b5061053861187a6121c2565b6040516001600160e01b031990911681529081906020820190565b346103b25760203660031901126103b257602061105d6004356121e1565b60603660031901126103b2576004356118cb816105f0565b6024356044356001600160401b0381116103b257610020925f926118f484933690600401611065565b91906118fe612339565b826040519384928337810185815203925af13d1561193d573d906119218261064c565b9161192f6040519384610615565b82523d5f602084013e612cb3565b606090612cb3565b346103b2575f3660031901126103b257600b546040516001600160a01b039091168152602090f35b346103b2575f3660031901126103b25761053860405161198e604082610615565b602081527f737570706f72743d627261766f2671756f72756d3d666f722c6162737461696e60208201526040519182916020835260208301906104ac565b346103b2575f3660031901126103b25760206040517ff2aad550cf55f045cb27e9c559f9889fdfb6e6cdaa032301d6ea397784ae51d78152f35b346103b25760203660031901126103b25760043563ffffffff8116908181036103b257611a31612339565b8115611a995769ffffffff000000000000907f7e3f7f0708a84de9203036abaa450dccc85ad5ff52f78c170f3edb55cf5e882860406008549481519063ffffffff8760301c1682526020820152a160301b169069ffffffff0000000000001916176008555f80f35b63f1cfbf0560e01b5f525f60045260245ffd5b346103b25760403660031901126103b257600435611ac9816105f0565b6024355f604051611adb602082610615565b52604051630748d63560e31b81526001600160a01b039283166004820152602481019190915290602090829060449082907f0000000000000000000000000000000000000000000000000000000000000000165afa8015610aee57610538915f9161169e57506040519081529081906020820190565b346103b25760203660031901126103b257600435611b6d612339565b60075460408051918252602082018390527fccb45da8d5717e6c4544694297c4ba5cf151d455c9bb0ed4fc7a38411bc0546191a1600755005b346103b25760a03660031901126103b257611bc26004356105f0565b611bcd6024356105f0565b6084356001600160401b0381116103b257611bec90369060040161069d565b50600b54306001600160a01b03909116036107255760405163f23a6e6160e01b8152602090f35b346103b25760203660031901126103b257600435604051632394e7a360e21b8152600481018290526020816024817f00000000000000000000000000000000000000000000000000000000000000006001600160a01b03165afa8015610aee5761053892611128925f92611c92575b50611c8c906127d3565b906132f1565b611c8c919250611cb09060203d602011610b1b57610b0d8183610615565b9190611c82565b346103b2575f3660031901126103b2576040517f00000000000000000000000000000000000000000000000000000000000000006001600160a01b03168152602090f35b90600182811c92168015611d29575b6020831014611d1557565b634e487b7160e01b5f52602260045260245ffd5b91607f1691611d0a565b5f9291815491611d4283611cfb565b8083529260018116908115611d975750600114611d5e57505050565b5f9081526020812093945091925b838310611d7d575060209250010190565b600181602092949394548385870101520191019190611d6c565b915050602093945060ff929192191683830152151560051b010190565b634e487b7160e01b5f52603260045260245ffd5b8051821015611ddc5760209160051b010190565b611db4565b6040513d5f823e3d90fd5b60405190611dfb602083610615565b5f8252565b60405190611e0f604083610615565b601d82527f6d6f64653d626c6f636b6e756d6265722666726f6d3d64656661756c740000006020830152565b604051634bf5d7e960e01b81525f816004817f00000000000000000000000000000000000000000000000000000000000000006001600160a01b03165afa5f9181611e8f575b506104e157506104e1611e00565b9091503d805f833e611ea18183610615565b8101906020818303126103b2578051906001600160401b0382116103b2570181601f820112156103b257805190611ed78261064c565b92611ee56040519485610615565b828452602083830101116103b257815f9260208093018386015e83010152905f611e81565b939092919695610c32611fc391611fbd8a611f26368789610667565b6001600160a01b0382165f90815260026020526040902080546001810190915590602081519101208b5160208d0120906040519260208401947f3e83946653575f9a39005e1545185629e92736b7528ab20ca3816f315424a81186528d604086015260ff8d16606086015260018060a01b0316608085015260a084015260c083015260e082015260e0815261155d61010082610615565b8a612fa1565b611fde576104e1959691611fd8913691610667565b92612698565b6394ab6c0760e01b5f526001600160a01b03871660045260245ffd5b634e487b7160e01b5f52601160045260245ffd5b919392909361201d82336128ca565b1561211c576007549485612039575b6104e19495503393612a62565b5f1965ffffffffffff61204a61212f565b160165ffffffffffff81116121175765ffffffffffff16955f604051612071602082610615565b52604051630748d63560e31b815233600482015260248101979097526020876044817f00000000000000000000000000000000000000000000000000000000000000006001600160a01b03165afa968715610aee575f976120f6575b508087106120db575061202c565b636121770b60e11b5f5233600452602487905260445260645ffd5b61211091975060203d602011610b1b57610b0d8183610615565b955f6120cd565b611ffa565b63d9b3955760e01b5f523360045260245ffd5b6040516324776b7d60e21b81526020816004817f00000000000000000000000000000000000000000000000000000000000000006001600160a01b03165afa5f9181612185575b506104e157506104e143613127565b9091506020813d6020116121ba575b816121a160209383610615565b810103126103b257516121b3816111cb565b905f612176565b3d9150612194565b600b54306001600160a01b03909116036107255763bc197c8160e01b90565b805f52600460205265ffffffffffff60405f205460a01c16905f52600460205263ffffffff60405f205460d01c160165ffffffffffff81116121175765ffffffffffff1690565b90602080835192838152019201905f5b8181106122455750505090565b82516001600160a01b0316845260209384019390920191600101612238565b9080602083519182815201916020808360051b8301019401925f915b83831061228f57505050505090565b90919293946020806122ad600193601f1986820301875289516104ac565b97019301930191939290612280565b929061231d916123096122f7946040519586946122e5602087019960808b5260a0880190612228565b868103601f190160408801529061138b565b848103601f1901606086015290612264565b90608083015203601f198101835282610615565b51902090565b600b54306001600160a01b039091160361072557565b600b54336001600160a01b03909116036123a257600b54306001600160a01b039091160361236357565b61236c3661064c565b6123796040519182610615565b3681526020810190365f83375f602036830101525190205b8061239a612cd9565b036123915750565b6347096e4760e01b5f523360045260245ffd5b6008811015610d555760ff600191161b90565b600452606491906008811015610d55576024525f604452565b6123ea8161250e565b9060106123f6836123b5565b1615612400575090565b6331b75e4d60e01b5f526004526124179150610d5a565b601060445260645ffd5b61242a8161250e565b906002612436836123b5565b1615612440575090565b6331b75e4d60e01b5f526004526124579150610d5a565b600260445260645ffd5b9061246b8261250e565b9181612476846123b5565b161561248157505090565b6331b75e4d60e01b5f5260045261249782610d5a565b60445260645ffd5b600554908160801c6001600160801b03806001830116931683146124e4575f52600660205260405f20556001600160801b036005549181199060801b16911617600555565b634e487b715f5260416020526024601cfd5b908160209103126103b2575180151581036103b25790565b61251781612e71565b9061252182610d4b565b600582036126175761253c91505f52600c60205260405f2090565b54600b54612552906001600160a01b0316610934565b604051632c258a9f60e11b815260048101839052602081602481855afa908115610aee575f916125f8575b501561258a575050600590565b604051632ab0f52960e01b81526004810192909252602090829060249082905afa908115610aee575f916125c9575b50156125c457600790565b600290565b6125eb915060203d6020116125f1575b6125e38183610615565b8101906124f6565b5f6125b9565b503d6125d9565b612611915060203d6020116125f1576125e38183610615565b5f61257d565b5090565b916104e1939160405193612630602086610615565b5f8552612698565b93909260ff612664936104e197958752166020860152604085015260a0606085015260a08401906104ac565b9160808184039101526104ac565b909260ff6080936104e196958452166020830152604082015281606082015201906104ac565b929190926126a581612421565b50805f52600460205265ffffffffffff6126cc60405f2065ffffffffffff905460a01c1690565b1693604051630748d63560e31b815260018060a01b03821695866004830152602482015260208160448160018060a01b037f0000000000000000000000000000000000000000000000000000000000000000165afa908115610aee5761273c9285915f936127b2575b508461300f565b948051155f1461277f57506127797fb8e138887d0aa13bab447e82de9d5c1777041ecd21ca36ba824ff1e6c07ddda4938660405194859485612672565b0390a290565b612779907fe2babfbac5889a709b63bb7f598b324e08bc5a4fb9ec647fb3cbc9ec07eb8712948760405195869586612638565b6127cc91935060203d602011610b1b57610b0d8183610615565b915f612735565b65ffffffffffff90806127e6600a6130ec565b9491501611155f1461280057505b6001600160d01b031690565b61280a9150613127565b600a54905f829160058411612876575b6128269350600a6137f9565b8061283257505f6127f4565b61286a61284161287192612c54565b600a5f527fc65a7bb8d6351c1cf70c95a316cc6a92839c986682d98bc35f958f4883f9d2a80190565b5460301c90565b6127f4565b91926128818161369b565b81039081116121175761282693600a5f5265ffffffffffff8260205f2001541665ffffffffffff8516105f146128b857509161281a565b9291506128c490612932565b9061281a565b9080516034811061292a5760131981830101516001600160b01b03191669dc8f8d908f908c9a8dc360b01b0161292a5761290991602919820190613182565b901591821561291757505090565b6001600160a01b03918216911614919050565b505050600190565b906001820180921161211757565b9190820180921161211757565b9061295782610734565b6129646040519182610615565b8281528092612975601f1991610734565b01905f5b82811061298557505050565b806060602080938501015201612979565b9599989697949391926129d7936129c992885260018060a01b031660208801526101206040880152610120870190612228565b90858203606087015261138b565b968388036080850152815180895260208901906020808260051b8c01019401915f905b828210612a3657505050506104e196975090612a1d9184820360a0860152612264565b9360c083015260e08201526101008184039101526104ac565b90919294602080612a546001938f601f1990820301865289516104ac565b9701920192019092916129fa565b929094939194612a7a825160208401208783876122bc565b958451825190818114801590612c3a575b8015612c32575b612c1357505065ffffffffffff612ac3612ab4895f52600460205260405f2090565b5460a01c65ffffffffffff1690565b16612bf65791612bf1917f7d84a6263ae0d98d3329bd7b46bb4e8d6f98cd35a7adb45c274c8b7fd5ebd5e0959493612b29612afc61212f565b65ffffffffffff612b22612b1765ffffffffffff6008541690565b65ffffffffffff1690565b9116612940565b90612b48612b3f63ffffffff60085460301c1690565b63ffffffff1690565b612bcf612b5d8c5f52600460205260405f2090565b80546001600160a01b0319166001600160a01b038a16178155612ba6612b8286613127565b825465ffffffffffff60a01b191660a09190911b65ffffffffffff60a01b16178255565b612baf83613212565b815463ffffffff60d01b191660d09190911b63ffffffff60d01b16179055565b612be3612bdc895161294d565b9184612940565b936040519889988d8a612996565b0390a1565b6115a087612c038161250e565b6331b75e4d60e01b5f52906123c8565b9151630447b05d60e41b5f908152600493909352602452604452606490fd5b508015612a92565b508251811415612a8b565b908160209103126103b2575190565b5f1981019190821161211757565b9190820391821161211757565b600a5480612c7c57505f90565b805f1981011161211757600a5f527fc65a7bb8d6351c1cf70c95a316cc6a92839c986682d98bc35f958f4883f9d2a7015460301c90565b15612cbb5790565b805115612cca57602081519101fd5b63d6bda27560e01b5f5260045ffd5b600554906001600160801b0382169160801c8214612d3057815f5260066020526001600160801b0380600160405f2054948281165f5260066020525f60408120550116166001600160801b03196005541617600555565b634e487b715f5260316020526024601cfd5b949392612d6e608093612d60612d7c9460a08a5260a08a0190612228565b9088820360208a015261138b565b908682036040880152612264565b935f60608201520152565b9192612db660a094612da8612dc4949998979960c0875260c0870190612228565b90858203602087015261138b565b908382036040850152612264565b945f606083015260808201520152565b634e487b715f526020526024601cfd5b600b5490949192916001600160a01b03909116906bffffffffffffffffffffffff193060601b16823b156103b257612e365f956040519788968795869563e38335e560e01b8752189260048601612d42565b039134905af18015610aee57612e58575b505f908152600c6020526040812055565b80612e645f8093610615565b8003126103b2575f612e47565b612e83815f52600460205260405f2090565b5460f881901c9060f01c60ff16612f6a57612f6457612eb0612b17612ab4835f52600460205260405f2090565b8015612f5057612ec1612b1761212f565b80911015612f4a57612ed2826121e1565b10612edd5750600190565b612ee9610c32826134af565b8015612f27575b15612efb5750600390565b612f19905f52600460205265ffffffffffff600160405f2001541690565b612f2257600490565b600590565b50612f45610c32825f52600960205260405f20600181015490541090565b612ef0565b50505f90565b636ad0607560e01b5f52600482905260245ffd5b50600290565b5050600790565b604290612f7c61354b565b906040519161190160f01b8352600283015260228201522090565b60041115610d5557565b9190823b612fc95790612fb391613661565b50612fbd81612f97565b15918261291757505090565b916020926064835f94519060405193630b135d3f60e11b855260048501526040602485015286820190604485015e01915afa630b135d3f60e11b5f5114601f3d11161690565b613024909291925f52600960205260405f2090565b916003830161304d61304683839060018060a01b03165f5260205260405f2090565b5460ff1690565b6130d05761307160ff939261307e929060018060a01b03165f5260205260405f2090565b805460ff19166001179055565b16806130955750613090828254612940565b905590565b600181036130ac5750600101613090828254612940565b6002036130c157600201613090828254612940565b6303599be160e11b5f5260045ffd5b6371c6af4960e01b5f526001600160a01b03821660045260245ffd5b805490816130fe5750505f905f905f90565b815f19810111612117575f525f199060205f2001015460019165ffffffffffff82169160301c90565b65ffffffffffff811161313f5765ffffffffffff1690565b6306dfcc6560e41b5f52603060045260245260445ffd5b908160011b918083046002149015171561211757565b908160041b918083046010149015171561211757565b9190825182118015613209575b6131e25761319c81612932565b8211806131eb575b6131af901515613156565b60280180602811612117576131c48284612c62565b036131e2576131d29261385d565b90916001600160a01b0390911690565b5050505f905f90565b50602081840101516001600160f01b03191661060f60f31b146131a4565b5081811161318f565b63ffffffff81116132265763ffffffff1690565b6306dfcc6560e41b5f52602060045260245260445ffd5b60ff81146132835760ff811690601f82116132745760405191613261604084610615565b6020808452838101919036833783525290565b632cd44ac360e21b5f5260045ffd5b506040516104e181613295815f611d33565b0382610615565b60ff81146132c05760ff811690601f82116132745760405191613261604084610615565b506040516104e181613295816001611d33565b81156132dd570490565b634e487b7160e01b5f52601260045260245ffd5b5f1982820990828102918280821091030390811561335257816064111561334b577f5c28f5c28f5c28f5c28f5c28f5c28f5c28f5c28f5c28f5c28f5c28f5c28f5c29936064910990828211900360fe1b910360021c170290565b6011612dd4565b505060649004919050565b908154600160401b8110156106365760018101808455811015611ddc5761064a925f5260205f2001906133ad65ffffffffffff825116839065ffffffffffff1665ffffffffffff19825416179055565b60200151815465ffffffffffff1660309190911b65ffffffffffff1916179055565b600a549192918015613486576128416133e791612c54565b9081546134036133fc8265ffffffffffff1690565b9160301c90565b9265ffffffffffff808416921691808311613477578692036134415761343d92509065ffffffffffff82549181199060301b169116179055565b9190565b505061343d9061346061345261063b565b65ffffffffffff9092168252565b6001600160d01b03851660208201525b600a61335d565b632520601d60e01b5f5260045ffd5b506134aa9061349661345261063b565b6001600160d01b0384166020820152613470565b5f9190565b805f52600960205260405f20905f52600460205265ffffffffffff60405f205460a01c16604051632394e7a360e21b815281600482015260208160248160018060a01b037f0000000000000000000000000000000000000000000000000000000000000000165afa8015610aee5761354692613535925f92611c925750611c8c906127d3565b916002600182015491015490612940565b101590565b307f00000000000000000000000000000000000000000000000000000000000000006001600160a01b03161480613638575b156135a6577f000000000000000000000000000000000000000000000000000000000000000090565b60405160208101907f8b73c3c69bb8fe3d512ecc4cf759cc79239f7b179b0ffacaa9a75d522b39400f82527f000000000000000000000000000000000000000000000000000000000000000060408201527f000000000000000000000000000000000000000000000000000000000000000060608201524660808201523060a082015260a0815261231d60c082610615565b507f0000000000000000000000000000000000000000000000000000000000000000461461357d565b81519190604183036136915761368a9250602082015190606060408401519301515f1a90613907565b9192909190565b50505f9160029190565b60018111156104e157806001600160801b8210156137bc575b61376261375861374e61374461373a61373061371f6137699760048a600160401b61376e9c10156137af575b6401000000008110156137a2575b62010000811015613795575b610100811015613788575b601081101561377b575b1015613773575b60030260011c90565b613729818b6132d3565b0160011c90565b613729818a6132d3565b61372981896132d3565b61372981886132d3565b61372981876132d3565b61372981866132d3565b80936132d3565b821190565b900390565b60011b613716565b60041c9160021b9161370f565b60081c9160041b91613705565b60101c9160081b916136fa565b60201c9160101b916136ee565b60401c9160201b916136e0565b505061376e61376961376261375861374e61374461373a61373061371f6137e38a60801c90565b9850600160401b97506136b49650505050505050565b91905b8382106138095750505090565b9091928083169080841860011c820180921161211757845f5265ffffffffffff8260205f2001541665ffffffffffff8416105f1461384b5750925b91906137fc565b93925061385790612932565b91613844565b92909261386984612932565b8311806138e9575b61388361388a91949293941515613156565b5f95612940565b915b81831061389c5750505060019190565b9092919360ff6138bd6138b86020888601015160ff60f81b1690565b613989565b1690600f82116138de57906138d360019261316c565b01940191929061388c565b505f94508493505050565b50602084820101516001600160f01b03191661060f60f31b14613871565b91907f7fffffffffffffffffffffffffffffff5d576e7357a4501ddfe92f46681b20a0841161397e579160209360809260ff5f9560405194855216868401526040830152606082015282805260015afa15610aee575f516001600160a01b0381161561397457905f905f90565b505f906001905f90565b5050505f9160039190565b60f81c602f8111806139f1575b156139a557602f190160ff1690565b60608111806139e7575b156139be576056190160ff1690565b60408111806139dd575b156139d7576036190160ff1690565b5060ff90565b50604781106139c8565b50606781106139af565b50603a811061399656fea264697066735822122004172448cd603c6f7133eb0a89639ed9ac53ad5cc72bcb1f3ba995d408235a5164736f6c634300082100330553476bf02ef2726e8ce5ced78d63e26e602e4a2257b1f559418e24b4633997","linkReferences":{}},"methodIdentifiers":{"BALLOT_TYPEHASH()":"deaaa7cc","CLOCK_MODE()":"4bf5d7e9","COUNTING_MODE()":"dd4e2ba5","EXTENDED_BALLOT_TYPEHASH()":"2fe3e261","cancel(address[],uint256[],bytes[],bytes32)":"452115d6","castVote(uint256,uint8)":"56781388","castVoteBySig(uint256,uint8,address,bytes)":"8ff262e3","castVoteWithReason(uint256,uint8,string)":"7b3c71d3","castVoteWithReasonAndParams(uint256,uint8,string,bytes)":"5f398a14","castVoteWithReasonAndParamsBySig(uint256,uint8,address,string,bytes,bytes)":"5b8d0e0d","clock()":"91ddadf4","eip712Domain()":"84b0196e","execute(address[],uint256[],bytes[],bytes32)":"2656227d","getProposalId(address[],uint256[],bytes[],bytes32)":"a8f8a668","getVotes(address,uint256)":"eb9019d4","getVotesWithParams(address,uint256,bytes)":"9a802a6d","hasVoted(uint256,address)":"43859632","hashProposal(address[],uint256[],bytes[],bytes32)":"c59057e4","name()":"06fdde03","nonces(address)":"7ecebe00","onERC1155BatchReceived(address,address,uint256[],uint256[],bytes)":"bc197c81","onERC1155Received(address,address,uint256,uint256,bytes)":"f23a6e61","onERC721Received(address,address,uint256,bytes)":"150b7a02","proposalDeadline(uint256)":"c01f9e37","proposalEta(uint256)":"ab58fb8e","proposalNeedsQueuing(uint256)":"a9a95294","proposalProposer(uint256)":"143489d0","proposalSnapshot(uint256)":"2d63f693","proposalThreshold()":"b58131b0","proposalVotes(uint256)":"544ffc9c","propose(address[],uint256[],bytes[],string)":"7d5e81e2","queue(address[],uint256[],bytes[],bytes32)":"160cbed7","quorum(uint256)":"f8ce560a","quorumDenominator()":"97c3d334","quorumNumerator()":"a7713a70","quorumNumerator(uint256)":"60c4247f","relay(address,uint256,bytes)":"c28bc2fa","setProposalThreshold(uint256)":"ece40cc1","setVotingDelay(uint48)":"79051887","setVotingPeriod(uint32)":"e540d01d","state(uint256)":"3e4f49e6","supportsInterface(bytes4)":"01ffc9a7","timelock()":"d33219b4","token()":"fc0c546a","updateQuorumNumerator(uint256)":"06f3f9e6","updateTimelock(address)":"a890c910","version()":"54fd4d50","votingDelay()":"3932abb1","votingPeriod()":"02a251a3"},"id":87}