{"abi":[{"type":"constructor","inputs":[{"name":"_name","type":"string","internalType":"string"},{"name":"_token","type":"address","internalType":"contract ITokenVotes"},{"name":"_votingDelay","type":"uint256","internalType":"uint256"},{"name":"_votingPeriod","type":"uint256","internalType":"uint256"},{"name":"_proposalThreshold","type":"uint256","internalType":"uint256"},{"name":"_quorumVotes","type":"uint256","internalType":"uint256"}],"stateMutability":"nonpayable"},{"type":"receive","stateMutability":"payable"},{"type":"function","name":"TOKEN","inputs":[],"outputs":[{"name":"","type":"address","internalType":"contract ITokenVotes"}],"stateMutability":"view"},{"type":"function","name":"cancel","inputs":[{"name":"targets","type":"address[]","internalType":"address[]"},{"name":"values","type":"uint256[]","internalType":"uint256[]"},{"name":"calldatas","type":"bytes[]","internalType":"bytes[]"},{"name":"descriptionHash","type":"bytes32","internalType":"bytes32"}],"outputs":[{"name":"proposalId","type":"uint256","internalType":"uint256"}],"stateMutability":"nonpayable"},{"type":"function","name":"castVote","inputs":[{"name":"proposalId","type":"uint256","internalType":"uint256"},{"name":"support","type":"uint8","internalType":"uint8"}],"outputs":[{"name":"weight","type":"uint256","internalType":"uint256"}],"stateMutability":"nonpayable"},{"type":"function","name":"castVoteWithReason","inputs":[{"name":"proposalId","type":"uint256","internalType":"uint256"},{"name":"support","type":"uint8","internalType":"uint8"},{"name":"reason","type":"string","internalType":"string"}],"outputs":[{"name":"weight","type":"uint256","internalType":"uint256"}],"stateMutability":"nonpayable"},{"type":"function","name":"execute","inputs":[{"name":"targets","type":"address[]","internalType":"address[]"},{"name":"values","type":"uint256[]","internalType":"uint256[]"},{"name":"calldatas","type":"bytes[]","internalType":"bytes[]"},{"name":"descriptionHash","type":"bytes32","internalType":"bytes32"}],"outputs":[{"name":"proposalId","type":"uint256","internalType":"uint256"}],"stateMutability":"payable"},{"type":"function","name":"hasVoted","inputs":[{"name":"","type":"uint256","internalType":"uint256"},{"name":"","type":"address","internalType":"address"}],"outputs":[{"name":"","type":"bool","internalType":"bool"}],"stateMutability":"view"},{"type":"function","name":"hashProposal","inputs":[{"name":"targets","type":"address[]","internalType":"address[]"},{"name":"values","type":"uint256[]","internalType":"uint256[]"},{"name":"calldatas","type":"bytes[]","internalType":"bytes[]"},{"name":"descriptionHash","type":"bytes32","internalType":"bytes32"}],"outputs":[{"name":"","type":"uint256","internalType":"uint256"}],"stateMutability":"pure"},{"type":"function","name":"name","inputs":[],"outputs":[{"name":"","type":"string","internalType":"string"}],"stateMutability":"view"},{"type":"function","name":"proposalProposer","inputs":[{"name":"proposalId","type":"uint256","internalType":"uint256"}],"outputs":[{"name":"","type":"address","internalType":"address"}],"stateMutability":"view"},{"type":"function","name":"proposalSnapshot","inputs":[{"name":"proposalId","type":"uint256","internalType":"uint256"}],"outputs":[{"name":"voteStart","type":"uint256","internalType":"uint256"},{"name":"voteEnd","type":"uint256","internalType":"uint256"}],"stateMutability":"view"},{"type":"function","name":"proposalThreshold","inputs":[],"outputs":[{"name":"","type":"uint256","internalType":"uint256"}],"stateMutability":"view"},{"type":"function","name":"proposalVotes","inputs":[{"name":"proposalId","type":"uint256","internalType":"uint256"}],"outputs":[{"name":"againstVotes","type":"uint256","internalType":"uint256"},{"name":"forVotes","type":"uint256","internalType":"uint256"},{"name":"abstainVotes","type":"uint256","internalType":"uint256"}],"stateMutability":"view"},{"type":"function","name":"propose","inputs":[{"name":"targets","type":"address[]","internalType":"address[]"},{"name":"values","type":"uint256[]","internalType":"uint256[]"},{"name":"calldatas","type":"bytes[]","internalType":"bytes[]"},{"name":"description","type":"string","internalType":"string"}],"outputs":[{"name":"proposalId","type":"uint256","internalType":"uint256"}],"stateMutability":"nonpayable"},{"type":"function","name":"quorumVotes","inputs":[],"outputs":[{"name":"","type":"uint256","internalType":"uint256"}],"stateMutability":"view"},{"type":"function","name":"state","inputs":[{"name":"proposalId","type":"uint256","internalType":"uint256"}],"outputs":[{"name":"","type":"uint8","internalType":"enum GovernorVulnerable.ProposalState"}],"stateMutability":"view"},{"type":"function","name":"votingDelay","inputs":[],"outputs":[{"name":"","type":"uint256","internalType":"uint256"}],"stateMutability":"view"},{"type":"function","name":"votingPeriod","inputs":[],"outputs":[{"name":"","type":"uint256","internalType":"uint256"}],"stateMutability":"view"},{"type":"event","name":"ProposalCanceled","inputs":[{"name":"proposalId","type":"uint256","indexed":true,"internalType":"uint256"}],"anonymous":false},{"type":"event","name":"ProposalCreated","inputs":[{"name":"proposalId","type":"uint256","indexed":true,"internalType":"uint256"},{"name":"proposer","type":"address","indexed":true,"internalType":"address"},{"name":"targets","type":"address[]","indexed":false,"internalType":"address[]"},{"name":"values","type":"uint256[]","indexed":false,"internalType":"uint256[]"},{"name":"calldatas","type":"bytes[]","indexed":false,"internalType":"bytes[]"},{"name":"description","type":"string","indexed":false,"internalType":"string"},{"name":"voteStart","type":"uint256","indexed":false,"internalType":"uint256"},{"name":"voteEnd","type":"uint256","indexed":false,"internalType":"uint256"}],"anonymous":false},{"type":"event","name":"ProposalExecuted","inputs":[{"name":"proposalId","type":"uint256","indexed":true,"internalType":"uint256"}],"anonymous":false},{"type":"event","name":"VoteCast","inputs":[{"name":"voter","type":"address","indexed":true,"internalType":"address"},{"name":"proposalId","type":"uint256","indexed":true,"internalType":"uint256"},{"name":"support","type":"uint8","indexed":false,"internalType":"uint8"},{"name":"weight","type":"uint256","indexed":false,"internalType":"uint256"},{"name":"reason","type":"string","indexed":false,"internalType":"string"}],"anonymous":false}],"bytecode":{"object":"0x60a06040523461025a57611941803803806100198161025e565b92833981019060c08183031261025a5780516001600160401b03811161025a57810182601f8201121561025a578051906001600160401b0382116102465761006a601f8301601f191660200161025e565b938285526020838301011161025a57815f9260208093018387015e8401015260208101516001600160a01b038116810361025a5760408201516060830151608084015160a090940151855190959193916001600160401b038211610246575f5490600182811c9216801561023c575b60208310146102285781601f8493116101b3575b50602090601f8311600114610150575f92610145575b50508160011b915f199060031b1c1916175f555b6080526001556002556003556004556040516116bd90816102848239608051818181610aa201526114e00152f35b015190505f80610103565b5f8080528281209350601f198516905b81811061019b5750908460019594939210610183575b505050811b015f55610117565b01515f1960f88460031b161c191690555f8080610176565b92936020600181928786015181550195019301610160565b828111156100ed575f8052909150601f830160051c7f290decd9548b62a8d60345a988386fc84ba6bc95484008f6362f93160ef3e56360208510610220575b849392601f0160051c82900391015f5b8281106102105750506100ed565b5f81830155859450600101610202565b5f91506101f2565b634e487b7160e01b5f52602260045260245ffd5b91607f16916100d9565b634e487b7160e01b5f52604160045260245ffd5b5f80fd5b6040519190601f01601f191682016001600160401b038111838210176102465760405256fe6080604052600436101561001a575b3615610018575f80fd5b005b5f3560e01c806302a251a31461012957806306fdde0314610124578063143489d01461011f57806324bc1a641461011a5780632656227d146101155780632d63f693146101105780633932abb11461010b5780633e4f49e6146101065780634385963214610101578063452115d6146100fc578063544ffc9c146100f757806356781388146100f25780637b3c71d3146100ed5780637d5e81e2146100e857806382bfefc8146100e3578063b58131b0146100de5763c59057e40361000e57610aee565b610ad1565b610a8d565b6109df565b610964565b610923565b6108d2565b61079f565b610747565b610718565b6106dd565b6106a7565b61055d565b6102fd565b6102cb565b6101f4565b34610146575f366003190112610146576020600254604051908152f35b5f80fd5b90600182811c92168015610178575b602083101461016457565b634e487b7160e01b5f52602260045260245ffd5b91607f1691610159565b634e487b7160e01b5f52604160045260245ffd5b90601f801991011681019081106001600160401b038211176101b757604052565b610182565b805180835260209291819084018484015e5f828201840152601f01601f1916010190565b9060206101f19281815201906101bc565b90565b34610146575f366003190112610146576040515f5f546102138161014a565b80845290600181169081156102a7575060011461024b575b6102478361023b81850382610196565b604051918291826101e0565b0390f35b5f8080527f290decd9548b62a8d60345a988386fc84ba6bc95484008f6362f93160ef3e563939250905b80821061028d5750909150810160200161023b61022b565b919260018160209254838588010152019101909291610275565b60ff191660208086019190915291151560051b8401909101915061023b905061022b565b34610146576020366003190112610146576004355f526005602052602060018060a01b0360405f205416604051908152f35b34610146575f366003190112610146576020600454604051908152f35b6040519061032a61012083610196565b565b6001600160401b0381116101b75760051b60200190565b9080601f830112156101465781359061035b8261032c565b926103696040519485610196565b82845260208085019360051b82010191821161014657602001915b8183106103915750505090565b82356001600160a01b038116810361014657815260209283019201610384565b9080601f830112156101465781356103c88161032c565b926103d66040519485610196565b81845260208085019260051b82010192831161014657602001905b8282106103fe5750505090565b81358152602091820191016103f1565b6001600160401b0381116101b757601f01601f191660200190565b9291926104358261040e565b916104436040519384610196565b829481845281830111610146578281602093845f960137010152565b81601f82011215610146578035906104768261032c565b926104846040519485610196565b82845260208085019360051b830101918183116101465760208101935b8385106104b057505050505090565b84356001600160401b03811161014657820183603f82011215610146576020916104e38583604086809601359101610429565b8152019401936104a1565b6080600319820112610146576004356001600160401b038111610146578161051891600401610343565b916024356001600160401b0381116101465782610537916004016103b1565b91604435906001600160401b038211610146576105569160040161045f565b9060643590565b610574610569366104ee565b818385969396611620565b91600261058084610bb0565b610589816106fa565b0361064f575f5b81518110156105f057806105ea5f806105bb6105ae60019688610b01565b516001600160a01b031690565b6105c58589610b01565b51906105d1868c610b01565b5191602083519301915af16105e4610b29565b90611304565b01610590565b6102478461061b600361060b835f52600560205260405f2090565b01805461ff001916610100179055565b604051918183927f712ae1383f79ac853f8d882153778e0260ef8f03b504e2866e0593e04d2b291f5f80a282526020820190565b60405162461bcd60e51b815260206004820152602a60248201527f476f7665726e6f7256756c6e657261626c653a2070726f706f73616c206e6f74604482015269081cdd58d8d95959195960b21b6064820152608490fd5b34610146576020366003190112610146576004355f5260056020526040805f206002600182015491015482519182526020820152f35b34610146575f366003190112610146576020600154604051908152f35b6006111561070457565b634e487b7160e01b5f52602160045260245ffd5b3461014657602036600319011261014657610734600435610bb0565b6040516006821015610704576020918152f35b34610146576040366003190112610146576004356024356001600160a01b0381168103610146575f9182526007602090815260408084206001600160a01b039093168452918152912060ff9054166040519015158152f35b34610146576107b96107b0366104ee565b92919091611620565b805f52600560205260405f209060056107d182610bb0565b6107da816106fa565b1415806108b6575b1561085b57610827600383610819610812610806610247975460018060a01b031690565b6001600160a01b031690565b3314610c67565b01805460ff19166001179055565b604051918183927f789cf55be980739dad1d0699b93b58e806b51c9d96619bfa8fe0a28abaa7b30c5f80a282526020820190565b60405162461bcd60e51b815260206004820152602d60248201527f476f7665726e6f7256756c6e657261626c653a2070726f706f73616c20616c7260448201526c1958591e481d195c9b5a5b985b609a1b6064820152608490fd5b5060046108c282610bb0565b6108cb816106fa565b14156107e2565b34610146576020366003190112610146576004355f526006602052606060405f20600181015490600281549101549060405192835260208301526040820152f35b6024359060ff8216820361014657565b3461014657604036600319011261014657602061095c600435610944610913565b604051916109528584610196565b5f83523390611483565b604051908152f35b3461014657606036600319011261014657600435610980610913565b90604435906001600160401b0382116101465736602383011215610146578160040135906001600160401b038211610146573660248385010111610146576102479360246109cf940191610cb2565b6040519081529081906020820190565b34610146576080366003190112610146576004356001600160401b03811161014657610a0f903690600401610343565b6024356001600160401b03811161014657610a2e9036906004016103b1565b906044356001600160401b03811161014657610a4e90369060040161045f565b90606435916001600160401b03831161014657366023840112156101465761024793610a876109cf943690602481600401359101610429565b9261121a565b34610146575f366003190112610146576040517f00000000000000000000000000000000000000000000000000000000000000006001600160a01b03168152602090f35b34610146575f366003190112610146576020600354604051908152f35b3461014657602061095c6107b0366104ee565b8051821015610b155760209160051b010190565b634e487b7160e01b5f52603260045260245ffd5b3d15610b53573d90610b3a8261040e565b91610b486040519384610196565b82523d5f602084013e565b606090565b15610b5f57565b60405162461bcd60e51b8152602060048201526024808201527f476f7665726e6f7256756c6e657261626c653a20756e6b6e6f776e2070726f706044820152631bdcd85b60e21b6064820152608490fd5b610bc2815f52600560205260405f2090565b6001810154610bd2811515610b58565b600382015460ff8116610c5e5760081c60ff16610c5657431115610c505760020154431115610c4a57610c0d905f52600660205260405f2090565b805490610c286002600183015492015460045490838561137a565b9182610c40575b505015610c3b57600290565b600390565b1190505f80610c2f565b50600190565b50505f90565b505050600590565b50505050600490565b15610c6e57565b606460405162461bcd60e51b815260206004820152602060248201527f476f7665726e6f7256756c6e657261626c653a206e6f742070726f706f7365726044820152fd5b91610cc2906101f1943691610429565b913390611483565b15610cd157565b60405162461bcd60e51b815260206004820152602b60248201527f476f7665726e6f7256756c6e657261626c653a2070726f706f73616c20616c7260448201526a656164792065786973747360a81b6064820152608490fd5b91908201809211610d3757565b634e487b7160e01b5f52601160045260245ffd5b5f5b828110610d5957505050565b5f82820155600101610d4d565b91818110610d7357505050565b61032a925f528060205f2001910390610d4b565b8151916001600160401b0383116101b757600160401b83116101b757602090610db584845481865585610d66565b01905f5260205f205f5b838110610dcc5750505050565b82516001600160a01b031681830155602090920191600101610dbf565b8151916001600160401b0383116101b757600160401b83116101b757602090610e1784845481865585610d66565b01905f5260205f205f5b838110610e2e5750505050565b600190602084519401938184015501610e21565b91601f8211610e5057505050565b808211610e5c57505050565b61032a925f5260205f20916020601f830160051c9210610e87575b601f82910160051c039101610d4b565b5f9150610e77565b91909182516001600160401b0381116101b757610eb681610eb0845461014a565b84610e42565b6020601f8211600114610ef5578190610ee69394955f92610eea575b50508160011b915f199060031b1c19161790565b9055565b015190505f80610ed2565b601f19821690610f08845f5260205f2090565b915f5b818110610f4257509583600195969710610f2a575b505050811b019055565b01515f1960f88460031b161c191690555f8080610f20565b9192602060018192868b015181550194019201610f0b565b815191600160401b83116101b7578154838355808410610fb4575b506020610f879101915f5260205f2090565b5f915b838310610f975750505050565b6001602082610fa883945186610e8f565b01920192019190610f8a565b825f52838060205f20019103905f5b828110610fd1575050610f75565b806001918301610fe1815461014a565b9081610ff0575b505001610fc3565b601f82118414611006575f9055505b5f80610fe8565b61102d61103d928561101b845f5260205f2090565b601f90920160051c5f19019101610d4b565b5f81815260208120918190559055565b610fff565b815181546001600160a01b0319166001600160a01b03909116178155906007906101009060208101516001850155604081015160028501556110c0600385016110a36110916060850151151590565b829060ff801983541691151516179055565b60808301511515815461ff00191690151560081b61ff0016179055565b6110d160a082015160048601610d87565b6110e260c082015160058601610de9565b6110f360e082015160068601610f5a565b0151910155565b90602080835192838152019201905f5b8181106111175750505090565b82516001600160a01b031684526020938401939092019160010161110a565b90602080835192838152019201905f5b8181106111535750505090565b8251845260209384019390920191600101611146565b9080602083519182815201916020808360051b8301019401925f915b83831061119457505050505090565b90919293946020806111b2600193601f1986820301875289516101bc565b97019301930191939290611185565b92611202906111f4611210946111e660a098959b9a999b60c0895260c08901906110fa565b908782036020890152611136565b908582036040870152611169565b9083820360608501526101bc565b9460808201520152565b917f5445803d8e6c2956c2a50e98a2316ea8daa9407b8a47f5e57763f63f1b01a72d909493919461124f836020815191012090565b956112ff61125f88848489611620565b9788956112816001611279895f52600560205260405f2090565b015415610cca565b61128d60015443610d2a565b906112f161129d60025484610d2a565b936112a661031a565b338152908460208301528560408301525f60608301525f60808301528b60a08301528760c08301528860e08301526101008201526112ec8a5f52600560205260405f2090565b611042565b604051958695339a876111c1565b0390a3565b1561130c5750565b80511561131b57805190602001fd5b60405162461bcd60e51b815260206004820152603160248201527f476f7665726e6f7256756c6e657261626c653a2063616c6c20726576657274656044820152706420776974686f7574206d65737361676560781b6064820152608490fd5b61138d929161138891610d2a565b610d2a565b101590565b1561139957565b60405162461bcd60e51b815260206004820152602560248201527f476f7665726e6f7256756c6e657261626c653a20766f74696e67206e6f742061604482015264637469766560d81b6064820152608490fd5b156113f357565b60405162461bcd60e51b815260206004820152602960248201527f476f7665726e6f7256756c6e657261626c653a20696e76616c696420737570706044820152686f72742076616c756560b81b6064820152608490fd5b90816020910312610146575190565b6040513d5f823e3d90fd5b6101f1939260ff606093168252602082015281604082015201906101bc565b91909392936114a5600161149685610bb0565b61149f816106fa565b14611392565b60ff8216946114b760028711156113ec565b6040516309ab24eb60e41b81526001600160a01b038316600482015291602083806024810103817f00000000000000000000000000000000000000000000000000000000000000006001600160a01b03165afa91821561161b577fb8e138887d0aa13bab447e82de9d5c1777041ecd21ca36ba824ff1e6c07ddda4935f936115e6575b506112ff90839861157c61156f8561155a8b5f52600760205260405f2090565b9060018060a01b03165f5260205260405f2090565b805460ff19166001179055565b61158e885f52600660205260405f2090565b90806115bf57506001016115a3858254610d2a565b90555b6040516001600160a01b03909316959293849384611464565b6001036115d8576115d1858254610d2a565b90556115a6565b6002016115d1858254610d2a565b6112ff91935061160d9060203d602011611614575b6116058183610196565b81019061144a565b929061153a565b503d6115fb565b611459565b92906116819161166d61165b94604051958694611649602087019960808b5260a08801906110fa565b868103601f1901604088015290611136565b848103601f1901606086015290611169565b90608083015203601f198101835282610196565b5190209056fea2646970667358221220d906e6082761e0ea6eb6c798cc6c5bdb54bdaddd0690b31e01125acdf8d7134b64736f6c63430008210033","linkReferences":{}},"methodIdentifiers":{"TOKEN()":"82bfefc8","cancel(address[],uint256[],bytes[],bytes32)":"452115d6","castVote(uint256,uint8)":"56781388","castVoteWithReason(uint256,uint8,string)":"7b3c71d3","execute(address[],uint256[],bytes[],bytes32)":"2656227d","hasVoted(uint256,address)":"43859632","hashProposal(address[],uint256[],bytes[],bytes32)":"c59057e4","name()":"06fdde03","proposalProposer(uint256)":"143489d0","proposalSnapshot(uint256)":"2d63f693","proposalThreshold()":"b58131b0","proposalVotes(uint256)":"544ffc9c","propose(address[],uint256[],bytes[],string)":"7d5e81e2","quorumVotes()":"24bc1a64","state(uint256)":"3e4f49e6","votingDelay()":"3932abb1","votingPeriod()":"02a251a3"},"id":88}