{"abi":[{"type":"constructor","inputs":[{"name":"_name","type":"string","internalType":"string"},{"name":"_token","type":"address","internalType":"contract ITokenVotes"},{"name":"_timelock","type":"address","internalType":"contract TimelockController"},{"name":"_votingDelay","type":"uint256","internalType":"uint256"},{"name":"_votingPeriod","type":"uint256","internalType":"uint256"},{"name":"_proposalThresholdBps","type":"uint256","internalType":"uint256"},{"name":"_quorumBps","type":"uint256","internalType":"uint256"}],"stateMutability":"nonpayable"},{"type":"receive","stateMutability":"payable"},{"type":"function","name":"GRACE_PERIOD","inputs":[],"outputs":[{"name":"","type":"uint256","internalType":"uint256"}],"stateMutability":"view"},{"type":"function","name":"MAX_QUORUM_BPS","inputs":[],"outputs":[{"name":"","type":"uint256","internalType":"uint256"}],"stateMutability":"view"},{"type":"function","name":"MIN_QUORUM_BPS","inputs":[],"outputs":[{"name":"","type":"uint256","internalType":"uint256"}],"stateMutability":"view"},{"type":"function","name":"TIMELOCK","inputs":[],"outputs":[{"name":"","type":"address","internalType":"contract TimelockController"}],"stateMutability":"view"},{"type":"function","name":"TOKEN","inputs":[],"outputs":[{"name":"","type":"address","internalType":"contract ITokenVotes"}],"stateMutability":"view"},{"type":"function","name":"cancel","inputs":[{"name":"proposalId","type":"uint256","internalType":"uint256"}],"outputs":[],"stateMutability":"nonpayable"},{"type":"function","name":"castVote","inputs":[{"name":"proposalId","type":"uint256","internalType":"uint256"},{"name":"support","type":"uint8","internalType":"uint8"}],"outputs":[{"name":"weight","type":"uint256","internalType":"uint256"}],"stateMutability":"nonpayable"},{"type":"function","name":"castVoteWithReason","inputs":[{"name":"proposalId","type":"uint256","internalType":"uint256"},{"name":"support","type":"uint8","internalType":"uint8"},{"name":"reason","type":"string","internalType":"string"}],"outputs":[{"name":"weight","type":"uint256","internalType":"uint256"}],"stateMutability":"nonpayable"},{"type":"function","name":"execute","inputs":[{"name":"proposalId","type":"uint256","internalType":"uint256"}],"outputs":[],"stateMutability":"payable"},{"type":"function","name":"getProposal","inputs":[{"name":"proposalId","type":"uint256","internalType":"uint256"}],"outputs":[{"name":"proposer","type":"address","internalType":"address"},{"name":"eta","type":"uint256","internalType":"uint256"},{"name":"targets","type":"address[]","internalType":"address[]"},{"name":"values","type":"uint256[]","internalType":"uint256[]"},{"name":"calldatas","type":"bytes[]","internalType":"bytes[]"},{"name":"startBlock","type":"uint256","internalType":"uint256"},{"name":"endBlock","type":"uint256","internalType":"uint256"},{"name":"forVotes","type":"uint256","internalType":"uint256"},{"name":"againstVotes","type":"uint256","internalType":"uint256"},{"name":"proposalState","type":"uint8","internalType":"enum GovernorWithDefenses.ProposalState"}],"stateMutability":"view"},{"type":"function","name":"getReceipt","inputs":[{"name":"proposalId","type":"uint256","internalType":"uint256"},{"name":"voter","type":"address","internalType":"address"}],"outputs":[{"name":"hasVotedOut","type":"bool","internalType":"bool"},{"name":"support","type":"uint8","internalType":"uint8"},{"name":"votes","type":"uint256","internalType":"uint256"}],"stateMutability":"view"},{"type":"function","name":"hasVoted","inputs":[{"name":"","type":"uint256","internalType":"uint256"},{"name":"","type":"address","internalType":"address"}],"outputs":[{"name":"","type":"bool","internalType":"bool"}],"stateMutability":"view"},{"type":"function","name":"hashProposal","inputs":[{"name":"targets","type":"address[]","internalType":"address[]"},{"name":"values","type":"uint256[]","internalType":"uint256[]"},{"name":"calldatas","type":"bytes[]","internalType":"bytes[]"},{"name":"descriptionHash","type":"bytes32","internalType":"bytes32"}],"outputs":[{"name":"","type":"uint256","internalType":"uint256"}],"stateMutability":"pure"},{"type":"function","name":"name","inputs":[],"outputs":[{"name":"","type":"string","internalType":"string"}],"stateMutability":"view"},{"type":"function","name":"proposalCount","inputs":[],"outputs":[{"name":"","type":"uint256","internalType":"uint256"}],"stateMutability":"view"},{"type":"function","name":"proposalDescriptionHash","inputs":[{"name":"proposalId","type":"uint256","internalType":"uint256"}],"outputs":[{"name":"","type":"bytes32","internalType":"bytes32"}],"stateMutability":"view"},{"type":"function","name":"proposalProposer","inputs":[{"name":"proposalId","type":"uint256","internalType":"uint256"}],"outputs":[{"name":"","type":"address","internalType":"address"}],"stateMutability":"view"},{"type":"function","name":"proposalThreshold","inputs":[],"outputs":[{"name":"","type":"uint256","internalType":"uint256"}],"stateMutability":"view"},{"type":"function","name":"proposalThresholdBps","inputs":[],"outputs":[{"name":"","type":"uint256","internalType":"uint256"}],"stateMutability":"view"},{"type":"function","name":"proposalVotes","inputs":[{"name":"proposalId","type":"uint256","internalType":"uint256"}],"outputs":[{"name":"againstVotes","type":"uint256","internalType":"uint256"},{"name":"forVotes","type":"uint256","internalType":"uint256"},{"name":"abstainVotes","type":"uint256","internalType":"uint256"}],"stateMutability":"view"},{"type":"function","name":"proposalWindow","inputs":[{"name":"proposalId","type":"uint256","internalType":"uint256"}],"outputs":[{"name":"snapshotBlock","type":"uint256","internalType":"uint256"},{"name":"voteStart","type":"uint256","internalType":"uint256"},{"name":"voteEnd","type":"uint256","internalType":"uint256"}],"stateMutability":"view"},{"type":"function","name":"propose","inputs":[{"name":"targets","type":"address[]","internalType":"address[]"},{"name":"values","type":"uint256[]","internalType":"uint256[]"},{"name":"calldatas","type":"bytes[]","internalType":"bytes[]"},{"name":"description","type":"string","internalType":"string"}],"outputs":[{"name":"proposalId","type":"uint256","internalType":"uint256"}],"stateMutability":"nonpayable"},{"type":"function","name":"queue","inputs":[{"name":"proposalId","type":"uint256","internalType":"uint256"}],"outputs":[],"stateMutability":"nonpayable"},{"type":"function","name":"quorumBps","inputs":[],"outputs":[{"name":"","type":"uint256","internalType":"uint256"}],"stateMutability":"view"},{"type":"function","name":"quorumVotes","inputs":[],"outputs":[{"name":"","type":"uint256","internalType":"uint256"}],"stateMutability":"view"},{"type":"function","name":"state","inputs":[{"name":"proposalId","type":"uint256","internalType":"uint256"}],"outputs":[{"name":"","type":"uint8","internalType":"enum GovernorWithDefenses.ProposalState"}],"stateMutability":"view"},{"type":"function","name":"votingDelay","inputs":[],"outputs":[{"name":"","type":"uint256","internalType":"uint256"}],"stateMutability":"view"},{"type":"function","name":"votingPeriod","inputs":[],"outputs":[{"name":"","type":"uint256","internalType":"uint256"}],"stateMutability":"view"},{"type":"event","name":"ProposalCanceled","inputs":[{"name":"proposalId","type":"uint256","indexed":true,"internalType":"uint256"}],"anonymous":false},{"type":"event","name":"ProposalCreated","inputs":[{"name":"proposalId","type":"uint256","indexed":true,"internalType":"uint256"},{"name":"proposer","type":"address","indexed":true,"internalType":"address"},{"name":"targets","type":"address[]","indexed":false,"internalType":"address[]"},{"name":"values","type":"uint256[]","indexed":false,"internalType":"uint256[]"},{"name":"calldatas","type":"bytes[]","indexed":false,"internalType":"bytes[]"},{"name":"description","type":"string","indexed":false,"internalType":"string"},{"name":"snapshotBlock","type":"uint256","indexed":false,"internalType":"uint256"},{"name":"voteStart","type":"uint256","indexed":false,"internalType":"uint256"},{"name":"voteEnd","type":"uint256","indexed":false,"internalType":"uint256"}],"anonymous":false},{"type":"event","name":"ProposalExecuted","inputs":[{"name":"proposalId","type":"uint256","indexed":true,"internalType":"uint256"}],"anonymous":false},{"type":"event","name":"ProposalQueued","inputs":[{"name":"proposalId","type":"uint256","indexed":true,"internalType":"uint256"},{"name":"eta","type":"uint256","indexed":false,"internalType":"uint256"}],"anonymous":false},{"type":"event","name":"VoteCast","inputs":[{"name":"voter","type":"address","indexed":true,"internalType":"address"},{"name":"proposalId","type":"uint256","indexed":true,"internalType":"uint256"},{"name":"support","type":"uint8","indexed":false,"internalType":"uint8"},{"name":"weight","type":"uint256","indexed":false,"internalType":"uint256"},{"name":"reason","type":"string","indexed":false,"internalType":"string"}],"anonymous":false}],"bytecode":{"object":"0x60c0604052346103f5576129fa80380380610019816103f9565b92833981019060e0818303126103f55780516001600160401b0381116103f557810182601f820112156103f5578051906001600160401b0382116102ac5761006a601f8301601f19166020016103f9565b93828552602083830101116103f557815f9260208093018387015e8401015260208101516001600160a01b038116928382036103f55760408301516001600160a01b038116928382036103f55760608501519260808601519460c060a088015197015197156103b157156103605784156103115761271087116102c0578051906001600160401b0382116102ac575f5490600182811c921680156102a2575b602083101461028e5781601f849311610219575b50602090601f83116001146101b6575f926101ab575b50508160011b915f199060031b1c1916175f555b60805260a0526001556002556003556004556040516125db908161041f82396080518181816105c401528181610b3a01528181610c4b01528181611bba01528181611e6a015261216b015260a051818181610195015281816104ce01526113d20152f35b015190505f80610133565b5f8080528281209350601f198516905b81811061020157509084600195949392106101e9575b505050811b015f55610147565b01515f1960f88460031b161c191690555f80806101dc565b929360206001819287860151815501950193016101c6565b8281111561011d575f8052909150601f830160051c7f290decd9548b62a8d60345a988386fc84ba6bc95484008f6362f93160ef3e56360208510610286575b849392601f0160051c82900391015f5b82811061027657505061011d565b5f81830155859450600101610268565b5f9150610258565b634e487b7160e01b5f52602260045260245ffd5b91607f1691610109565b634e487b7160e01b5f52604160045260245ffd5b60405162461bcd60e51b815260206004820152602360248201527f476f7665726e6f7257697468446566656e7365733a2071756f72756d203e203160448201526230302560e81b6064820152608490fd5b60405162461bcd60e51b815260206004820152602160248201527f476f7665726e6f7257697468446566656e7365733a207a65726f20706572696f6044820152601960fa1b6064820152608490fd5b60405162461bcd60e51b815260206004820152602360248201527f476f7665726e6f7257697468446566656e7365733a207a65726f2074696d656c6044820152626f636b60e81b6064820152608490fd5b606460405162461bcd60e51b815260206004820152602060248201527f476f7665726e6f7257697468446566656e7365733a207a65726f20746f6b656e6044820152fd5b5f80fd5b6040519190601f01601f191682016001600160401b038111838210176102ac5760405256fe608080604052600436101561001c575b50361561001a575f80fd5b005b5f905f3560e01c90816302a251a3146118275750806306fdde031461174c5780630ecff9bc146116fe578063143489d0146116cc57806324bc1a64146116b25780633932abb1146116955780633e4f49e61461166857806340e58ee51461153257806343859632146114e957806348b1aeb4146114cc578063544ffc9c1461148157806356781388146114495780636198c3d01461142e578063785df409146114015780637aadef8b146113bd5780637b3c71d31461134a5780637d5e81e214610b6957806382bfefc814610b25578063b58131b014610b0b578063c1a287e214610aee578063c59057e414610a66578063c7f758a8146108c4578063c94b7693146108a8578063cd2ddd0c1461088b578063da35c6641461086e578063ddf0b0091461046f578063e23a9a521461040f5763fe0d94c10361000f57602036600319011261040c5760043561017081611ca8565b60088110156103f8576004036103a15780825260056020526040822060018060a01b037f000000000000000000000000000000000000000000000000000000000000000016600682016007830191600884019060405163b1c5f42760e01b8152602081806101e48a878a8a60048601612055565b0381855afa90811561036457889161036f575b5060405190629de4f960e51b82526004820152602081602481855afa908115610364578891610325575b50156102c75760058795016201000062ff000019825416179055803b156102c357859385936102666040519687958694859463e38335e560e01b865260048601612055565b039134905af180156102b85761029f575b50807f712ae1383f79ac853f8d882153778e0260ef8f03b504e2866e0593e04d2b291f91a280f35b816102a991611879565b6102b457815f610277565b5080fd5b6040513d84823e3d90fd5b8480fd5b60405162461bcd60e51b815260206004820152603060248201527f476f7665726e6f7257697468446566656e7365733a2074696d656c6f636b206460448201526f195b185e481b9bdd08195b185c1cd95960821b6064820152608490fd5b90506020813d60201161035c575b8161034060209383611879565b8101031261035857518015158103610358575f610221565b8780fd5b3d9150610333565b6040513d8a823e3d90fd5b90506020813d602011610399575b8161038a60209383611879565b8101031261035857515f6101f7565b3d915061037d565b60405162461bcd60e51b815260206004820152602960248201527f476f7665726e6f7257697468446566656e7365733a2070726f706f73616c206e6044820152681bdd081c5d595d595960ba1b6064820152608490fd5b634e487b7160e01b83526021600452602483fd5b80fd5b503461040c57604036600319011261040c57604061042b6118cb565b9160043581526007602052209060018060a01b03165f52602052606060405f206001815491015460ff604051928181161515845260081c1660208301526040820152f35b503461078d57602036600319011261078d5760043561048d81611ca8565b600881101561085a57600203610800575f81815260056020818152604092839020918201805461ff001916610100179055915163793d064960e11b815290917f00000000000000000000000000000000000000000000000000000000000000006001600160a01b03169082600481845afa9182156107c1575f926107cc575b50803b1561078d575f60405180926308f2a0bb60e41b825260c0600483015281838161056e61055961054460c4840160068d01611f39565b83810360031901602485015260078c01611b6e565b82810360031901604484015260088b01611ffa565b8260648301528a60848301528860a483015203925af180156107c1576107a4575b509061059d60049242611dea565b910181905581835260066020908152604080852090516318160ddd60e01b815291826004817f00000000000000000000000000000000000000000000000000000000000000006001600160a01b03165afa91821561079957859261075f575b50906106208261061b6106259454916002600182015491015492611dea565b611dea565b612580565b600a805410156106ac57600a54600160401b811015610698579161068e6020926106768560017f9a2e42fd6722813d69113e7d0079d3d940171428df7373df9c7f7617cfda28929701600a55612462565b90919082549060031b91821b915f19901b1916179055565b604051908152a280f35b634e487b7160e01b85526041600452602485fd5b9091835b6001810180821161074b57600a548110156106ef57906106e56106d56106ea93612462565b90549060031b1c61067683612462565b611ddc565b6106b0565b50509190600a545f19810190811161073757916107326020926106767f9a2e42fd6722813d69113e7d0079d3d940171428df7373df9c7f7617cfda289295612462565b61068e565b634e487b7160e01b85526011600452602485fd5b634e487b7160e01b86526011600452602486fd5b91506020823d602011610791575b8161077a60209383611879565b8101031261078d579051906106206105fc565b5f80fd5b3d915061076d565b6040513d87823e3d90fd5b6004929194505f6107b491611879565b61059d5f9491925061058f565b6040513d5f823e3d90fd5b9091506020813d6020116107f8575b816107e860209383611879565b8101031261078d5751905f61050c565b3d91506107db565b60405162461bcd60e51b815260206004820152602c60248201527f476f7665726e6f7257697468446566656e7365733a2070726f706f73616c206e60448201526b1bdd081cdd58d8d95959195960a21b6064820152608490fd5b634e487b7160e01b5f52602160045260245ffd5b3461078d575f36600319011261078d576020600954604051908152f35b3461078d575f36600319011261078d576020600454604051908152f35b3461078d575f36600319011261078d5760206040516103e88152f35b3461078d57602036600319011261078d57600435805f52600560205260405f2060028101548015610a2e57825f52600660205261090460405f2093611ca8565b60018060a01b0383541692600481015494604051916109318361092a8160068501611f39565b0384611879565b6040519061094d826109468160078501611b6e565b0383611879565b6008810190815461095d816118f1565b9261096b6040519485611879565b81845260208401905f5260205f205f915b838310610a02575050505060030154918354936001015494604051998a998a5260208a015260408901610140905261014089016109b891611aa7565b88810360608a01526109c991611ae3565b87810360808901526109da91611b16565b9460a087015260c086015260e085015261010084015261012083016109fe916118be565b0390f35b600160208192604051610a2081610a198189611f79565b0382611879565b81520192019201919061097c565b60405162461bcd60e51b815260206004820152601060248201526f1d5b9adb9bdddb881c1c9bdc1bdcd85b60821b6044820152606490fd5b3461078d57608036600319011261078d576004356001600160401b03811161078d57610a96903690600401611908565b6024356001600160401b03811161078d57610ab5903690600401611976565b90604435906001600160401b03821161078d57602092610adc610ae6933690600401611a18565b90606435926123fb565b604051908152f35b3461078d575f36600319011261078d576020604051621275008152f35b3461078d575f36600319011261078d576020610ae6611e48565b3461078d575f36600319011261078d576040517f00000000000000000000000000000000000000000000000000000000000000006001600160a01b03168152602090f35b3461078d57608036600319011261078d576004356001600160401b03811161078d57610b99903690600401611908565b6024356001600160401b03811161078d57610bb8903690600401611976565b6044356001600160401b03811161078d57610bd7903690600401611a18565b906064356001600160401b03811161078d573660238201121561078d57610c089036906024816004013591016119d3565b431561133f575f19430143811161132b576020610c47915b604051630748d63560e31b8152336004820152602481019190915291829081906044820190565b03817f00000000000000000000000000000000000000000000000000000000000000006001600160a01b03165afa9081156107c1575f916112f9575b50610c8c611e48565b11611297578351156112525783518251036111f957835183510361119d578051602082012090610cbe828585886123fb565b93845f526005602052600260405f20015461114257610cde600954611ddc565b600955610ced60015443611dea565b93610cfa60025486611dea565b936040519061018082018281106001600160401b0382111761107f5760405233825283888a6020850143815260408601908b825260608701918b8352608088015f815260a08901935f855260c08a01925f845260e08b01945f86526101008c019788526101208c01988d8a526101408d019a8b526101608d019b8c525f52600560205260405f209b60018060a01b039051166bffffffffffffffffffffffff60a01b8d5416178c555160018c01555160028b01555160038a0155516004890155610dd76005890193511515849060ff801983541691151516179055565b518254915162ffff001990921690151560081b61ff00161790151560101b62ff0000161790555180519060068601906001600160401b03831161107f57600160401b831161107f57602090610e3184845481865585611e25565b01905f5260205f205f5b8381106111255750505050600784019051908151916001600160401b03831161107f57600160401b831161107f57602090610e7b84845481865585611e25565b01905f5260205f205f5b8381106111115750505050600883019051805190600160401b821161107f578254828455808310611093575b50602001915f5260205f20915f905b828210610f62575050505093610f3560209994610f278a9895610f439560097fb4b9e4ff2a6410b600de1bd0a904d12984f9281c72bb661857879bff01cf7cce9a51910155610f1a6040519860e08a5260e08a0190611aa7565b908882038e8a0152611ae3565b908682036040880152611b16565b90848203606086015261189a565b9443608084015260a083015260c08201528033940390a3604051908152f35b80518051906001600160401b03821161107f57610f7f8654611841565b601f811161103c575b50602090601f8311600114610fd35792826001949360209386955f92610fc8575b50505f19600383901b1c191690841b1787555b01940191019092610ec0565b015190505f80610fa9565b90601f19831691875f52815f20925f5b818110611024575093602093600196938796938388951061100c575b505050811b018755610fbc565b01515f1960f88460031b161c191690555f8080610fff565b92936020600181928786015181550195019301610fe3565b82811115610f885761107190875f5260205f2090601f850160051c9060208610611077575b601f82910160051c039101611e0a565b8f610f88565b5f9150611061565b634e487b7160e01b5f52604160045260245ffd5b835f52828060205f20019103905f5b8281106110b0575050610eb1565b8060019183016110c08154611841565b90816110cf575b5050016110a2565b81601f5f931185146110e55750555b5f806110c7565b8183526020832061110191601f0160051c841901908601611e0a565b80825281602081209155556110de565b600190602084519401938184015501610e85565b82516001600160a01b031681830155602090920191600101610e3b565b60405162461bcd60e51b815260206004820152602d60248201527f476f7665726e6f7257697468446566656e7365733a2070726f706f73616c206160448201526c6c72656164792065786973747360981b6064820152608490fd5b60405162461bcd60e51b815260206004820152602e60248201527f50726f706f73616c4c69623a20746172676574732f63616c6c6461746173206c60448201526d0cadccee8d040dad2e6dac2e8c6d60931b6064820152608490fd5b60405162461bcd60e51b815260206004820152602b60248201527f50726f706f73616c4c69623a20746172676574732f76616c756573206c656e6760448201526a0e8d040dad2e6dac2e8c6d60ab1b6064820152608490fd5b60405162461bcd60e51b815260206004820152601b60248201527f50726f706f73616c4c69623a20656d7074792070726f706f73616c00000000006044820152606490fd5b60405162461bcd60e51b815260206004820152603460248201527f476f7665726e6f7257697468446566656e7365733a2070726f706f73657220766044820152731bdd195cc818995b1bddc81d1a1c995cda1bdb1960621b6064820152608490fd5b90506020813d602011611323575b8161131460209383611879565b8101031261078d575185610c83565b3d9150611307565b634e487b7160e01b5f52601160045260245ffd5b610c4760205f610c20565b3461078d57606036600319011261078d576113636118e1565b6044356001600160401b03811161078d573660238201121561078d578060040135916001600160401b03831161078d57366024848401011161078d576113b3610ae69260209460243692016119d3565b90336004356120b8565b3461078d575f36600319011261078d576040517f00000000000000000000000000000000000000000000000000000000000000006001600160a01b03168152602090f35b3461078d57602036600319011261078d576004355f5260056020526020600960405f200154604051908152f35b3461078d575f36600319011261078d57602060405160c88152f35b3461078d57604036600319011261078d576020610ae66114676118e1565b604051906114758483611879565b5f8252336004356120b8565b3461078d57602036600319011261078d576004355f52600660205260405f2060018101546109fe60028354930154604051938493846040919493926060820195825260208201520152565b3461078d575f36600319011261078d576020600354604051908152f35b3461078d57604036600319011261078d576115026118cb565b6004355f52600860205260405f209060018060a01b03165f52602052602060ff60405f2054166040519015158152f35b3461078d57602036600319011261078d57600435805f52600560205260405f2061155b82611ca8565b600881101561085a576115fd5780546001600160a01b031633036115ad57600501805460ff191660011790557f789cf55be980739dad1d0699b93b58e806b51c9d96619bfa8fe0a28abaa7b30c5f80a2005b60405162461bcd60e51b815260206004820152602260248201527f476f7665726e6f7257697468446566656e7365733a206e6f742070726f706f7360448201526132b960f11b6064820152608490fd5b60405162461bcd60e51b815260206004820152603760248201527f476f7665726e6f7257697468446566656e7365733a2063616e206f6e6c79206360448201527f616e63656c2070656e64696e672070726f706f73616c730000000000000000006064820152608490fd5b3461078d57602036600319011261078d576020611686600435611ca8565b61169360405180926118be565bf35b3461078d575f36600319011261078d576020600154604051908152f35b3461078d575f36600319011261078d576020610ae6611ba5565b3461078d57602036600319011261078d576004355f526005602052602060018060a01b0360405f205416604051908152f35b3461078d57602036600319011261078d576004355f52600560205260405f2060018101546109fe60036002840154930154604051938493846040919493926060820195825260208201520152565b3461078d575f36600319011261078d576040515f5f5461176b81611841565b808452906001811690811561180357506001146117a7575b6109fe8361179381850382611879565b60405191829160208352602083019061189a565b5f8080527f290decd9548b62a8d60345a988386fc84ba6bc95484008f6362f93160ef3e563939250905b8082106117e957509091508101602001611793611783565b9192600181602092548385880101520191019092916117d1565b60ff191660208086019190915291151560051b840190910191506117939050611783565b3461078d575f36600319011261078d576020906002548152f35b90600182811c9216801561186f575b602083101461185b57565b634e487b7160e01b5f52602260045260245ffd5b91607f1691611850565b90601f801991011681019081106001600160401b0382111761107f57604052565b805180835260209291819084018484015e5f828201840152601f01601f1916010190565b90600882101561085a5752565b602435906001600160a01b038216820361078d57565b6024359060ff8216820361078d57565b6001600160401b03811161107f5760051b60200190565b9080601f8301121561078d57813590611920826118f1565b9261192e6040519485611879565b82845260208085019360051b82010191821161078d57602001915b8183106119565750505090565b82356001600160a01b038116810361078d57815260209283019201611949565b9080601f8301121561078d57813561198d816118f1565b9261199b6040519485611879565b81845260208085019260051b82010192831161078d57602001905b8282106119c35750505090565b81358152602091820191016119b6565b9291926001600160401b03821161107f57604051916119fc601f8201601f191660200184611879565b82948184528183011161078d578281602093845f960137010152565b81601f8201121561078d57803590611a2f826118f1565b92611a3d6040519485611879565b82845260208085019360051b8301019181831161078d5760208101935b838510611a6957505050505090565b84356001600160401b03811161078d57820183603f8201121561078d57602091611a9c85836040868096013591016119d3565b815201940193611a5a565b90602080835192838152019201905f5b818110611ac45750505090565b82516001600160a01b0316845260209384019390920191600101611ab7565b90602080835192838152019201905f5b818110611b005750505090565b8251845260209384019390920191600101611af3565b9080602083519182815201916020808360051b8301019401925f915b838310611b4157505050505090565b9091929394602080611b5f600193601f19868203018752895161189a565b97019301930191939290611b32565b90602082549182815201915f5260205f20905f5b818110611b8f5750505090565b8254845260209093019260019283019201611b82565b6040516318160ddd60e01b81526020816004817f00000000000000000000000000000000000000000000000000000000000000006001600160a01b03165afa9081156107c1575f91611c76575b50600454604051600a80548083525f91825260208301917fc65a7bb8d6351c1cf70c95a316cc6a92839c986682d98bc35f958f4883f9d2a891905b818110611c6057505050611c5c9282611c51612710969484611c5695500382611879565b61248e565b90611df7565b0490565b8254845260209093019260019283019201611c2d565b90506020813d602011611ca0575b81611c9160209383611879565b8101031261078d57515f611bf2565b3d9150611c84565b805f52600560205260405f2060028101548015611d8857600582015460ff8116611d7f5760ff8160101c16611d765760081c60ff16611d5157431115611d4b5760030154431115611d45575f52600660205260405f2080549060026001820154910154611d21611d16611ba5565b9161061b8486611dea565b10159182611d3b575b505015611d3657600290565b600390565b1190505f80611d2a565b50600190565b50505f90565b5060049150015462127500810180911161132b57421015611d7157600490565b600590565b50505050600690565b50505050600790565b60405162461bcd60e51b815260206004820152602660248201527f476f7665726e6f7257697468446566656e7365733a20756e6b6e6f776e2070726044820152651bdc1bdcd85b60d21b6064820152608490fd5b5f19811461132b5760010190565b9190820180921161132b57565b8181029291811591840414171561132b57565b5f5b828110611e1857505050565b5f82820155600101611e0c565b91818110611e3257505050565b611e46925f528060205f2001910390611e0a565b565b6003546127108111611f30575b6040516318160ddd60e01b81526020816004817f00000000000000000000000000000000000000000000000000000000000000006001600160a01b03165afa9081156107c1575f91611efe575b506127108211611eb95761271091611c5c91611df7565b60405162461bcd60e51b815260206004820152601a60248201527f476f7665726e616e63654d6174683a20627073203e20313030250000000000006044820152606490fd5b90506020813d602011611f28575b81611f1960209383611879565b8101031261078d57515f611ea2565b3d9150611f0c565b50612710611e55565b90602082549182815201915f5260205f20905f5b818110611f5a5750505090565b82546001600160a01b0316845260209093019260019283019201611f4d565b5f9291815491611f8883611841565b8083529260018116908115611fdd5750600114611fa457505050565b5f9081526020812093945091925b838310611fc3575060209250010190565b600181602092949394548385870101520191019190611fb2565b915050602093945060ff929192191683830152151560051b010190565b90806020835491828152019160208260051b820101935f5260205f20925f915b83831061202957505050505090565b9091929394602060016120468193601f1986820301875289611f79565b9701930193019193929061201a565b94939261208160809361207361208f9460a08a5260a08a0190611f39565b9088820360208a0152611b6e565b908682036040880152611ffa565b935f60608201520152565b81156120a4570490565b634e487b7160e01b5f52601260045260245ffd5b91939290936120c683611ca8565b600881101561085a576001036123a65760ff16936002851161234d57825f52600860205260405f2060018060a01b0382165f5260205260ff60405f2054166122f8575f8381526008602090815260408083206001600160a01b038516808552908352818420805460ff191660019081179091558785526005845293829020909301549051630748d63560e31b81526004810193909352602483015281806044810103817f00000000000000000000000000000000000000000000000000000000000000006001600160a01b03165afa9081156107c1575f916122c6575b508095845f52600660205260405f2081155f1461229e576001016121c8838254611dea565b90555b6040519260608401908482106001600160401b0383111761107f577fb8e138887d0aa13bab447e82de9d5c1777041ecd21ca36ba824ff1e6c07ddda494612299926040526001815260016020820185815260408301908782528a5f52600760205260405f20838060a01b0386165f5260205261225a60405f2094511515859060ff801983541691151516179055565b5161ff0084549160081b169061ff00191617835551910155604051938493845260208401526060604084015260018060a01b031694606083019061189a565b0390a3565b600182036122b8576122b1838254611dea565b90556121cb565b6002016122b1838254611dea565b90506020813d6020116122f0575b816122e160209383611879565b8101031261078d57515f6121a3565b3d91506122d4565b60405162461bcd60e51b815260206004820152602760248201527f476f7665726e6f7257697468446566656e7365733a20766f746520616c726561604482015266191e4818d85cdd60ca1b6064820152608490fd5b60405162461bcd60e51b815260206004820152602b60248201527f476f7665726e6f7257697468446566656e7365733a20696e76616c696420737560448201526a70706f72742076616c756560a81b6064820152608490fd5b60405162461bcd60e51b815260206004820152602760248201527f476f7665726e6f7257697468446566656e7365733a20766f74696e67206e6f746044820152662061637469766560c81b6064820152608490fd5b929061245c9161244861243694604051958694612424602087019960808b5260a0880190611aa7565b868103601f1901604088015290611ae3565b848103601f1901606086015290611b16565b90608083015203601f198101835282611879565b51902090565b600a5481101561247a57600a5f5260205f2001905f90565b634e487b7160e01b5f52603260045260245ffd5b919082511561250757505f805b83518210156124c2576124ba60019160208460051b8701015190611dea565b91019061249b565b90506124d09192519061209a565b611b58810290808204611b58149015171561132b5761271090046101f4810180911161132b576103e860c861250492612514565b90565b61250491925060c86103e8915b919080821061253b578083106125355750808211612530575090565b905090565b91505090565b60405162461bcd60e51b815260206004820152601760248201527f476f7665726e616e63654d6174683a206869203c206c6f0000000000000000006044820152606490fd5b908015611d4b57612710820291808304612710149015171561132b576125049161209a56fea2646970667358221220b6b1f44d864eace34b70c029e0ab40325264f1f68e652d1595fff411b4577fc564736f6c63430008210033","linkReferences":{}},"methodIdentifiers":{"GRACE_PERIOD()":"c1a287e2","MAX_QUORUM_BPS()":"c94b7693","MIN_QUORUM_BPS()":"6198c3d0","TIMELOCK()":"7aadef8b","TOKEN()":"82bfefc8","cancel(uint256)":"40e58ee5","castVote(uint256,uint8)":"56781388","castVoteWithReason(uint256,uint8,string)":"7b3c71d3","execute(uint256)":"fe0d94c1","getProposal(uint256)":"c7f758a8","getReceipt(uint256,address)":"e23a9a52","hasVoted(uint256,address)":"43859632","hashProposal(address[],uint256[],bytes[],bytes32)":"c59057e4","name()":"06fdde03","proposalCount()":"da35c664","proposalDescriptionHash(uint256)":"785df409","proposalProposer(uint256)":"143489d0","proposalThreshold()":"b58131b0","proposalThresholdBps()":"48b1aeb4","proposalVotes(uint256)":"544ffc9c","proposalWindow(uint256)":"0ecff9bc","propose(address[],uint256[],bytes[],string)":"7d5e81e2","queue(uint256)":"ddf0b009","quorumBps()":"cd2ddd0c","quorumVotes()":"24bc1a64","state(uint256)":"3e4f49e6","votingDelay()":"3932abb1","votingPeriod()":"02a251a3"},"id":80}