{"abi":[{"type":"constructor","inputs":[{"name":"_initialSigners","type":"address[]","internalType":"address[]"},{"name":"_threshold","type":"uint256","internalType":"uint256"},{"name":"_spendingLimit","type":"uint256","internalType":"uint256"}],"stateMutability":"nonpayable"},{"type":"receive","stateMutability":"payable"},{"type":"function","name":"addSigner","inputs":[{"name":"newSigner","type":"address","internalType":"address"}],"outputs":[],"stateMutability":"nonpayable"},{"type":"function","name":"attemptWithdrawal","inputs":[{"name":"token","type":"address","internalType":"address"},{"name":"amount","type":"uint256","internalType":"uint256"},{"name":"","type":"address","internalType":"address"}],"outputs":[{"name":"","type":"bool","internalType":"bool"}],"stateMutability":"nonpayable"},{"type":"function","name":"confirmWithdrawal","inputs":[{"name":"txId","type":"uint256","internalType":"uint256"}],"outputs":[{"name":"","type":"bool","internalType":"bool"}],"stateMutability":"nonpayable"},{"type":"function","name":"depositMultiple","inputs":[{"name":"tokenList","type":"address[]","internalType":"address[]"},{"name":"amounts","type":"uint256[]","internalType":"uint256[]"}],"outputs":[],"stateMutability":"nonpayable"},{"type":"function","name":"depositToken","inputs":[{"name":"token","type":"address","internalType":"address"},{"name":"amount","type":"uint256","internalType":"uint256"}],"outputs":[],"stateMutability":"nonpayable"},{"type":"function","name":"emergencyPause","inputs":[],"outputs":[],"stateMutability":"nonpayable"},{"type":"function","name":"emergencyRecoverToken","inputs":[{"name":"token","type":"address","internalType":"address"},{"name":"amount","type":"uint256","internalType":"uint256"},{"name":"to","type":"address","internalType":"address"}],"outputs":[],"stateMutability":"nonpayable"},{"type":"function","name":"executeWithdrawal","inputs":[{"name":"txId","type":"uint256","internalType":"uint256"}],"outputs":[{"name":"","type":"bool","internalType":"bool"}],"stateMutability":"nonpayable"},{"type":"function","name":"failedWithdrawalAttempts","inputs":[{"name":"","type":"address","internalType":"address"}],"outputs":[{"name":"","type":"uint256","internalType":"uint256"}],"stateMutability":"view"},{"type":"function","name":"getAttackSummary","inputs":[{"name":"attacker","type":"address","internalType":"address"}],"outputs":[{"name":"failedAttempts","type":"uint256","internalType":"uint256"},{"name":"totalAttemptedValue","type":"uint256","internalType":"uint256"}],"stateMutability":"view"},{"type":"function","name":"getBalance","inputs":[{"name":"token","type":"address","internalType":"address"}],"outputs":[{"name":"","type":"uint256","internalType":"uint256"}],"stateMutability":"view"},{"type":"function","name":"getConfirmationCount","inputs":[{"name":"txId","type":"uint256","internalType":"uint256"}],"outputs":[{"name":"","type":"uint256","internalType":"uint256"}],"stateMutability":"view"},{"type":"function","name":"getEthBalance","inputs":[],"outputs":[{"name":"","type":"uint256","internalType":"uint256"}],"stateMutability":"view"},{"type":"function","name":"getSignerCount","inputs":[],"outputs":[{"name":"","type":"uint256","internalType":"uint256"}],"stateMutability":"view"},{"type":"function","name":"getSigners","inputs":[],"outputs":[{"name":"","type":"address[]","internalType":"address[]"}],"stateMutability":"view"},{"type":"function","name":"getTokenCount","inputs":[],"outputs":[{"name":"","type":"uint256","internalType":"uint256"}],"stateMutability":"view"},{"type":"function","name":"getTokens","inputs":[],"outputs":[{"name":"","type":"address[]","internalType":"address[]"}],"stateMutability":"view"},{"type":"function","name":"getTransaction","inputs":[{"name":"txId","type":"uint256","internalType":"uint256"}],"outputs":[{"name":"token","type":"address","internalType":"address"},{"name":"amount","type":"uint256","internalType":"uint256"},{"name":"recipient","type":"address","internalType":"address"},{"name":"status","type":"uint8","internalType":"enum MockTreasury.TransactionStatus"},{"name":"description","type":"string","internalType":"string"}],"stateMutability":"view"},{"type":"function","name":"getTransactionCount","inputs":[],"outputs":[{"name":"","type":"uint256","internalType":"uint256"}],"stateMutability":"view"},{"type":"function","name":"getTreasuryComposition","inputs":[],"outputs":[{"name":"tokenList","type":"address[]","internalType":"address[]"},{"name":"balances","type":"uint256[]","internalType":"uint256[]"}],"stateMutability":"view"},{"type":"function","name":"hasApprovedWithdrawal","inputs":[{"name":"","type":"uint256","internalType":"uint256"},{"name":"","type":"address","internalType":"address"}],"outputs":[{"name":"","type":"bool","internalType":"bool"}],"stateMutability":"view"},{"type":"function","name":"isSigner","inputs":[{"name":"","type":"address","internalType":"address"}],"outputs":[{"name":"","type":"bool","internalType":"bool"}],"stateMutability":"view"},{"type":"function","name":"multiSigEnabled","inputs":[],"outputs":[{"name":"","type":"bool","internalType":"bool"}],"stateMutability":"view"},{"type":"function","name":"owner","inputs":[],"outputs":[{"name":"","type":"address","internalType":"address"}],"stateMutability":"view"},{"type":"function","name":"proposeWithdrawal","inputs":[{"name":"token","type":"address","internalType":"address"},{"name":"amount","type":"uint256","internalType":"uint256"},{"name":"to","type":"address","internalType":"address"},{"name":"description","type":"string","internalType":"string"}],"outputs":[{"name":"","type":"uint256","internalType":"uint256"}],"stateMutability":"nonpayable"},{"type":"function","name":"removeSigner","inputs":[{"name":"signer","type":"address","internalType":"address"}],"outputs":[],"stateMutability":"nonpayable"},{"type":"function","name":"renounceOwnership","inputs":[],"outputs":[],"stateMutability":"nonpayable"},{"type":"function","name":"requiredSignatures","inputs":[],"outputs":[{"name":"","type":"uint256","internalType":"uint256"}],"stateMutability":"view"},{"type":"function","name":"resumeOperations","inputs":[],"outputs":[],"stateMutability":"nonpayable"},{"type":"function","name":"setSpendingLimit","inputs":[{"name":"newLimit","type":"uint256","internalType":"uint256"}],"outputs":[],"stateMutability":"nonpayable"},{"type":"function","name":"setThreshold","inputs":[{"name":"newThreshold","type":"uint256","internalType":"uint256"}],"outputs":[],"stateMutability":"nonpayable"},{"type":"function","name":"signers","inputs":[{"name":"","type":"uint256","internalType":"uint256"}],"outputs":[{"name":"","type":"address","internalType":"address"}],"stateMutability":"view"},{"type":"function","name":"spendingLimit","inputs":[],"outputs":[{"name":"","type":"uint256","internalType":"uint256"}],"stateMutability":"view"},{"type":"function","name":"tokenBalance","inputs":[{"name":"","type":"address","internalType":"address"}],"outputs":[{"name":"","type":"uint256","internalType":"uint256"}],"stateMutability":"view"},{"type":"function","name":"tokenExists","inputs":[{"name":"","type":"address","internalType":"address"}],"outputs":[{"name":"","type":"bool","internalType":"bool"}],"stateMutability":"view"},{"type":"function","name":"tokens","inputs":[{"name":"","type":"uint256","internalType":"uint256"}],"outputs":[{"name":"","type":"address","internalType":"address"}],"stateMutability":"view"},{"type":"function","name":"totalWithdrawalAttemptsValue","inputs":[{"name":"","type":"address","internalType":"address"}],"outputs":[{"name":"","type":"uint256","internalType":"uint256"}],"stateMutability":"view"},{"type":"function","name":"transactions","inputs":[{"name":"","type":"uint256","internalType":"uint256"}],"outputs":[{"name":"target","type":"address","internalType":"address"},{"name":"token","type":"address","internalType":"address"},{"name":"amount","type":"uint256","internalType":"uint256"},{"name":"recipient","type":"address","internalType":"address"},{"name":"createdAt","type":"uint256","internalType":"uint256"},{"name":"executedAt","type":"uint256","internalType":"uint256"},{"name":"status","type":"uint8","internalType":"enum MockTreasury.TransactionStatus"},{"name":"description","type":"string","internalType":"string"},{"name":"initiator","type":"address","internalType":"address"}],"stateMutability":"view"},{"type":"function","name":"transferOwnership","inputs":[{"name":"newOwner","type":"address","internalType":"address"}],"outputs":[],"stateMutability":"nonpayable"},{"type":"function","name":"withdrawWithinLimit","inputs":[{"name":"token","type":"address","internalType":"address"},{"name":"amount","type":"uint256","internalType":"uint256"},{"name":"to","type":"address","internalType":"address"}],"outputs":[{"name":"","type":"bool","internalType":"bool"}],"stateMutability":"nonpayable"},{"type":"event","name":"ETHReceived","inputs":[{"name":"from","type":"address","indexed":true,"internalType":"address"},{"name":"amount","type":"uint256","indexed":false,"internalType":"uint256"}],"anonymous":false},{"type":"event","name":"OwnershipTransferred","inputs":[{"name":"previousOwner","type":"address","indexed":true,"internalType":"address"},{"name":"newOwner","type":"address","indexed":true,"internalType":"address"}],"anonymous":false},{"type":"event","name":"SignerAdded","inputs":[{"name":"signer","type":"address","indexed":true,"internalType":"address"}],"anonymous":false},{"type":"event","name":"SignerRemoved","inputs":[{"name":"signer","type":"address","indexed":true,"internalType":"address"}],"anonymous":false},{"type":"event","name":"SpendingLimitUpdated","inputs":[{"name":"newLimit","type":"uint256","indexed":false,"internalType":"uint256"}],"anonymous":false},{"type":"event","name":"ThresholdUpdated","inputs":[{"name":"newThreshold","type":"uint256","indexed":false,"internalType":"uint256"}],"anonymous":false},{"type":"event","name":"TokenDeposited","inputs":[{"name":"token","type":"address","indexed":true,"internalType":"address"},{"name":"amount","type":"uint256","indexed":false,"internalType":"uint256"}],"anonymous":false},{"type":"event","name":"TokenWithdrawn","inputs":[{"name":"token","type":"address","indexed":true,"internalType":"address"},{"name":"to","type":"address","indexed":true,"internalType":"address"},{"name":"amount","type":"uint256","indexed":false,"internalType":"uint256"}],"anonymous":false},{"type":"event","name":"TransactionCreated","inputs":[{"name":"txId","type":"uint256","indexed":true,"internalType":"uint256"},{"name":"initiator","type":"address","indexed":true,"internalType":"address"},{"name":"token","type":"address","indexed":true,"internalType":"address"},{"name":"amount","type":"uint256","indexed":false,"internalType":"uint256"}],"anonymous":false},{"type":"event","name":"TransactionExecuted","inputs":[{"name":"txId","type":"uint256","indexed":true,"internalType":"uint256"},{"name":"executor","type":"address","indexed":true,"internalType":"address"}],"anonymous":false},{"type":"event","name":"TransactionFailed","inputs":[{"name":"txId","type":"uint256","indexed":true,"internalType":"uint256"},{"name":"reason","type":"string","indexed":false,"internalType":"string"}],"anonymous":false},{"type":"event","name":"UnauthorizedWithdrawalBlocked","inputs":[{"name":"attacker","type":"address","indexed":true,"internalType":"address"},{"name":"amount","type":"uint256","indexed":false,"internalType":"uint256"}],"anonymous":false},{"type":"event","name":"WithdrawalApproved","inputs":[{"name":"txId","type":"uint256","indexed":true,"internalType":"uint256"},{"name":"signer","type":"address","indexed":true,"internalType":"address"},{"name":"approvals","type":"uint256","indexed":false,"internalType":"uint256"},{"name":"required","type":"uint256","indexed":false,"internalType":"uint256"}],"anonymous":false},{"type":"event","name":"WithdrawalAttempted","inputs":[{"name":"attacker","type":"address","indexed":true,"internalType":"address"},{"name":"token","type":"address","indexed":true,"internalType":"address"},{"name":"amount","type":"uint256","indexed":false,"internalType":"uint256"}],"anonymous":false},{"type":"error","name":"OwnableInvalidOwner","inputs":[{"name":"owner","type":"address","internalType":"address"}]},{"type":"error","name":"OwnableUnauthorizedAccount","inputs":[{"name":"account","type":"address","internalType":"address"}]},{"type":"error","name":"ReentrancyGuardReentrantCall","inputs":[]},{"type":"error","name":"SafeERC20FailedOperation","inputs":[{"name":"token","type":"address","internalType":"address"}]}],"bytecode":{"object":"0x6080604052346103bc5761280180380380610019816103c0565b9283398101906060818303126103bc5780516001600160401b0381116103bc57810182601f820112156103bc578051926001600160401b038411610225578360051b9160208061006a8186016103c0565b8097815201938201019182116103bc57602001915b81831061039c57505050604060208201519101513315610389575f8054336001600160a01b03198216811783556040519290916001600160a01b0316907f8be0079c531659141344cd1fd0a4f28419497f9722a3daafe3b4186f6b6457e09080a360017f9b779b17422d0df92223018b32b4d1fa46e071723d6817e2486d003becc55f00558351156103475750600983511161030f5781151580610304575b156102cb575f5b83518110156102a7576001600160a01b0361014082866103e5565b511615610271576001600160a01b0361015982866103e5565b51165f52600260205260ff60405f205416610239576001600160a01b0361018082866103e5565b51169060015491680100000000000000008310156102255760018301806001558310156102115760015f8190527fb10e2d527612073b26eecdfd717e6a320cf44b4afac2b0732d9fcbe2b7fa0cf690930180546001600160a01b03191690911790556001600160a01b036101f482876103e5565b51165f52600260205260405f208260ff1982541617905501610125565b634e487b7160e01b5f52603260045260245ffd5b634e487b7160e01b5f52604160045260245ffd5b60405162461bcd60e51b815260206004820152601060248201526f223ab83634b1b0ba329039b4b3b732b960811b6044820152606490fd5b60405162461bcd60e51b815260206004820152600e60248201526d24b73b30b634b21039b4b3b732b960911b6044820152606490fd5b5090600355600955600160ff19600a541617600a5560405161240790816103fa8239f35b60405162461bcd60e51b8152602060048201526011602482015270125b9d985b1a59081d1a1c995cda1bdb19607a1b6044820152606490fd5b50825182111561011e565b60405162461bcd60e51b815260206004820152601060248201526f546f6f206d616e79207369676e65727360801b6044820152606490fd5b62461bcd60e51b815260206004820152601c60248201527f4174206c65617374206f6e65207369676e6572207265717569726564000000006044820152606490fd5b631e4fbdf760e01b5f525f60045260245ffd5b82516001600160a01b03811681036103bc5781526020928301920161007f565b5f80fd5b6040519190601f01601f191682016001600160401b0381118382101761022557604052565b80518210156102115760209160051b01019056fe60806040526004361015610046575b3615610018575f80fd5b6040513481527fbfe611b001dfcd411432f7bf0d79b82b4b2ee81511edac123a3403c357fb972a60203392a2005b5f3560e01c80630e316ab714611afa5780632079fb9a14611ad157806324a7a72514611a8957806324f13a761461187a5780632a3f6c36146118265780632e7700f014611809578063338b5dea1461172857806333ea3dc81461169557806339d7f76e146116785780633c9607f61461162c5780634749093c146115f45780634f64b2be146115b257806351858e271461158e57806370ed0ada14611573578063715018a61461151c57806372301f4f146113f65780637404ab92146111fc57806378a89567146111df578063797e566c14610f835780637df73e2714610f465780638b51d13f14610f135780638d06804314610ef65780638da5cb5b14610ecf57806394cf795e14610e52578063960bfe0414610db25780639ace38c214610ce2578063a6e1d01614610cbb578063aa6ca80814610c26578063adb999bc14610c02578063b33f78ca14610bc5578063b45a219814610b8d578063b715be8114610b70578063bc9fc39d14610b4e578063cfd9eb0d146109f8578063e9301812146105f3578063eb12d61e1461045f578063eedc966a14610203578063f2fde38b146103da578063f3b386901461023f5763f8b2cb4f0361000e575b3461023b57602036600319011261023b576001600160a01b03610224611cc1565b165f526006602052602060405f2054604051908152f35b5f80fd5b3461023b57602036600319011261023b5760043561025b61220c565b6102686007548210611f2b565b600661027382611e08565b50019060ff82541660058110156103c65780159081156103bb575b5015610376575f81815260086020908152604080832033845290915290205460ff1661033d575f8181526008602090815260408083203384529091529020805460ff191660011790556102e081612259565b9160035483101561032c575b5060035460405192835260208301527fe77b65516c28a0be0ba753b3d0f289476a78c67c10d1ce8751c9d0ab257e1efd60403393a3602060405160018152f35b805460ff19166001179055826102ec565b60405162461bcd60e51b8152602060048201526011602482015270105b1c9958591e4818dbdb999a5c9b5959607a1b6044820152606490fd5b60405162461bcd60e51b815260206004820152601b60248201527f5472616e73616374696f6e206e6f7420636f6e6669726d61626c6500000000006044820152606490fd5b60019150148361028e565b634e487b7160e01b5f52602160045260245ffd5b3461023b57602036600319011261023b576103f3611cc1565b6103fb6121ae565b6001600160a01b0316801561044c575f80546001600160a01b03198116831782556001600160a01b0316907f8be0079c531659141344cd1fd0a4f28419497f9722a3daafe3b4186f6b6457e09080a3005b631e4fbdf760e01b5f525f60045260245ffd5b3461023b57602036600319011261023b57610478611cc1565b6104806121ae565b6001600160a01b0381169081156105bd57815f52600260205260ff60405f205416610585576009600154101561054a5760015490600160401b821015610536576104d58260016104f994016001556001611d1b565b81546001600160a01b0393841660039290921b91821b9390911b1916919091179055565b805f52600260205260405f20600160ff198254161790557f47d1c22a25bb3a5d4e481b9b1e6944c2eade3181a0a20b495ed61d35b5323f245f80a2005b634e487b7160e01b5f52604160045260245ffd5b60405162461bcd60e51b815260206004820152601360248201527213585e081cda59db995c9cc81c995858da1959606a1b6044820152606490fd5b60405162461bcd60e51b815260206004820152601060248201526f20b63932b0b23c90309039b4b3b732b960811b6044820152606490fd5b60405162461bcd60e51b815260206004820152600e60248201526d24b73b30b634b21039b4b3b732b960911b6044820152606490fd5b3461023b57608036600319011261023b5761060c611cc1565b6044356001600160a01b038116916024359183900361023b576064359267ffffffffffffffff841161023b573660238501121561023b5783600401359167ffffffffffffffff831161023b57366024848701011161023b5761066c61220c565b61067782151561208e565b610682841515611fef565b60018060a01b031693845f5260066020526106a38460405f20541015611f70565b60405192610120840184811067ffffffffffffffff821117610536576040523084526020840192868452604085019086825260608601908152608086019042825260a08701925f84525f602060c08a01968288528060246040519a61071185601f19601f860116018d611e5c565b828c5201838b01378801015260e08801958652610100880196338852600754600160401b8110156105365780600161074c9201600755611e08565b9990996109e5575189546001600160a01b03199081166001600160a01b03928316178b55915160018b0180548416918316919091179055915160028a01559151600389018054909316911617905551600486015551600580860191909155905160068501918110156103c65760ff8019835416911617905560078301905180519067ffffffffffffffff8211610536576107e68354611e24565b601f8111610994575b50602090601f831160011461092d576008949392915f9183610922575b50508160011b915f199060031b1c19161790555b51910180546001600160a01b0319166001600160a01b03929092169190911790556007545f1981019190821161090e575f8281526008602090815260408083203384528252909120805460ff191660011790559261087d83612259565b916003548310156108f1575b604051908152837fe9097a4f4eddc0e5906640fcd9e1193c9db52771536ca4c8b06ab4c40aa045d2863393a460035460405191825283820152817fe77b65516c28a0be0ba753b3d0f289476a78c67c10d1ce8751c9d0ab257e1efd60403393a3604051908152f35b60066108fc85611e08565b5001805460ff19166001179055610889565b634e487b7160e01b5f52601160045260245ffd5b01519050888061080c565b90601f19831691845f52815f20925f5b81811061097c575091600193918560089897969410610964575b505050811b019055610820565b01515f1960f88460031b161c19169055888080610957565b9293602060018192878601518155019501930161093d565b828111156107ef57835f5260205f20601f840160051c90602085106109dd575b81601f9101920160051c03905f5b8281106109d05750506107ef565b5f828201556001016109c2565b5f91506109b4565b634e487b7160e01b5f525f60045260245ffd5b3461023b57610a0636611d9d565b9091610a106121ae565b610a186121d4565b6001600160a01b031690610a2d821515611fb3565b610a38831515611fef565b6001600160a01b03811692610a4e84151561208e565b6040516370a0823160e01b8152306004820152602081602481875afa908115610b43575f91610b0d575b5090610ac9817f8210728e7c071f615b840ee026032693858fbcd5e5359e67e438c890f59e56209484610aaf836020971015611f70565b875f52600686528060405f205410610afb575b50866122c7565b835f526006825260405f20610adf828254611f1e565b9055604051908152a360015f5160206123b25f395f51905f5255005b875f526006865260405f205588610ac2565b9190506020823d602011610b3b575b81610b2960209383611e5c565b8101031261023b579051610ac9610a78565b3d9150610b1c565b6040513d5f823e3d90fd5b3461023b575f36600319011261023b57602060ff600a54166040519015158152f35b3461023b575f36600319011261023b576020600154604051908152f35b3461023b57602036600319011261023b576001600160a01b03610bae611cc1565b165f52600b602052602060405f2054604051908152f35b3461023b57602036600319011261023b576001600160a01b03610be6611cc1565b165f526005602052602060ff60405f2054166040519015158152f35b3461023b576020610c1c610c1536611d9d565b5090612100565b6040519015158152f35b3461023b575f36600319011261023b5760405180602060045491828152019060045f527f8a35acfbc15ff81a39ae7d344fd709f28e8600b4aa8c65c6b64bfe7fe36bd19b905f5b818110610c9c57610c9885610c8481870382611e5c565b604051918291602083526020830190611d61565b0390f35b82546001600160a01b0316845260209093019260019283019201610c6d565b3461023b575f36600319011261023b57610cd36121ae565b600a805460ff19166001179055005b3461023b57602036600319011261023b5760043560075481101561023b57610d0990611e08565b5080546001820154600283015460038401546004850154600586015460068701546001600160a01b0395861697968616969495610da79594610d949460ff90931693929116610d5a60078701611e7e565b95600860018060a01b0391015416976040519a8b9a8b5260208b015260408a01526060890152608088015260a087015260c0860190611d30565b61012060e0850152610120840190611d3d565b906101008301520390f35b3461023b57602036600319011261023b57600435610dce6121ae565b80151580610e46575b15610e0d576020817fadfa8ecb21b6962ebcd0adbd9ab985b7b4c5b5eb3b0dead683171565c7bfe17192600355604051908152a1005b60405162461bcd60e51b8152602060048201526011602482015270125b9d985b1a59081d1a1c995cda1bdb19607a1b6044820152606490fd5b50600154811115610dd7565b3461023b575f36600319011261023b5760405180602060015491828152019060015f527fb10e2d527612073b26eecdfd717e6a320cf44b4afac2b0732d9fcbe2b7fa0cf6905f5b818110610eb057610c9885610c8481870382611e5c565b82546001600160a01b0316845260209093019260019283019201610e99565b3461023b575f36600319011261023b575f546040516001600160a01b039091168152602090f35b3461023b575f36600319011261023b576020600354604051908152f35b3461023b57602036600319011261023b576020610f3e600435610f396007548210611f2b565b612259565b604051908152f35b3461023b57602036600319011261023b576001600160a01b03610f67611cc1565b165f526002602052602060ff60405f2054166040519015158152f35b3461023b57604036600319011261023b5760043567ffffffffffffffff811161023b57610fb4903690600401611dd7565b60243567ffffffffffffffff811161023b57610fd4903690600401611dd7565b91610fdd6121d4565b8281036111a257801561116e575f5b8181106110065760015f5160206123b25f395f51905f5255005b60019061102f6001600160a01b0361102761102284878b6120dc565b6120ec565b161515611fb3565b61104561103d8287876120dc565b351515611fef565b611073828060a01b0361105c61102284878b6120dc565b166110688388886120dc565b359030903390612348565b818060a01b0361108761102283868a6120dc565b165f52600560205260ff60405f20541615611129575b6110a88186866120dc565b35828060a01b036110bd61102284878b6120dc565b165f5260066020526110d460405f20918254612055565b90556110e46110228285896120dc565b7fbc7c8a4d8049a3f99a02f2a20640c206a2e4d3f2fa54fd20da9f01fda3620cda60206111128489896120dc565b3592604051938452858060a01b031692a201610fec565b61113f61113a61102283868a6120dc565b612030565b818060a01b0361115361102283868a6120dc565b165f52600560205260405f208260ff1982541617905561109d565b60405162461bcd60e51b815260206004820152600c60248201526b456d7074792061727261797360a01b6044820152606490fd5b60405162461bcd60e51b8152602060048201526015602482015274082e4e4c2f240d8cadccee8d040dad2e6dac2e8c6d605b1b6044820152606490fd5b3461023b575f36600319011261023b576020600454604051908152f35b3461023b5761120a36611d9d565b906112136121d4565b61121b61220c565b6001600160a01b0382169261123184151561208e565b61123c821515611fef565b60ff600a5416156113bb57600954821161131b5760018060a01b031691825f5260066020528160405f2054106112d657816112b37f8210728e7c071f615b840ee026032693858fbcd5e5359e67e438c890f59e562093602093865f526006855260405f206112ab838254611f1e565b9055866122c7565b604051908152a360015f5160206123b25f395f51905f5255602060405160018152f35b60405162461bcd60e51b815260206004820152601d60248201527f496e73756666696369656e742074726561737572792062616c616e63650000006044820152606490fd5b611375826040518181527faab7e854dcd54b3c46b20374b8f2ac31cb25c248144c7876aefac7fb5a39931060203392a2335f52600b60205260405f2061136181546120ce565b9055335f52600c60205260405f2054612055565b5060405162461bcd60e51b815260206004820152601d60248201527f416d6f756e742065786365656473207370656e64696e67206c696d69740000006044820152606490fd5b60405162461bcd60e51b81526020600482015260136024820152724d756c74692d736967206d6f6465206f6e6c7960681b6044820152606490fd5b3461023b575f36600319011261023b5760045461141281612062565b906114206040519283611e5c565b808252601f1961142f82612062565b0136602084013761143f81612062565b61144c6040519182611e5c565b81815261145882612062565b602082019290601f19013684375f5b8181106114c35761148a8585856020604051948594604086526040860190611d61565b918483038286015251918281520191905f5b8181106114aa575050500390f35b825184528594506020938401939092019160010161149c565b806114cf600192611d03565b838060a01b0391549060031b1c166114e7828861207a565b526114f181611d03565b838060a01b0391549060031b1c165f52600660205260405f2054611515828661207a565b5201611467565b3461023b575f36600319011261023b576115346121ae565b5f80546001600160a01b0319811682556001600160a01b03167f8be0079c531659141344cd1fd0a4f28419497f9722a3daafe3b4186f6b6457e08280a3005b3461023b575f36600319011261023b57602047604051908152f35b3461023b575f36600319011261023b576115a66121ae565b600a805460ff19169055005b3461023b57602036600319011261023b5760043560045481101561023b576115db602091611d03565b905460405160039290921b1c6001600160a01b03168152f35b3461023b57602036600319011261023b576001600160a01b03611615611cc1565b165f52600c602052602060405f2054604051908152f35b3461023b57602036600319011261023b577f4420bef409b8d3d20d79f86dff6f9268b07931a1d4de99760b029cb52e56f609602060043561166b6121ae565b80600955604051908152a1005b3461023b575f36600319011261023b576020600954604051908152f35b3461023b57602036600319011261023b576116be6004356116b96007548210611f2b565b611e08565b5060018060a01b03600182015416610c9860028301549261171760018060a01b03600383015416916116fa600760ff6006840154169201611e7e565b926040519687968752602087015260408601526060850190611d30565b60a0608084015260a0830190611d3d565b3461023b57604036600319011261023b57611741611cc1565b7fbc7c8a4d8049a3f99a02f2a20640c206a2e4d3f2fa54fd20da9f01fda3620cda602060243561176f6121d4565b6001600160a01b03841693611785851515611fb3565b611790821515611fef565b61179c82303388612348565b845f526005835260ff60405f205416156117e4575b50835f526006825260405f206117c8828254612055565b9055604051908152a260015f5160206123b25f395f51905f5255005b6117ed90612030565b835f526005825260405f20600160ff19825416179055846117b1565b3461023b575f36600319011261023b576020600754604051908152f35b3461023b57604036600319011261023b576024356001600160a01b038116810361023b576004355f52600860205260405f209060018060a01b03165f52602052602060ff60405f2054166040519015158152f35b3461023b57602036600319011261023b576004356118966121d4565b61189e61220c565b6118ab6007548210611f2b565b6118b481611e08565b50600681019160ff83541660058110156103c6578015908115611a7e575b5015611a39576118e181612259565b600354116119f45760207f8210728e7c071f615b840ee026032693858fbcd5e5359e67e438c890f59e5620916001840160018060a01b038154165f526006835260405f205495611938600287019788541115611f70565b805460ff19166002179055426005860155855481546001600160a01b03165f90815260068552604090208054909161196f91611f1e565b9055805460039590950180548754919661199692916001600160a01b0390811691166122c7565b6040519133907fefc13bdcf58f184ea7cae26b499fb33b539e01d0197cea456f3ada289b8cf19b5f80a3549354945481526001600160a01b039485169490931692a360015f5160206123b25f395f51905f5255602060405160018152f35b60405162461bcd60e51b815260206004820152601a60248201527f496e73756666696369656e7420636f6e6669726d6174696f6e730000000000006044820152606490fd5b60405162461bcd60e51b815260206004820152601760248201527f5472616e73616374696f6e206e6f742070656e64696e670000000000000000006044820152606490fd5b6001915014846118d2565b3461023b57602036600319011261023b5760406001600160a01b03611aac611cc1565b16805f52600b602052815f2054905f52600c602052815f205482519182526020820152f35b3461023b57602036600319011261023b5760043560015481101561023b576115db602091611cd7565b3461023b57602036600319011261023b57611b13611cc1565b611b1b6121ae565b6001600160a01b03165f8181526002602052604090205460ff1615611c8d57600180541115611c48575f818152600260205260408120805460ff191690555b6001549081811015611c415782611b7082611cd7565b905460039190911b1c6001600160a01b031614611b91576001915001611b5a565b5f19820191821161090e576104d5611bab611bc393611cd7565b905460039190911b1c6001600160a01b031691611cd7565b6001548015611c2d575f1901611bd881611cd7565b81549060018060a01b039060031b1b191690556001555b600354600154809111611c24575b507f3525e22824a8a7df2c9a6029941c824cf95b6447f1e13d5128fd3826d35afe8b5f80a2005b60035581611bfd565b634e487b7160e01b5f52603160045260245ffd5b5050611bef565b60405162461bcd60e51b815260206004820152601c60248201527f4174206c65617374206f6e65207369676e6572207265717569726564000000006044820152606490fd5b60405162461bcd60e51b815260206004820152600c60248201526b2737ba10309039b4b3b732b960a11b6044820152606490fd5b600435906001600160a01b038216820361023b57565b600154811015611cef5760015f5260205f2001905f90565b634e487b7160e01b5f52603260045260245ffd5b600454811015611cef5760045f5260205f2001905f90565b8054821015611cef575f5260205f2001905f90565b9060058210156103c65752565b805180835260209291819084018484015e5f828201840152601f01601f1916010190565b90602080835192838152019201905f5b818110611d7e5750505090565b82516001600160a01b0316845260209384019390920191600101611d71565b606090600319011261023b576004356001600160a01b038116810361023b5790602435906044356001600160a01b038116810361023b5790565b9181601f8401121561023b5782359167ffffffffffffffff831161023b576020808501948460051b01011161023b57565b600754811015611cef5760075f52600960205f20910201905f90565b90600182811c92168015611e52575b6020831014611e3e57565b634e487b7160e01b5f52602260045260245ffd5b91607f1691611e33565b90601f8019910116810190811067ffffffffffffffff82111761053657604052565b9060405191825f825492611e9184611e24565b8084529360018116908115611efc5750600114611eb8575b50611eb692500383611e5c565b565b90505f9291925260205f20905f915b818310611ee0575050906020611eb6928201015f611ea9565b6020919350806001915483858901015201910190918492611ec7565b905060209250611eb694915060ff191682840152151560051b8201015f611ea9565b9190820391821161090e57565b15611f3257565b60405162461bcd60e51b8152602060048201526016602482015275125b9d985b1a59081d1c985b9cd858dd1a5bdb88125160521b6044820152606490fd5b15611f7757565b60405162461bcd60e51b8152602060048201526014602482015273496e73756666696369656e742062616c616e636560601b6044820152606490fd5b15611fba57565b60405162461bcd60e51b815260206004820152600d60248201526c24b73b30b634b2103a37b5b2b760991b6044820152606490fd5b15611ff657565b60405162461bcd60e51b81526020600482015260126024820152710416d6f756e74206d757374206265203e20360741b6044820152606490fd5b60045490600160401b821015610536576104d5826001611eb694016004556004611d1b565b9190820180921161090e57565b67ffffffffffffffff81116105365760051b60200190565b8051821015611cef5760209160051b010190565b1561209557565b60405162461bcd60e51b8152602060048201526011602482015270125b9d985b1a59081c9958da5c1a595b9d607a1b6044820152606490fd5b5f19811461090e5760010190565b9190811015611cef5760051b0190565b356001600160a01b038116810361023b5790565b60018060a01b0316806040518381527f8b14edf915845dc519f78e72ca7e1891e574a3c052b9ec3f7cd7ddabed61fa2160203392a3335f52600b60205260405f2061214b81546120ce565b9055335f52600c60205260405f20612164838254612055565b90555f5260066020528060405f20541061217e5750600190565b6040519081527faab7e854dcd54b3c46b20374b8f2ac31cb25c248144c7876aefac7fb5a39931060203392a25f90565b5f546001600160a01b031633036121c157565b63118cdaa760e01b5f523360045260245ffd5b60025f5160206123b25f395f51905f5254146121fd5760025f5160206123b25f395f51905f5255565b633ee5aeb560e01b5f5260045ffd5b335f52600260205260ff60405f2054161561222357565b60405162461bcd60e51b815260206004820152600e60248201526d139bdd08185d5d1a1bdc9a5e995960921b6044820152606490fd5b6001545f9291835b82811061226d57505050565b815f52600860205260405f2061228282611cd7565b905460039190911b1c6001600160a01b03165f908152602091909152604090205460ff166122b3575b600101612261565b936122bf6001916120ce565b9490506122ab565b916040519163a9059cbb60e01b5f5260018060a01b031660045260245260205f60448180865af19060015f5114821615612327575b604052156123075750565b635274afe760e01b5f9081526001600160a01b0391909116600452602490fd5b90600181151661233f57823b15153d151616906122fc565b503d5f823e3d90fd5b6040516323b872dd60e01b5f9081526001600160a01b039384166004529290931660245260449390935260209060648180865af19060015f5114821615612399575b6040525f606052156123075750565b90600181151661233f57823b15153d1516169061238a56fe9b779b17422d0df92223018b32b4d1fa46e071723d6817e2486d003becc55f00a264697066735822122004f934b6facdc35cb0d0baf13a6cec90c7de734a601c29a43c76ead5394debdc64736f6c63430008210033","linkReferences":{}},"methodIdentifiers":{"addSigner(address)":"eb12d61e","attemptWithdrawal(address,uint256,address)":"adb999bc","confirmWithdrawal(uint256)":"f3b38690","depositMultiple(address[],uint256[])":"797e566c","depositToken(address,uint256)":"338b5dea","emergencyPause()":"51858e27","emergencyRecoverToken(address,uint256,address)":"cfd9eb0d","executeWithdrawal(uint256)":"24f13a76","failedWithdrawalAttempts(address)":"b45a2198","getAttackSummary(address)":"24a7a725","getBalance(address)":"f8b2cb4f","getConfirmationCount(uint256)":"8b51d13f","getEthBalance()":"70ed0ada","getSignerCount()":"b715be81","getSigners()":"94cf795e","getTokenCount()":"78a89567","getTokens()":"aa6ca808","getTransaction(uint256)":"33ea3dc8","getTransactionCount()":"2e7700f0","getTreasuryComposition()":"72301f4f","hasApprovedWithdrawal(uint256,address)":"2a3f6c36","isSigner(address)":"7df73e27","multiSigEnabled()":"bc9fc39d","owner()":"8da5cb5b","proposeWithdrawal(address,uint256,address,string)":"e9301812","removeSigner(address)":"0e316ab7","renounceOwnership()":"715018a6","requiredSignatures()":"8d068043","resumeOperations()":"a6e1d016","setSpendingLimit(uint256)":"3c9607f6","setThreshold(uint256)":"960bfe04","signers(uint256)":"2079fb9a","spendingLimit()":"39d7f76e","tokenBalance(address)":"eedc966a","tokenExists(address)":"b33f78ca","tokens(uint256)":"4f64b2be","totalWithdrawalAttemptsValue(address)":"4749093c","transactions(uint256)":"9ace38c2","transferOwnership(address)":"f2fde38b","withdrawWithinLimit(address,uint256,address)":"7404ab92"},"id":86}