{"abi":[{"type":"constructor","inputs":[{"name":"_governor","type":"address","internalType":"address"}],"stateMutability":"nonpayable"},{"type":"function","name":"_createSpamProposal","inputs":[{"name":"index","type":"uint256","internalType":"uint256"}],"outputs":[{"name":"","type":"uint256","internalType":"uint256"}],"stateMutability":"nonpayable"},{"type":"function","name":"_doNothing","inputs":[],"outputs":[],"stateMutability":"pure"},{"type":"function","name":"analyzeAttackEffectiveness","inputs":[],"outputs":[{"name":"totalProposals","type":"uint256","internalType":"uint256"},{"name":"percentMalicious","type":"uint256","internalType":"uint256"},{"name":"estimatedVoterFatigue","type":"uint256","internalType":"uint256"},{"name":"detectionDifficulty","type":"uint256","internalType":"uint256"}],"stateMutability":"view"},{"type":"function","name":"executeSpamAndMaliciousAttack","inputs":[{"name":"spamCount","type":"uint256","internalType":"uint256"},{"name":"targets","type":"address[]","internalType":"address[]"},{"name":"values","type":"uint256[]","internalType":"uint256[]"},{"name":"calldatas","type":"bytes[]","internalType":"bytes[]"},{"name":"description","type":"string","internalType":"string"}],"outputs":[{"name":"spamCreated","type":"uint256","internalType":"uint256"},{"name":"maliciousPropId","type":"uint256","internalType":"uint256"}],"stateMutability":"nonpayable"},{"type":"function","name":"executeSpamAttack","inputs":[{"name":"numberOfSpamProposals","type":"uint256","internalType":"uint256"}],"outputs":[{"name":"","type":"uint256","internalType":"uint256"}],"stateMutability":"nonpayable"},{"type":"function","name":"getCostPerSpamProposal","inputs":[],"outputs":[{"name":"","type":"uint256","internalType":"uint256"}],"stateMutability":"pure"},{"type":"function","name":"getSpamProposalIds","inputs":[],"outputs":[{"name":"","type":"uint256[]","internalType":"uint256[]"}],"stateMutability":"view"},{"type":"function","name":"getSpamProposalInfo","inputs":[{"name":"proposalId","type":"uint256","internalType":"uint256"}],"outputs":[{"name":"","type":"tuple","internalType":"struct ProposalSpam.SpamProposalInfo","components":[{"name":"createdBlock","type":"uint256","internalType":"uint256"},{"name":"description","type":"string","internalType":"string"},{"name":"isMalicious","type":"bool","internalType":"bool"},{"name":"wasHidden","type":"bool","internalType":"bool"}]}],"stateMutability":"view"},{"type":"function","name":"governor","inputs":[],"outputs":[{"name":"","type":"address","internalType":"address"}],"stateMutability":"view"},{"type":"function","name":"hideMaliciousProposalInSpam","inputs":[{"name":"targets","type":"address[]","internalType":"address[]"},{"name":"values","type":"uint256[]","internalType":"uint256[]"},{"name":"calldatas","type":"bytes[]","internalType":"bytes[]"},{"name":"description","type":"string","internalType":"string"}],"outputs":[{"name":"","type":"uint256","internalType":"uint256"}],"stateMutability":"nonpayable"},{"type":"function","name":"maliciousProposalCount","inputs":[],"outputs":[{"name":"","type":"uint256","internalType":"uint256"}],"stateMutability":"view"},{"type":"function","name":"maliciousProposalId","inputs":[],"outputs":[{"name":"","type":"uint256","internalType":"uint256"}],"stateMutability":"view"},{"type":"function","name":"maliciousProposalPassed","inputs":[],"outputs":[{"name":"","type":"bool","internalType":"bool"}],"stateMutability":"view"},{"type":"function","name":"spamProposalIds","inputs":[{"name":"","type":"uint256","internalType":"uint256"}],"outputs":[{"name":"","type":"uint256","internalType":"uint256"}],"stateMutability":"view"},{"type":"function","name":"spamProposals","inputs":[{"name":"","type":"uint256","internalType":"uint256"}],"outputs":[{"name":"createdBlock","type":"uint256","internalType":"uint256"},{"name":"description","type":"string","internalType":"string"},{"name":"isMalicious","type":"bool","internalType":"bool"},{"name":"wasHidden","type":"bool","internalType":"bool"}],"stateMutability":"view"},{"type":"function","name":"spammer","inputs":[],"outputs":[{"name":"","type":"address","internalType":"address"}],"stateMutability":"view"},{"type":"function","name":"totalSpamProposals","inputs":[],"outputs":[{"name":"","type":"uint256","internalType":"uint256"}],"stateMutability":"view"},{"type":"function","name":"voteForMaliciousProposal","inputs":[],"outputs":[{"name":"","type":"bool","internalType":"bool"}],"stateMutability":"nonpayable"},{"type":"event","name":"EstimatedVoterFatigue","inputs":[{"name":"proposalCount","type":"uint256","indexed":false,"internalType":"uint256"},{"name":"estimatedParticipationDrop","type":"uint256","indexed":false,"internalType":"uint256"}],"anonymous":false},{"type":"event","name":"MaliciousProposalDetected","inputs":[{"name":"proposalId","type":"uint256","indexed":true,"internalType":"uint256"}],"anonymous":false},{"type":"event","name":"MaliciousProposalHidden","inputs":[{"name":"proposalId","type":"uint256","indexed":true,"internalType":"uint256"},{"name":"totalSpam","type":"uint256","indexed":false,"internalType":"uint256"}],"anonymous":false},{"type":"event","name":"SpamProposalCreated","inputs":[{"name":"proposalId","type":"uint256","indexed":true,"internalType":"uint256"},{"name":"description","type":"string","indexed":false,"internalType":"string"}],"anonymous":false},{"type":"event","name":"VoteCastedOnSpam","inputs":[{"name":"proposalId","type":"uint256","indexed":true,"internalType":"uint256"}],"anonymous":false}],"bytecode":{"object":"0x60803460ac57601f611a2538819003918201601f19168301916001600160401b0383118484101760b05780849260209460405283398101031260ac57516001600160a01b0381169081900360ac5780156074575f80546001600160a01b03191691909117905560405161196090816100c58239f35b60405162461bcd60e51b815260206004820152601060248201526f24b73b30b634b21033b7bb32b93737b960811b6044820152606490fd5b5f80fd5b634e487b7160e01b5f52604160045260245ffdfe6080806040526004361015610012575f80fd5b5f3560e01c9081630c340a2414610bd957508063230de41b14610bb757806325fb64ec146108125780633903f19f1461064f57806353003063146105e55780635b24ae731461043b5780635dcfc58c146103cd578063657e42a5146103b057806381d9bcdd14610393578063865ad30b146103815780639896c1241461035d5780639e33d6eb14610340578063a2df1aa11461031a578063a871c15b1461028e578063c782b46014610274578063dbdeb76b1461024c578063e05a5c97146101a35763fdcb5c49146100e2575f80fd5b3461019f57602036600319011261019f575f606060405161010281610bfb565b82815281602082015282604082015201526004355f52600760205260405f2060405161012d81610bfb565b81548152600261013f60018401610e4f565b92602083019384520154604082019060ff81161515825260ff606084019160081c161515815261018a60405194859460208652516020860152516080604086015260a0850190610eef565b91511515606084015251151560808301520390f35b5f80fd5b3461019f575f36600319011261019f57600654801590816102465760045460648102908082046064149015171561023257816101de9161181f565b60328202828104603214841715610232576127108302938385046127101417156102325760018301938484116102325760809461021a9161181f565b91604051938452602084015260408301526060820152f35b634e487b7160e01b5f52601160045260245ffd5b5f6101de565b3461019f575f36600319011261019f576001546040516001600160a01b039091168152602090f35b3461019f575f36600319011261019f5760206040515f8152f35b3461019f575f36600319011261019f5760405180602060065491828152019060065f527ff652222313e28459528d920b65115c16c04f3efc82aaedc97be59f3f377c0d3f905f5b81811061030457610300856102ec81870382610c16565b604051918291602083526020830190610f13565b0390f35b82548452602090930192600192830192016102d5565b3461019f57602036600319011261019f57602061033860043561114a565b604051908152f35b3461019f575f36600319011261019f576020600354604051908152f35b3461019f575f36600319011261019f576020610377611065565b6040519015158152f35b3461019f575f36600319011261019f57005b3461019f575f36600319011261019f576020600454604051908152f35b3461019f575f36600319011261019f576020600254604051908152f35b3461019f57602036600319011261019f5760043560065481101561019f576006548110156104275760065f527ff652222313e28459528d920b65115c16c04f3efc82aaedc97be59f3f377c0d3f0154604051908152602090f35b634e487b7160e01b5f52603260045260245ffd5b3461019f57602036600319011261019f5760043580156105945760c8811161054057600180546001600160a01b031916331790555f90815b8181106104cb578280600255601e810290808204601e1481151715610232577fd3f9de33170f0c134717b0a6c2df80a14e27dddec0b5e7f88113dcf275bee07e604060209381519084825285820152a1604051908152f35b60405163a2df1aa160e01b8152600481018290526020816024815f305af19081610512575b506104fe575b600101610473565b9161050a600191611057565b9290506104f6565b6020813d8211610538575b8161052a60209383610c16565b8101031261019f57516104f0565b3d915061051d565b60405162461bcd60e51b815260206004820152602660248201527f4c696d6974207370616d2070726f706f73616c7320746f2032303020666f722060448201526573616665747960d01b6064820152608490fd5b60405162461bcd60e51b8152602060048201526024808201527f4d75737420637265617465206174206c656173742031207370616d2070726f706044820152631bdcd85b60e21b6064820152608490fd5b3461019f57602036600319011261019f576004355f52600760205260405f208054600261061460018401610e4f565b92015460ff6106356040519485948552608060208601526080850190610eef565b918181161515604085015260081c16151560608301520390f35b3461019f5760a036600319011261019f576004356024356001600160401b03811161019f57610682903690600401610c4e565b6044356001600160401b03811161019f576106a1903690600401610cbc565b916064356001600160401b03811161019f576106c1903690600401610d6a565b926084356001600160401b03811161019f576106e1903690600401610df9565b9282156107cd5760405192635b24ae7360e01b845260048401526020836024815f305af192831561078c575f93610797575b5061073660209394604051968794859463097ed93b60e21b865260048601610f46565b03815f305af1801561078c575f90610759575b6040809350519182526020820152f35b506020823d602011610784575b8161077360209383610c16565b8101031261019f5760409151610749565b3d9150610766565b6040513d5f823e3d90fd5b92506020833d6020116107c5575b816107b260209383610c16565b8101031261019f57915191610736610713565b3d91506107a5565b60405162461bcd60e51b815260206004820152601b60248201527f4d75737420637265617465206174206c656173742031207370616d00000000006044820152606490fd5b3461019f57608036600319011261019f576004356001600160401b03811161019f57610842903690600401610c4e565b6024356001600160401b03811161019f57610861903690600401610cbc565b906044356001600160401b03811161019f57610881903690600401610d6a565b916064356001600160401b03811161019f576108a1903690600401610df9565b6001549093906001600160a01b03163303610b725760065415610b345783926020925f60018060a01b03815416926108ef60405197889687958694633eaf40f160e11b865260048601610f46565b03925af190811561078c575f91610b02575b508060035561090f81611009565b60405161091b81610bfb565b43815260208101928352604081019060018252606081019060018252835f52600760205260405f20905181556001810194519485516001600160401b038111610aee576109688254610e17565b96601f8811610a9f575b602097508790601f8311600114610a39576002949392915f9183610a2e575b50508160011b915f199060031b1c19161790555b01915115159060ff61ff0084549251151560081b1692169061ffff1916171790556109d1600454611057565b600455807fc32fbe7bc32d2302f28160253103fff1bd2796da10faf5c1f2133d58ebc2657883600654604051908152a260405190807fd40bd69bbc650b385d3aab3ebb223eea5bff00ae4b357f03cedea8e60c13a39b5f80a28152f35b015190508980610991565b90601f19831691845f52815f20925f5b818110610a88575091600193918560029897969410610a70575b505050811b0190556109a5565b01515f1960f88460031b161c19169055898080610a63565b92938b600181928786015181550195019301610a49565b8188111561097257825f5260205f20601f830160051c9060208410610ae6575b810198601f0160051c035f5b818110610ad9575050610972565b5f8a820155600101610acb565b5f9150610abf565b634e487b7160e01b5f52604160045260245ffd5b90506020813d602011610b2c575b81610b1d60209383610c16565b8101031261019f575182610901565b3d9150610b10565b60405162461bcd60e51b8152602060048201526016602482015275135d5cdd0818dc99585d19481cdc185b48199a5c9cdd60521b6044820152606490fd5b60405162461bcd60e51b815260206004820152601f60248201527f4f6e6c79207370616d6d65722063616e20686964652070726f706f73616c73006044820152606490fd5b3461019f575f36600319011261019f57602060ff600554166040519015158152f35b3461019f575f36600319011261019f575f546001600160a01b03168152602090f35b608081019081106001600160401b03821117610aee57604052565b90601f801991011681019081106001600160401b03821117610aee57604052565b6001600160401b038111610aee5760051b60200190565b9080601f8301121561019f57813590610c6682610c37565b92610c746040519485610c16565b82845260208085019360051b82010191821161019f57602001915b818310610c9c5750505090565b82356001600160a01b038116810361019f57815260209283019201610c8f565b9080601f8301121561019f578135610cd381610c37565b92610ce16040519485610c16565b81845260208085019260051b82010192831161019f57602001905b828210610d095750505090565b8135815260209182019101610cfc565b6001600160401b038111610aee57601f01601f191660200190565b929192610d4082610d19565b91610d4e6040519384610c16565b82948184528183011161019f578281602093845f960137010152565b81601f8201121561019f57803590610d8182610c37565b92610d8f6040519485610c16565b82845260208085019360051b8301019181831161019f5760208101935b838510610dbb57505050505090565b84356001600160401b03811161019f57820183603f8201121561019f57602091610dee8583604086809601359101610d34565b815201940193610dac565b9080601f8301121561019f57816020610e1493359101610d34565b90565b90600182811c92168015610e45575b6020831014610e3157565b634e487b7160e01b5f52602260045260245ffd5b91607f1691610e26565b9060405191825f825492610e6284610e17565b8084529360018116908115610ecd5750600114610e89575b50610e8792500383610c16565b565b90505f9291925260205f20905f915b818310610eb1575050906020610e87928201015f610e7a565b6020919350806001915483858901015201910190918492610e98565b905060209250610e8794915060ff191682840152151560051b8201015f610e7a565b805180835260209291819084018484015e5f828201840152601f01601f1916010190565b90602080835192838152019201905f5b818110610f305750505090565b8251845260209384019390920191600101610f23565b949391906080860191608087528151809352602060a088019201925f5b818110610fea575050610f7e92508682036020880152610f13565b938085036040820152825180865260208601906020808260051b8901019501915f905b828210610fbf5750505050610e149394506060818403910152610eef565b90919295602080610fdc600193601f198d82030186528a51610eef565b980192019201909291610fa1565b84516001600160a01b0316845260209485019490930192600101610f63565b60065468010000000000000000811015610aee57600181016006556006548110156104275760065f527ff652222313e28459528d920b65115c16c04f3efc82aaedc97be59f3f377c0d3f0155565b5f1981146102325760010190565b5f60035480156110f8575f546001600160a01b031690813b1561019f575f91604483926040519485938492630acf027160e31b84526004840152600160248401525af190816110e3575b506110b75790565b7fee3ba2c7d20eeee0d20cc743e9fcbc9331c94b5ee20535d781b60d335c17ec6e6003549180a2600190565b6110f09192505f90610c16565b5f905f6110af565b60405162461bcd60e51b815260206004820152601d60248201527f4e6f206d616c6963696f75732070726f706f73616c20637265617465640000006044820152606490fd5b8051156104275760200190565b903033036117e5576040908151926111628385610c16565b60018452601f198301803660208701373061117c8661113d565b5283519061118a8583610c16565b60018252803660208401375f61119f8361113d565b528451906111ad8683610c16565b600182525f5b8181106117d4575050845163865ad30b60e01b6020820152600481526111da602482610c16565b6111e38261113d565b526111ed8161113d565b5084519061014082018281106001600160401b03821117610aee57865260609686516112198982610c16565b602681527f50524f504f53414c3a2052657669657720676f7665726e616e636520706172616020820152656d657465727360d01b888201528352865161125f8982610c16565b602381527f50524f504f53414c3a20436f6d6d756e69747920666565646261636b2073757260208201526276657960e81b88820152602084015286516112a58882610c16565b601e81527f50524f504f53414c3a2055706461746520646f63756d656e746174696f6e000060208201528784015286516112df8882610c16565b601c81527f50524f504f53414c3a204469736375737320746f6b656e6f6d6963730000000060208201528884015286516113198982610c16565b602881527f50524f504f53414c3a20476f7665726e616e63652070726f6365737320696d706020820152671c9bdd995b595b9d60c21b88820152608084015286516113648982610c16565b602981527f50524f504f53414c3a20547265617375727920726562616c616e63696e67206460208201526834b9b1bab9b9b4b7b760b91b8882015260a084015286516113b08982610c16565b602981527f50524f504f53414c3a20436f6d6d756e697479206d696c6573746f6e652063656020820152683632b13930ba34b7b760b91b8882015260c084015286516113fc8982610c16565b602381527f50524f504f53414c3a205365637572697479206175646974207363686564756c602082015262696e6760e81b8882015260e084015286516114428982610c16565b602481527f50524f504f53414c3a20446576656c6f706572206772616e742064697363757360208201526339b4b7b760e11b88820152610100840152865161148a8982610c16565b602881527f50524f504f53414c3a2045636f73797374656d20706172746e657273686970206020820152671c1c9bdc1bdcd85b60c21b88820152610120840152600a850693600a8510156104275761153360026114f160209796889760051b01519861184e565b9786808c519a8b9a848c9551918291018487015e84019061202360f01b83830152805192839101602283015e01015f838201520301601f198101875286610c16565b5f60018060a01b038154169261155e8a5198899687958694633eaf40f160e11b865260048601610f46565b03925af15f92816117a0575b506115b357835162461bcd60e51b815260206004820152601e60248201527f4661696c656420746f20637265617465207370616d2070726f706f73616c00006044820152606490fd5b9091926115bf83611009565b8051946115cb86610bfb565b4386526020860195838752828101915f835281019060018252855f526007602052835f20905181556001810197519788516001600160401b038111610aee576116148254610e17565b99601f8b11611751575b88999a50602090601f83116001146116bf5792826002937ffc84d78d75c4c16929b5f08e319275bc6caf969a433da3c2f4c3116d725ecab39a9896936116ae9a98965f926116b4575b50508160011b915f199060031b1c19161790555b01915115159060ff61ff0084549251151560081b1692169061ffff19161717905551918291602083526020830190610eef565b0390a290565b015190505f80611667565b90601f19831691845f52815f20925f5b8181106117365750937ffc84d78d75c4c16929b5f08e319275bc6caf969a433da3c2f4c3116d725ecab39a9896936116ae9a989693600193836002981061171e575b505050811b01905561167b565b01515f1960f88460031b161c191690555f8080611711565b8284015185558d9c50600190940193602093840193016116cf565b818b111561161e57825f5260205f20601f830160051c9060208410611798575b81019b601f0160051c035f5b81811061178b57505061161e565b5f8d82015560010161177d565b5f9150611771565b9092506020813d6020116117cc575b816117bc60209383610c16565b8101031261019f5751915f61156a565b3d91506117af565b8060606020809386010152016111b3565b60405162461bcd60e51b815260206004820152601260248201527113db9b1e481a5b9d195c9b985b0818d85b1b60721b6044820152606490fd5b8115611829570490565b634e487b7160e01b5f52601260045260245ffd5b908151811015610427570160200190565b801561190a575f81805b6118f6575061186681610d19565b916118746040519384610c16565b818352601f1961188383610d19565b01366020850137806040519261189a604085610c16565b600a8452693031323334353637383960b01b6020850152905b6118bd5750505090565b8015610232575f190190600a906001600160f81b03196118df8383068661183d565b51165f1a6118ed848761183d565b530490816118b3565b90611902600a91611057565b910480611858565b50604051611919604082610c16565b60018152600360fc1b60208201529056fea26469706673582212201abe4f4f012eb74c8b1230e2d3c70c8336709f13c352800a7e9816ddfab5d15a64736f6c63430008210033","linkReferences":{}},"methodIdentifiers":{"_createSpamProposal(uint256)":"a2df1aa1","_doNothing()":"865ad30b","analyzeAttackEffectiveness()":"e05a5c97","executeSpamAndMaliciousAttack(uint256,address[],uint256[],bytes[],string)":"3903f19f","executeSpamAttack(uint256)":"5b24ae73","getCostPerSpamProposal()":"c782b460","getSpamProposalIds()":"a871c15b","getSpamProposalInfo(uint256)":"fdcb5c49","governor()":"0c340a24","hideMaliciousProposalInSpam(address[],uint256[],bytes[],string)":"25fb64ec","maliciousProposalCount()":"81d9bcdd","maliciousProposalId()":"9e33d6eb","maliciousProposalPassed()":"230de41b","spamProposalIds(uint256)":"5dcfc58c","spamProposals(uint256)":"53003063","spammer()":"dbdeb76b","totalSpamProposals()":"657e42a5","voteForMaliciousProposal()":"9896c124"},"id":73}