{"abi":[{"type":"constructor","inputs":[{"name":"_governanceToken","type":"address","internalType":"address"},{"name":"_governor","type":"address","internalType":"address"},{"name":"_targetTreasury","type":"address","internalType":"address"}],"stateMutability":"nonpayable"},{"type":"function","name":"analyzeQuorumBypass","inputs":[{"name":"fixedQuorumBasisPoints","type":"uint256","internalType":"uint256"},{"name":"totalVotingPower","type":"uint256","internalType":"uint256"},{"name":"attackVotingPower","type":"uint256","internalType":"uint256"}],"outputs":[{"name":"requiredQuorum","type":"uint256","internalType":"uint256"},{"name":"canBypassQuorum","type":"bool","internalType":"bool"},{"name":"minimumParticipation","type":"uint256","internalType":"uint256"}],"stateMutability":"pure"},{"type":"function","name":"attackSucceeded","inputs":[],"outputs":[{"name":"","type":"bool","internalType":"bool"}],"stateMutability":"view"},{"type":"function","name":"attacker","inputs":[],"outputs":[{"name":"","type":"address","internalType":"address"}],"stateMutability":"view"},{"type":"function","name":"calculateVulnerabilityScore","inputs":[{"name":"participationRate","type":"uint256","internalType":"uint256"},{"name":"quorumRequirement","type":"uint256","internalType":"uint256"}],"outputs":[{"name":"vulnerabilityScore","type":"uint256","internalType":"uint256"}],"stateMutability":"pure"},{"type":"function","name":"executeSybilAttack","inputs":[{"name":"numberOfSybilAccounts","type":"uint256","internalType":"uint256"},{"name":"tokenPerAccount","type":"uint256","internalType":"uint256"},{"name":"treasuryDrainAmount","type":"uint256","internalType":"uint256"}],"outputs":[{"name":"proposalId","type":"uint256","internalType":"uint256"}],"stateMutability":"nonpayable"},{"type":"function","name":"executeTimingAttack","inputs":[{"name":"treasuryDrainAmount","type":"uint256","internalType":"uint256"},{"name":"estimatedParticipation","type":"uint256","internalType":"uint256"}],"outputs":[{"name":"","type":"uint256","internalType":"uint256"}],"stateMutability":"nonpayable"},{"type":"function","name":"fixedQuorumRequirement","inputs":[],"outputs":[{"name":"","type":"uint256","internalType":"uint256"}],"stateMutability":"view"},{"type":"function","name":"getBypassAmount","inputs":[],"outputs":[{"name":"","type":"uint256","internalType":"uint256"}],"stateMutability":"view"},{"type":"function","name":"getParticipationDiscountEffect","inputs":[{"name":"fixedQuorumBasisPoints","type":"uint256","internalType":"uint256"},{"name":"calculatedParticipation","type":"uint256","internalType":"uint256"}],"outputs":[{"name":"voteEfficiency","type":"uint256","internalType":"uint256"}],"stateMutability":"pure"},{"type":"function","name":"getSimulatedDayOfWeek","inputs":[],"outputs":[{"name":"","type":"uint256","internalType":"uint256"}],"stateMutability":"view"},{"type":"function","name":"getSimulatedTimeOfDay","inputs":[],"outputs":[{"name":"","type":"uint256","internalType":"uint256"}],"stateMutability":"view"},{"type":"function","name":"getSybilAccountCount","inputs":[],"outputs":[{"name":"","type":"uint256","internalType":"uint256"}],"stateMutability":"view"},{"type":"function","name":"getSybilAccounts","inputs":[],"outputs":[{"name":"","type":"address[]","internalType":"address[]"}],"stateMutability":"view"},{"type":"function","name":"governanceToken","inputs":[],"outputs":[{"name":"","type":"address","internalType":"address"}],"stateMutability":"view"},{"type":"function","name":"governor","inputs":[],"outputs":[{"name":"","type":"address","internalType":"address"}],"stateMutability":"view"},{"type":"function","name":"isSybilAccount","inputs":[{"name":"","type":"address","internalType":"address"}],"outputs":[{"name":"","type":"bool","internalType":"bool"}],"stateMutability":"view"},{"type":"function","name":"maliciousProposalId","inputs":[],"outputs":[{"name":"","type":"uint256","internalType":"uint256"}],"stateMutability":"view"},{"type":"function","name":"quorumBypassAmount","inputs":[],"outputs":[{"name":"","type":"uint256","internalType":"uint256"}],"stateMutability":"view"},{"type":"function","name":"simulatedParticipationRate","inputs":[],"outputs":[{"name":"","type":"uint256","internalType":"uint256"}],"stateMutability":"view"},{"type":"function","name":"sybilAccounts","inputs":[{"name":"","type":"uint256","internalType":"uint256"}],"outputs":[{"name":"","type":"address","internalType":"address"}],"stateMutability":"view"},{"type":"function","name":"targetTreasury","inputs":[],"outputs":[{"name":"","type":"address","internalType":"address"}],"stateMutability":"view"},{"type":"function","name":"wasAttackSuccessful","inputs":[],"outputs":[{"name":"","type":"bool","internalType":"bool"}],"stateMutability":"view"},{"type":"event","name":"AttackSucceeded","inputs":[{"name":"proposalId","type":"uint256","indexed":true,"internalType":"uint256"},{"name":"reason","type":"string","indexed":false,"internalType":"string"}],"anonymous":false},{"type":"event","name":"LowParticipationWindowIdentified","inputs":[{"name":"timeOfDay","type":"uint256","indexed":false,"internalType":"uint256"},{"name":"estimatedParticipation","type":"uint256","indexed":false,"internalType":"uint256"}],"anonymous":false},{"type":"event","name":"ProposalCreatedInLowParticipation","inputs":[{"name":"proposalId","type":"uint256","indexed":true,"internalType":"uint256"},{"name":"participation","type":"uint256","indexed":false,"internalType":"uint256"}],"anonymous":false},{"type":"event","name":"QuorumManipulated","inputs":[{"name":"proposalId","type":"uint256","indexed":false,"internalType":"uint256"},{"name":"participationRate","type":"uint256","indexed":false,"internalType":"uint256"}],"anonymous":false},{"type":"event","name":"SybilAccountCreated","inputs":[{"name":"account","type":"address","indexed":true,"internalType":"address"},{"name":"accountNumber","type":"uint256","indexed":false,"internalType":"uint256"}],"anonymous":false},{"type":"event","name":"SybilAttackLaunched","inputs":[{"name":"numberOfAccounts","type":"uint256","indexed":false,"internalType":"uint256"},{"name":"totalVotingPower","type":"uint256","indexed":false,"internalType":"uint256"}],"anonymous":false}],"bytecode":{"object":"0x60803461017357601f6111db38819003918201601f19168301916001600160401b0383118484101761017757808492606094604052833981010312610173576100478161018b565b61005f60406100586020850161018b565b930161018b565b6001600160a01b0390911691821561013e576001600160a01b0316908115610106576001600160a01b03169182156100ce5760018060a01b03195f5416175f5560018060a01b0319600154161760015560018060a01b0319600354161760035560405161103b90816101a08239f35b60405162461bcd60e51b815260206004820152601060248201526f496e76616c696420747265617375727960801b6044820152606490fd5b60405162461bcd60e51b815260206004820152601060248201526f24b73b30b634b21033b7bb32b93737b960811b6044820152606490fd5b60405162461bcd60e51b815260206004820152600d60248201526c24b73b30b634b2103a37b5b2b760991b6044820152606490fd5b5f80fd5b634e487b7160e01b5f52604160045260245ffd5b51906001600160a01b03821682036101735756fe6080806040526004361015610012575f80fd5b5f905f3560e01c9081630c340a24146109ad5750806316bc6e291461098b57806348eb76ee146109635780636b7d4284146109465780636ee18cf71461092d578063720aeaec14610898578063787c7e0f1461041e5780637a868222146103fc5780637eb9c6ed146103e25780637eeef1de1461039c5780638833dc27146103795780639e33d6eb1461035b578063b40f7c181461033d578063c045e242146102b6578063d237d2fc1461031f578063d35e1a77146102fd578063e6420eb9146102d4578063e776cfed146102b6578063f0eeba2f146101c2578063f96dae0a1461019b578063fb75722d146101565763ff8bf7ba14610110575f80fd5b34610153576020366003190112610153576004359060045482101561015357602061013a83610a3c565b905460405160039290921b1c6001600160a01b03168152f35b80fd5b5034610153578060031936011261015357620151804204906004820180921161018757602082600760405191068152f35b634e487b7160e01b81526011600452602490fd5b5034610153578060031936011261015357546040516001600160a01b039091168152602090f35b5034610153576101d136610a22565b9190801561027157612710821161023b57612710916101ef91610a68565b04816102135760609250612711905b60405192818452101560208301526040820152f35b6127108102928184046127101482151715610187575061023582606094610a8f565b906101fe565b60405162461bcd60e51b815260206004820152600e60248201526d496e76616c69642071756f72756d60901b6044820152606490fd5b60405162461bcd60e51b815260206004820152601a60248201527f496e76616c696420746f74616c20766f74696e6720706f7765720000000000006044820152606490fd5b50346101535780600319360112610153576020600a54604051908152f35b50346101535780600319360112610153576003546040516001600160a01b039091168152602090f35b5034610153576020610317610311366109d0565b90610fda565b604051908152f35b50346101535780600319360112610153576020600754604051908152f35b50346101535780600319360112610153576020600654604051908152f35b50346101535780600319360112610153576020600854604051908152f35b5034610153578060031936011261015357602060ff600954166040519015158152f35b5034610153576020366003190112610153576004356001600160a01b038116908190036103de5760408260ff9260209452600584522054166040519015158152f35b5080fd5b50346101535760206103176103f6366109d0565b90610c55565b503461015357806003193601126101535760206040516018610e104204068152f35b346106d35761042c36610a22565b91908115610847576103e8821161080257336bffffffffffffffffffffffff60a01b60025416176002555f3360601b905b83811061071557847ffcb45e7811e1f6002395fc01257c411c7328aec43ddc14a393c1a0eace9f8ebd6040866104938782610a68565b82519182526020820152a160408051906104ad8183610b0f565b600182526020601f198201928336838301376003546001600160a01b03166104d482610b31565b528251936104e28486610b0f565b6001855236838601375f6104f585610b31565b526104fe610b3e565b600254845163095ea7b360e01b858201526001600160a01b0390911660248201526044810187905290919061054081606481015b03601f198101835282610b0f565b61054983610b31565b5261055382610b31565b50835194610562606087610b0f565b602c86527f50524f504f53414c3a20537962696c2d6261636b656420547265617375727920848701526b2932b0b63637b1b0ba34b7b760a11b858701525f60018060a01b0360015416926105cb875198899687958694633eaf40f160e11b865260048601610b9c565b03925af191821561070b575f926106d7575b5060088290556001546001600160a01b0316925f843b156106d3576020945f84518092630acf027160e31b82528183818a60018d600484018d8101938152015203925af190816106c3575b506106bb575b61063a575b5051908152f35b600160ff196009541617600955600a55817fa72c94b86280123ada0d510398e065bcfde28fe1abd251a5d62f00d9a18d348c60808351868152602d878201527f537962696c2061747461636b207375636365656465642077697468206d756c74858201526c69706c65206163636f756e747360981b6060820152a283610633565b50600161062e565b5f6106cd91610b0f565b5f610628565b5f80fd5b9091506020813d602011610703575b816106f360209383610b0f565b810103126106d3575190836105dd565b3d91506106e6565b50513d5f823e3d90fd5b604051602081014281528360408301528260548301526054825261073a607483610b0f565b905190206001600160a01b03165f8181526005602052604090205490919060ff161561076b575b600191500161045d565b60045491680100000000000000008310156107ee57610791836001809501600455610a3c565b81549060031b9083821b91868060a01b03901b1916179055805f52600560205260405f208360ff198254161790557fc7e9ef8e23883087fd16d4eb9a82367b1078b1f397d9cd11250937897821c9466020604051848152a2610761565b634e487b7160e01b5f52604160045260245ffd5b60405162461bcd60e51b815260206004820152601e60248201527f537962696c206c696d697420746f203130303020666f722073616665747900006044820152606490fd5b60405162461bcd60e51b8152602060048201526024808201527f4d75737420637265617465206174206c65617374203120737962696c206163636044820152631bdd5b9d60e21b6064820152608490fd5b346106d3575f3660031901126106d35760405180602060045491828152019060045f527f8a35acfbc15ff81a39ae7d344fd709f28e8600b4aa8c65c6b64bfe7fe36bd19b905f5b81811061090e5761090a856108f681870382610b0f565b6040519182916020835260208301906109e6565b0390f35b82546001600160a01b03168452602090930192600192830192016108df565b346106d3576020610317610940366109d0565b90610aad565b346106d3575f3660031901126106d3576020600454604051908152f35b346106d3575f3660031901126106d3576002546040516001600160a01b039091168152602090f35b346106d3575f3660031901126106d357602060ff600954166040519015158152f35b346106d3575f3660031901126106d3576001546001600160a01b03168152602090f35b60409060031901126106d3576004359060243590565b90602080835192838152019201905f5b818110610a035750505090565b82516001600160a01b03168452602093840193909201916001016109f6565b60609060031901126106d357600435906024359060443590565b600454811015610a545760045f5260205f2001905f90565b634e487b7160e01b5f52603260045260245ffd5b81810292918115918404141715610a7b57565b634e487b7160e01b5f52601160045260245ffd5b8115610a99570490565b634e487b7160e01b5f52601260045260245ffd5b908015610b075780821015610aea576127108202918083046127101490151715610a7b57610ada91610a8f565b612710036127108111610a7b5790565b90612710820291820461271003610a7b57610b0491610a8f565b90565b505061271090565b90601f8019910116810190811067ffffffffffffffff8211176107ee57604052565b805115610a545760200190565b60408051909190610b4f8382610b0f565b6001815291601f1901825f5b828110610b6757505050565b806060602080938501015201610b5b565b805180835260209291819084018484015e5f828201840152601f01601f1916010190565b90610bb390959492956080835260808301906109e6565b8181036020830152602080875192838152019601905f5b818110610c3f575050508085036040820152825180865260208601906020808260051b8901019501915f905b828210610c145750505050610b049394506060818403910152610b78565b90919295602080610c31600193601f198d82030186528a51610b78565b980192019201909291610bf6565b8251885260209788019790920191600101610bca565b905f918015610f9e576127108211610f6157336bffffffffffffffffffffffff60a01b6002541617600255816006557f548726f30e5dfce6cc7a381ed6eb43b8fc60d3921361a829e54e266144ba5a2a604080516201518042068152846020820152a1604090815192610cc88385610b0f565b600184526020601f198401948536838301376003546001600160a01b0316610cef82610b31565b52845195610cfd8688610b0f565b6001875236838801375f610d1087610b31565b52610d19610b3e565b855163f3fef3a360e01b8482015233602482015260448101869052909190610d448160648101610532565b610d4d83610b31565b52610d5782610b31565b50855196610d66606089610b0f565b603e88527f50524f504f53414c3a20456d657267656e637920547265617375727920416363848901527f657373202d204c6f772050617274696369706174696f6e2057696e646f770000878901525f60018060a01b036001541692610de089519a8b9687958694633eaf40f160e11b865260048601610b9c565b03925af1938415610f57575f94610f03575b507f3f293854bf59de34b22f8758261ef884bd09a8c02c8fefc7a111581ee38306ec60208592836008558551908152a26001546001600160a01b0316803b156106d3575f83518092630acf027160e31b825281838160048101600160208b8301928d8152015203925af19081610eee575b50610e6e5750505090565b8293507fa72c94b86280123ada0d510398e065bcfde28fe1abd251a5d62f00d9a18d348c91608091600160ff196009541617600955600a557f4c6f772070617274696369706174696f6e2074696d696e672061747461636b208151916020835260296020840152820152681cdd58d8d95959195960ba1b6060820152a290565b610efb9195505f90610b0f565b5f935f610e63565b93506020843d602011610f4f575b81610f1e60209383610b0f565b810103126106d3579251927f3f293854bf59de34b22f8758261ef884bd09a8c02c8fefc7a111581ee38306ec610df2565b3d9150610f11565b83513d5f823e3d90fd5b60405162461bcd60e51b815260206004820152601560248201527424b73b30b634b2103830b93a34b1b4b830ba34b7b760591b6044820152606490fd5b60405162461bcd60e51b8152602060048201526014602482015273125b9d985b1a5908191c985a5b88185b5bdd5b9d60621b6044820152606490fd5b908015610fff576127108202918083046127101490151715610a7b57610b0491610a8f565b50505f9056fea2646970667358221220aade47eaa952ae03097d1c6572e100abd2c028bf7f08c8edb0553a415c021ba264736f6c63430008210033","linkReferences":{}},"methodIdentifiers":{"analyzeQuorumBypass(uint256,uint256,uint256)":"f0eeba2f","attackSucceeded()":"8833dc27","attacker()":"48eb76ee","calculateVulnerabilityScore(uint256,uint256)":"6ee18cf7","executeSybilAttack(uint256,uint256,uint256)":"787c7e0f","executeTimingAttack(uint256,uint256)":"7eb9c6ed","fixedQuorumRequirement()":"d237d2fc","getBypassAmount()":"c045e242","getParticipationDiscountEffect(uint256,uint256)":"d35e1a77","getSimulatedDayOfWeek()":"fb75722d","getSimulatedTimeOfDay()":"7a868222","getSybilAccountCount()":"6b7d4284","getSybilAccounts()":"720aeaec","governanceToken()":"f96dae0a","governor()":"0c340a24","isSybilAccount(address)":"7eeef1de","maliciousProposalId()":"9e33d6eb","quorumBypassAmount()":"e776cfed","simulatedParticipationRate()":"b40f7c18","sybilAccounts(uint256)":"ff8bf7ba","targetTreasury()":"e6420eb9","wasAttackSuccessful()":"16bc6e29"},"id":74}