{"abi":[{"type":"constructor","inputs":[{"name":"_governanceToken","type":"address","internalType":"address"},{"name":"_governor","type":"address","internalType":"address"},{"name":"_targetTreasury","type":"address","internalType":"address"}],"stateMutability":"nonpayable"},{"type":"function","name":"_performWhaleAttack","inputs":[{"name":"whale","type":"address","internalType":"address"},{"name":"treasuryDrainAmount","type":"uint256","internalType":"uint256"}],"outputs":[{"name":"","type":"bool","internalType":"bool"}],"stateMutability":"nonpayable"},{"type":"function","name":"amountStolenFromTreasury","inputs":[],"outputs":[{"name":"","type":"uint256","internalType":"uint256"}],"stateMutability":"view"},{"type":"function","name":"attackSucceeded","inputs":[],"outputs":[{"name":"","type":"bool","internalType":"bool"}],"stateMutability":"view"},{"type":"function","name":"createWhaleProposal","inputs":[{"name":"whale","type":"address","internalType":"address"},{"name":"treasuryDrainAmount","type":"uint256","internalType":"uint256"}],"outputs":[{"name":"proposalId","type":"uint256","internalType":"uint256"}],"stateMutability":"nonpayable"},{"type":"function","name":"executeAfterWhaleVote","inputs":[{"name":"proposalId","type":"uint256","internalType":"uint256"}],"outputs":[{"name":"","type":"bool","internalType":"bool"}],"stateMutability":"nonpayable"},{"type":"function","name":"executeGradualDraining","inputs":[{"name":"whale","type":"address","internalType":"address"},{"name":"numberOfProposals","type":"uint256","internalType":"uint256"},{"name":"amountPerProposal","type":"uint256","internalType":"uint256"}],"outputs":[{"name":"totalDrained","type":"uint256","internalType":"uint256"}],"stateMutability":"nonpayable"},{"type":"function","name":"executeWhaleAttack","inputs":[{"name":"whale","type":"address","internalType":"address"},{"name":"treasuryDrainAmount","type":"uint256","internalType":"uint256"}],"outputs":[{"name":"","type":"bool","internalType":"bool"}],"stateMutability":"nonpayable"},{"type":"function","name":"getAmountStolen","inputs":[],"outputs":[{"name":"","type":"uint256","internalType":"uint256"}],"stateMutability":"view"},{"type":"function","name":"getProfitabilityRatio","inputs":[],"outputs":[{"name":"","type":"uint256","internalType":"uint256"}],"stateMutability":"view"},{"type":"function","name":"getProposalsCount","inputs":[],"outputs":[{"name":"","type":"uint256","internalType":"uint256"}],"stateMutability":"view"},{"type":"function","name":"getWhaleVotingPercentage","inputs":[],"outputs":[{"name":"","type":"uint256","internalType":"uint256"}],"stateMutability":"view"},{"type":"function","name":"governanceToken","inputs":[],"outputs":[{"name":"","type":"address","internalType":"address"}],"stateMutability":"view"},{"type":"function","name":"governor","inputs":[],"outputs":[{"name":"","type":"address","internalType":"address"}],"stateMutability":"view"},{"type":"function","name":"proposalDetails","inputs":[{"name":"","type":"uint256","internalType":"uint256"}],"outputs":[{"name":"createdAt","type":"uint256","internalType":"uint256"},{"name":"votingPower","type":"uint256","internalType":"uint256"},{"name":"targetAmount","type":"uint256","internalType":"uint256"},{"name":"executed","type":"bool","internalType":"bool"},{"name":"description","type":"string","internalType":"string"}],"stateMutability":"view"},{"type":"function","name":"submittedProposals","inputs":[{"name":"","type":"uint256","internalType":"uint256"}],"outputs":[{"name":"","type":"uint256","internalType":"uint256"}],"stateMutability":"view"},{"type":"function","name":"targetTreasury","inputs":[],"outputs":[{"name":"","type":"address","internalType":"address"}],"stateMutability":"view"},{"type":"function","name":"votingParticipationRate","inputs":[],"outputs":[{"name":"","type":"uint256","internalType":"uint256"}],"stateMutability":"view"},{"type":"function","name":"wasAttackSuccessful","inputs":[],"outputs":[{"name":"","type":"bool","internalType":"bool"}],"stateMutability":"view"},{"type":"function","name":"whaleAttacker","inputs":[],"outputs":[{"name":"","type":"address","internalType":"address"}],"stateMutability":"view"},{"type":"function","name":"whaleHoldingPercentage","inputs":[],"outputs":[{"name":"","type":"uint256","internalType":"uint256"}],"stateMutability":"view"},{"type":"event","name":"AttackFailed","inputs":[{"name":"reason","type":"string","indexed":false,"internalType":"string"}],"anonymous":false},{"type":"event","name":"ProposalPassed","inputs":[{"name":"proposalId","type":"uint256","indexed":true,"internalType":"uint256"},{"name":"participationRate","type":"uint256","indexed":false,"internalType":"uint256"}],"anonymous":false},{"type":"event","name":"ProposalSubmitted","inputs":[{"name":"proposalId","type":"uint256","indexed":true,"internalType":"uint256"},{"name":"description","type":"string","indexed":false,"internalType":"string"},{"name":"targetAmount","type":"uint256","indexed":false,"internalType":"uint256"}],"anonymous":false},{"type":"event","name":"ProposalVoted","inputs":[{"name":"proposalId","type":"uint256","indexed":true,"internalType":"uint256"},{"name":"votingWeight","type":"uint256","indexed":false,"internalType":"uint256"}],"anonymous":false},{"type":"event","name":"TreasuryDrained","inputs":[{"name":"proposalId","type":"uint256","indexed":true,"internalType":"uint256"},{"name":"amount","type":"uint256","indexed":false,"internalType":"uint256"}],"anonymous":false},{"type":"event","name":"WhaleIdentified","inputs":[{"name":"whale","type":"address","indexed":true,"internalType":"address"},{"name":"votingPower","type":"uint256","indexed":false,"internalType":"uint256"},{"name":"percentage","type":"uint256","indexed":false,"internalType":"uint256"}],"anonymous":false}],"bytecode":{"object":"0x60803461018157601f6121dd38819003918201601f19168301916001600160401b03831184841017610185578084926060946040528339810103126101815761004781610199565b61005f604061005860208501610199565b9301610199565b6001600160a01b0390911691821561014c576001600160a01b0316908115610114576001600160a01b03169182156100dc5760018060a01b03195f5416175f5560018060a01b0319600154161760015560018060a01b0319600354161760035560ff19600754166007555f60065560405161202f90816101ae8239f35b60405162461bcd60e51b815260206004820152601060248201526f496e76616c696420747265617375727960801b6044820152606490fd5b60405162461bcd60e51b815260206004820152601060248201526f24b73b30b634b21033b7bb32b93737b960811b6044820152606490fd5b60405162461bcd60e51b815260206004820152600d60248201526c24b73b30b634b2103a37b5b2b760991b6044820152606490fd5b5f80fd5b634e487b7160e01b5f52604160045260245ffd5b51906001600160a01b03821682036101815756fe60806040526004361015610011575f80fd5b5f3560e01c80630c340a241461014557806316bc6e291461012257806316e9eaec1461014057806322dc24a01461013b57806324c2c6231461012c578063388f36b814610136578063405adc9e1461011857806365e645c814610131578063744d06c81461012c57806376ede641146101275780638833dc271461012257806398e527d31461011d578063bd58b6cf14610118578063cb8a8c7c14610113578063d46575521461010e578063d715c2c314610109578063e221e24814610104578063e6420eb9146100ff578063f96dae0a146100fa5763fc041017146100f5575f80fd5b610595565b61056e565b610546565b6104f6565b6104b8565b610489565b610461565b6103d7565b610444565b610180565b610426565b610393565b6103f4565b6103b0565b610362565b6102d9565b610158565b5f91031261015457565b5f80fd5b34610154575f366003190112610154576001546040516001600160a01b039091168152602090f35b34610154575f36600319011261015457602060ff600754166040519015158152f35b90600182811c921680156101d0575b60208310146101bc57565b634e487b7160e01b5f52602260045260245ffd5b91607f16916101b1565b634e487b7160e01b5f52604160045260245ffd5b90601f8019910116810190811067ffffffffffffffff82111761021057604052565b6101da565b9060405191825f825492610228846101a2565b8084529360018116908115610293575060011461024f575b5061024d925003836101ee565b565b90505f9291925260205f20905f915b81831061027757505090602061024d928201015f610240565b602091935080600191548385890101520191019091849261025e565b90506020925061024d94915060ff191682840152151560051b8201015f610240565b805180835260209291819084018484015e5f828201840152601f01601f1916010190565b34610154576020366003190112610154576004355f52600960205260405f20805461034860018301549260028101549061031d600460ff6003840154169201610215565b916040519586958652602086015260408501521515606084015260a0608084015260a08301906102b5565b0390f35b600435906001600160a01b038216820361015457565b3461015457604036600319011261015457602061038961038061034c565b60243590610a33565b6040519015158152f35b34610154575f366003190112610154576020600454604051908152f35b346101545760403660031901126101545760206103896103ce61034c565b602435906110d5565b34610154575f366003190112610154576020600654604051908152f35b34610154575f366003190112610154576006541561041e5760206127105b61ffff60405191168152f35b60205f610412565b3461015457602036600319011261015457602061038960043561145e565b34610154575f366003190112610154576020600854604051908152f35b34610154575f366003190112610154576002546040516001600160a01b039091168152602090f35b346101545760403660031901126101545760206104b06104a761034c565b602435906116ef565b604051908152f35b346101545760603660031901126101545760206104b06104d661034c565b60243560443591611ab5565b634e487b7160e01b5f52603260045260245ffd5b34610154576020366003190112610154576004356008548110156101545760209060085f527ff3f7a9fe364faab93b216da50a3214154f22a0a2b415b23a84c8169e8b636ee30154604051908152f35b34610154575f366003190112610154576003546040516001600160a01b039091168152602090f35b34610154575f366003190112610154575f546040516001600160a01b039091168152602090f35b34610154575f366003190112610154576020600554604051908152f35b156105b957565b60405162461bcd60e51b815260206004820152601a60248201527f4f6e6c7920696e7465726e616c2063616c6c20616c6c6f7765640000000000006044820152606490fd5b6040519061024d60a0836101ee565b6040805190919061061e83826101ee565b6001815291601f1901366020840137565b80511561063c5760200190565b6104e2565b6040805190919061065283826101ee565b6001815291601f1901825f5b82811061066a57505050565b80606060208093850101520161065e565b67ffffffffffffffff811161021057601f01601f191660200190565b604051906106a66060836101ee565b604082527f696f6e202d20456d657267656e6379204465706c6f796d656e742046756e64736040837f50524f504f53414c3a205768616c6520547265617375727920416c6c6f63617460208201520152565b90816020910312610154575190565b90602080835192838152019201905f5b8181106107245750505090565b82516001600160a01b0316845260209384019390920191600101610717565b90602080835192838152019201905f5b8181106107605750505090565b8251845260209384019390920191600101610753565b9080602083519182815201916020808360051b8301019401925f915b8383106107a157505050505090565b90919293946020806107bf600193601f1986820301875289516102b5565b97019301930191939290610792565b926107fa61081695936107ec61080894608088526080880190610707565b908682036020880152610743565b908482036040860152610776565b9160608184039101526102b5565b90565b6040513d5f823e3d90fd5b60085468010000000000000000811015610210576001810160085560085481101561063c5760085f527ff3f7a9fe364faab93b216da50a3214154f22a0a2b415b23a84c8169e8b636ee30155565b919091601f8311610883575b505050565b81831161088f57505050565b5f5260205f206020601f830160051c92106108c8575b81601f9101920160051c03905f5b8281101561087e575f828201556001016108b3565b5f91506108a5565b600460809193929384518155602085015160018201556040850151600282015561090f60608601511515600383019060ff801983541691151516179055565b0192015191825167ffffffffffffffff8111610210576109398161093384546101a2565b84610872565b6020601f82116001146109785781906109699394955f9261096d575b50508160011b915f199060031b1c19161790565b9055565b015190505f80610955565b601f1982169061098b845f5260205f2090565b915f5b8181106109c5575095836001959697106109ad575b505050811b019055565b01515f1960f88460031b161c191690555f80806109a3565b9192602060018192868b01518155019401920161098e565b9291906109f46020916040865260408601906102b5565b930152565b949392610a25606093610a176109f49460808a5260808a0190610707565b9088820360208a0152610743565b908682036040880152610776565b90610a3f3033146105b2565b610a4761060d565b600354610a70906001600160a01b03165b610a618361062f565b6001600160a01b039091169052565b610a7861060d565b905f610a838361062f565b5282610ad6610a90610641565b5f54604051633a0255c960e11b60208201526001600160a01b0391821660248201526044810194909452909616606483015281608481015b03601f1981018352826101ee565b610adf8561062f565b52610ae98461062f565b50610af2610697565b93610b01856020815191012090565b600154909390610b2790610b1b906001600160a01b031681565b6001600160a01b031690565b9560206040518098633eaf40f160e11b8252815f81610b4c878a8a8d600486016107ce565b03925af1968715610df2575f97610e39575b50610b6887610824565b5f54610b7e90610b1b906001600160a01b031681565b6040516309ab24eb60e41b81523060048201529190602090839060249082905afa918215610df257889188915f94610df7575b50905f516020611fda5f395f51905f5291610bff610bcd6105fe565b4381528660208201528360408201525f6060820152826080820152610bfa865f52600960205260405f2090565b6108d0565b610c0e604051928392836109dd565b0390a2600154610c2890610b1b906001600160a01b031681565b803b1561015457604051630acf027160e31b81526004810189905260016024820152905f908290604490829084905af18015610df25788927fd9269f7270bc5664a2191e6eb8966494c9525a450c09c958895c80de0b2d926d92610c9c92610dde575b506040519081529081906020820190565b0390a2600154610cb690610b1b906001600160a01b031681565b90813b15610154575f8094610ce160405197889687958694632656227d60e01b8652600486016109f9565b03925af19081610dc4575b50610d475750505f516020611fba5f395f51905f5260405180610d4081606090602081526020808201527f4661696c656420746f2065786563757465207768616c652070726f706f73616c60408201520190565b0390a15f90565b610dbc7f2847c190047f5a77bdcd3ead2ee3867e0ccee96c0f19e944c91ad66586359c4791610d916003610d83865f52600960205260405f2090565b01805460ff19166001179055565b610da3600160ff196007541617600755565b610dac81600655565b6040519081529081906020820190565b0390a2600190565b80610dd25f610dd8936101ee565b8061014a565b5f610cec565b80610dd25f610dec936101ee565b5f610c8b565b610819565b5f516020611fda5f395f51905f5292919450610e2a9060203d602011610e32575b610e2281836101ee565b8101906106f8565b939091610bb1565b503d610e18565b610e5391975060203d602011610e3257610e2281836101ee565b955f610b5e565b15610e6157565b60405162461bcd60e51b8152602060048201526015602482015274496e76616c6964207768616c65206164647265737360581b6044820152606490fd5b15610ea557565b60405162461bcd60e51b8152602060048201526014602482015273125b9d985b1a5908191c985a5b88185b5bdd5b9d60621b6044820152606490fd5b15610ee857565b60405162461bcd60e51b815260206004820152601960248201527f5768616c6520686173206e6f20766f74696e6720706f776572000000000000006044820152606490fd5b634e487b7160e01b5f52601160045260245ffd5b906127108202918083046127101490151715610f5957565b610f2d565b8115610f68570490565b634e487b7160e01b5f52601260045260245ffd5b60809060208152602a60208201527f5768616c6520766f74696e6720706f77657220746f6f206c6f7720287265717560408201526969726573203e3430252960b01b60608201520190565b60809060208152603560208201527f44656c6567617465207768616c6520766f74657320746f2061747461636b20636040820152746f6e7472616374206265666f726520766f74696e6760581b60608201520190565b90816020910312610154575180151581036101545790565b5f9060033d1161104157565b905060045f803e5f5160e01c90565b5f60443d10610816576040513d600319016004823e8051913d602484011167ffffffffffffffff8411176110be578282019283519167ffffffffffffffff83116110b6573d840160031901858401602001116110b65750610816929101602001906101ee565b949350505050565b92915050565b9060206108169281815201906102b5565b6001600160a01b0381166110ea811515610e5a565b6110f5831515610e9e565b600280546001600160a01b0319166001600160a01b0384161790555f5461112690610b1b906001600160a01b031681565b6040516309ab24eb60e41b81526001600160a01b03841660048201529190602083602481845afa928315610df2575f936113a5575b506040516318160ddd60e01b815291602083600481855afa928315610df2575f93611384575b506040516309ab24eb60e41b815230600482015291602090839060249082905afa918215610df2575f92611359575b506111da6111d5610fa093946111c7871515610ee1565b6111d087610f41565b610f5e565b600455565b60045460408051868152602081018390529192917feb5abf8ba5f7fca2742ff3c3f86f5e0b0643ecd07f40f8de82ca0f17d55141879190a21061133a571061131d57604051630116e12560e51b81526001600160a01b0391909116600482015260248101919091526020816044815f305af15f91816112ec575b506108165750611262611035565b6308c379a0146112bb575b5f516020611fba5f395f51905f5260405180610d408160609060208152601d60208201527f556e6b6e6f776e206572726f7220696e207768616c652061747461636b00000060408201520190565b6112c3611050565b806112ce575061126d565b610d405f516020611fba5f395f51905f5291604051918291826110c4565b61130f91925060203d602011611316575b61130781836101ee565b81019061101d565b905f611254565b503d6112fd565b50505f516020611fba5f395f51905f5260405180610d4081610fc7565b505050505f516020611fba5f395f51905f5260405180610d4081610f7c565b610fa092506111d561137c6111da9260203d602011610e3257610e2281836101ee565b9350506111b0565b61139e91935060203d602011610e3257610e2281836101ee565b915f611181565b6113bf91935060203d602011610e3257610e2281836101ee565b915f61115b565b9060405160a0810181811067ffffffffffffffff82111761021057604052608061141a6004839580548552600181015460208601526002810154604086015260ff6003820154161515606086015201610215565b910152565b1561142657565b60405162461bcd60e51b815260206004820152601060248201526f155b9adb9bdddb881c1c9bdc1bdcd85b60821b6044820152606490fd5b611478611473825f52600960205260405f2090565b6113c6565b6114848151151561141f565b60015461149b90610b1b906001600160a01b031681565b604051631f27a4f360e11b815260048101849052602081602481855afa8015610df2576002915f916116d0575b500361167f576002546001600160a01b0316916114e361060d565b6003549091906114ff906001600160a01b0316610a618461062f565b61150761060d565b925f6115128561062f565b526115896080611520610641565b5f54604080870180519151633a0255c960e11b60208201526001600160a01b03938416602482015260448101929092529990911660648201529094906115698160848101610ac8565b6115728661062f565b5261157c8561062f565b5001516020815191012090565b93813b15610154575f80946115b460405197889687958694632656227d60e01b8652600486016109f9565b03925af1908161166b575b506116135750505f516020611fba5f395f51905f5260405180610d4081606090602081526020808201527f4661696c656420746f2065786563757465207768616c652070726f706f73616c60408201520190565b610dbc7f2847c190047f5a77bdcd3ead2ee3867e0ccee96c0f19e944c91ad66586359c479161164f6003610d83865f52600960205260405f2090565b611661600160ff196007541617600755565b51610dac81600655565b80610dd25f611679936101ee565b5f6115bf565b5050505f516020611fba5f395f51905f5260405180610d408160609060208152601a60208201527f50726f706f73616c206e6f74207375636365656465642079657400000000000060408201520190565b6116e9915060203d602011610e3257610e2281836101ee565b5f6114c8565b6001600160a01b038116929190611707841515610e5a565b611712821515610e9e565b600280546001600160a01b0319166001600160a01b0383161790555f5461174390610b1b906001600160a01b031681565b6040516309ab24eb60e41b81526001600160a01b03831660048201529490602086602481845afa958615610df2575f966119bb575b50906020600492604051938480926318160ddd60e01b82525afa8015610df2576111d56117bf91610fa0945f9161199c575b506117b6891515610ee1565b6111d089610f41565b60045460408051888152602081018390529192917feb5abf8ba5f7fca2742ff3c3f86f5e0b0643ecd07f40f8de82ca0f17d55141879190a21061197d5761180461060d565b600354909290611820906001600160a01b0316610a618561062f565b602061182a61060d565b925f6118358561062f565b528261187d611842610641565b5f54604051633a0255c960e11b878201526001600160a01b039182166024820152604481019490945290931660648301528160848101610ac8565b6118868261062f565b526118908161062f565b50611899610697565b9485945f6118b4610b1b610b1b60015460018060a01b031690565b926118d560405198899687958694633eaf40f160e11b8652600486016107ce565b03925af1918215610df2575f9261194f575b50819261193b5f516020611fda5f395f51905f52939661190686610824565b61190e6105fe565b9043825260208201528360408201525f6060820152826080820152610bfa865f52600960205260405f2090565b61194a604051928392836109dd565b0390a2565b5f516020611fda5f395f51905f5292506119779060203d602011610e3257610e2281836101ee565b916118e7565b505090505f516020611fba5f395f51905f5260405180610d4081610f7c565b6119b5915060203d602011610e3257610e2281836101ee565b5f6117aa565b6004929196506119d9602091823d8411610e3257610e2281836101ee565b96919250611778565b156119e957565b60405162461bcd60e51b815260206004820152601f60248201527f4d75737420637265617465206174206c6561737420312070726f706f73616c006044820152606490fd5b15611a3557565b60405162461bcd60e51b815260206004820152601f60248201527f416d6f756e74207065722070726f706f73616c206d757374206265203e2030006044820152606490fd5b9060018201809211610f5957565b91908201809211610f5957565b805191908290602001825e015f815290565b5f198114610f595760010190565b611ac08215156119e2565b611acb831515611a2e565b600280546001600160a01b0319166001600160a01b0383161790555f54611afc90610b1b906001600160a01b031681565b6040516309ab24eb60e41b81526001600160a01b0383166004820152602081602481855afa908115610df2575f91611e70575b506040516309ab24eb60e41b815230600482015291602090839060249082905afa918215610df2575f92611e4f575b508015918215611e45575b5050611e27575f915f935f5b828110611ba25750505050611b875790565b611b99600160ff196007541617600755565b61081681600655565b5f611c8e611bae61060d565b600354611bc3906001600160a01b0316610a58565b611bcb61060d565b83611bd58261062f565b52611bde610641565b8454604051633a0255c960e11b60208201526001600160a01b03918216602482015260448101899052908a166064820152909190611c1f8160848101610ac8565b611c288361062f565b52611c328261062f565b50611c9c611c47611c4288611a7a565b611f06565b604051958691611c88602084016021907f50524f504f53414c3a205768616c6520416c6c6f636174696f6e20526f756e648152600160fd1b60208201520190565b90611a95565b03601f1981018652856101ee565b6020611ce9611caf866020815191012090565b600154909690611cc990610b1b906001600160a01b031681565b90604051988980948193633eaf40f160e11b835289898c600486016107ce565b03925af15f9581611e07575b50611d08575b5050505050600101611b75565b600154611d1f90610b1b906001600160a01b031681565b803b1561015457604051630acf027160e31b81526004810187905260016024820152905f908290604490829084905af19081611df3575b5015611cfb57600154611d7390610b1b906001600160a01b031681565b90813b15610154575f8094611d9e60405197889687958694632656227d60e01b8652600486016109f9565b03925af19081611ddf575b50611db8575b80808080611cfb565b959490611dd9611dd384611dcd600195611aa7565b98611a88565b97610824565b90611daf565b80610dd25f611ded936101ee565b5f611da9565b80610dd25f611e01936101ee565b5f611d56565b611e2091965060203d8111610e3257610e2281836101ee565b945f611cf5565b5050505f516020611fba5f395f51905f5260405180610d4081610fc7565b1090505f80611b69565b611e6991925060203d602011610e3257610e2281836101ee565b905f611b5e565b611e89915060203d602011610e3257610e2281836101ee565b5f611b2f565b90611e998261067b565b611ea660405191826101ee565b8281528092611eb7601f199161067b565b0190602036910137565b60405190611ed06040836101ee565b600a8252693031323334353637383960b01b6020830152565b8015610f59575f190190565b90815181101561063c570160200190565b908115611f98575f82805b611f7d5750611f1f81611e8f565b9083611f29611ec1565b91905b611f37575090925050565b611f43611f7691611ee9565b94611f62611f54600a830685611ef5565b516001600160f81b03191690565b5f1a611f6e8786611ef5565b53600a900490565b9384611f2c565b90611f8a611f9291611aa7565b91600a900490565b80611f11565b9050604051611fa86040826101ee565b60018152600360fc1b60208201529056fef7ce286cb87e5c742d8641799444d56f1df046fa657c97d13b6f4fddb35a8cc3e7e7eddf2ff174f79138d7fea38112d3182c0e3159a58819bef117d2a1f7b289a2646970667358221220d5daedf5099fd4d02232e47f0abb04e961b2cf273ee92676520b20c9870f05da64736f6c63430008210033","linkReferences":{}},"methodIdentifiers":{"_performWhaleAttack(address,uint256)":"22dc24a0","amountStolenFromTreasury()":"405adc9e","attackSucceeded()":"8833dc27","createWhaleProposal(address,uint256)":"d4657552","executeAfterWhaleVote(uint256)":"76ede641","executeGradualDraining(address,uint256,uint256)":"d715c2c3","executeWhaleAttack(address,uint256)":"388f36b8","getAmountStolen()":"bd58b6cf","getProfitabilityRatio()":"65e645c8","getProposalsCount()":"98e527d3","getWhaleVotingPercentage()":"24c2c623","governanceToken()":"f96dae0a","governor()":"0c340a24","proposalDetails(uint256)":"16e9eaec","submittedProposals(uint256)":"e221e248","targetTreasury()":"e6420eb9","votingParticipationRate()":"fc041017","wasAttackSuccessful()":"16bc6e29","whaleAttacker()":"cb8a8c7c","whaleHoldingPercentage()":"744d06c8"},"id":76}